:020000040800F2
:1000000038270020FD040008C1310008C331000872
:10001000C7310008CB310008CF31000800000000D4
:10002000000000000000000000000000D3310008C4
:10003000D531000800000000D7310008D931000890
:10004000170500081705000817050008E13100082A
:100050001705000817050008170500081705000810
:100060001705000817050008170500081705000800
:1000700017050008170500081705000817050008F0
:1000800017050008170500081705000815320008B5
:100090001D3200081705000817050008170500089D
:1000A00017050008170500081705000817050008C0
:1000B000FD3100081705000817050008170500089E
:1000C00017050008170500081705000817050008A0
:1000D000170500086538000817050008A942000840
:1000E0001705000817050008170500081705000880
:1000F0001705000817050008170500081705000870
:10010000170500080D32000817050008170500083C
:10011000170500081705000817050008170500084F
:10012000170500081705000817050008170500083F
:1001300000F002F800F078F80AA090E8000C824481
:100140008344AAF10107DA4501D100F06DF8AFF25E
:10015000090EBAE80F0013F0010F18BFFB1A43F0A5
:100160000103184794090100B40901000A444FF043
:10017000000C10F8013B13F0070408BF10F8014B06
:100180001D1108BF10F8015B641E05D010F8016B4B
:10019000641E01F8016BF9D113F0080F1EBF10F8AF
:1001A000014BAD1C0C1B09D16D1E58BF01F801CBD2
:1001B000FAD505E014F8016B01F8016B6D1EF9D555
:1001C0009142D6D37047000000230024002500266A
:1001D000103A28BF78C1FBD8520728BF30C148BFAA
:1001E0000B60704766290FF0948464290BF08287B6
:1001F00063290CF0088573290CF00D8500207047E9
:100200001FB5AFF300800CF045FA04000020002178
:100210000EF0FEFA401C6060002000210EF00EFB84
:10022000E0601FBD10B510BD0DF002F91146FFF7DB
:10023000E7FF02F0B5FE0DF07BFBFFF7F3FF0DF0DB
:10024000B5FD000000200021A14A126842F480326E
:100250009F4B1A6000BF9E4A126802F40031401C96
:1002600011B9B0F5A06FF6D1994A126812F4003FA7
:1002700001D0012100E00021012942D1954A1268F4
:1002800042F01002934B1A601A46126822F00302E1
:100290001A601A46126842F002021A608C4A5268CA
:1002A0008B4B5A601A4652685A601A46526842F49A
:1002B00080625A601A46526822F47C125A601A46CA
:1002C000526842F4E8125A601A46126842F080728C
:1002D0001A6000BF7E4A126812F0007FFAD07C4A92
:1002E000526822F003027A4B5A601A46526842F072
:1002F00002025A6000BF764A526802F00C02082AD5
:10030000F9D1704700200021714A126842F480320E
:100310006F4B1A6000BF6E4A126802F40031401C35
:1003200011B9B0F5A06FF6D1694A126812F4003F16
:1003300001D0012100E0002101293ED1654A126867
:1003400042F01002634B1A601A46126822F0030250
:100350001A601A4612681A605D4A52685C4B5A600D
:100360001A4652685A601A4652685A601A465268CB
:1003700022F47C125A601A46526842F498125A606B
:100380001A46126842F080721A6000BF504A126822
:1003900012F0007FFAD04E4A526822F003024C4B12
:1003A0005A601A46526842F002025A6000BF484A38
:1003B000526802F00C02082AF9D1704710B50446C1
:1003C00045480470182C02D0482C0CD105E0FFF7EA
:1003D00099FF4248424908600DE0FFF733FF41486A
:1003E0003F49086007E0FFF72DFF3E483C490860A1
:1003F0003948047000BF00BF10BD10B53448006814
:1004000040F001003249086008464068364908401B
:100410002F49486008460068344908402C49086064
:100420000846006820F4802008600846406820F4F0
:10043000FE0048604FF41F0088601820FFF7BEFFE1
:1004400010BD10B5002000210022214B5B6803F095
:100450000C0020B1042806D0082828D107E0244B3E
:100460001F4C236027E0224B1D4C236023E0184BD8
:100470005B6803F47011164B5B6803F4803202234F
:1004800003EB914122B91B4B4B43154C23600DE00C
:100490000F4B5B6813F4003F04D0164B4B43104CDA
:1004A000236003E0124B4B430D4C236003E0104BE1
:1004B0000B4C236000BF00BF054B5B68C3F3031305
:1004C0000D4CE05C064B1B68C340054C236010BD1F
:1004D00000100240002002401400002000366E018F
:1004E0001000002000A24A040000FFF8FFFFF6FE03
:1004F00000127A0000093D000000002009488047F2
:1005000009480047FEE7FEE7FEE7FEE7FEE7FEE7F5
:10051000FEE7FEE7FEE7FEE704480549054A064B0D
:1005200070470000FB03000831010008382100205B
:100530003827002038230020382300203249014387
:10054000324A1160704770B5002100230F22C47831
:100550000CB32E4C246804F4E064C4F5E064210A72
:10056000C1F10403CA40447804FA03F184781440CA
:1005700021430901264C0678A155047804F01F0593
:100580000124AC4005786D114FF0E02606EB85059F
:10059000C5F8004109E0047804F01F040125A540D6
:1005A0001C4C0678761144F8265070BD1A4A0A4051
:1005B0000243164B1B1F1A60704741B1134A121DAC
:1005C000126802434FF0E023C3F8102D07E00F4AF2
:1005D000121D126882434FF0E023C3F8102D7047BC
:1005E000042808D14FF0E021096941F004014FF0DF
:1005F000E022116107E04FF0E021096921F00401D8
:100600004FF0E022116170470000FA050CED00E0A8
:1006100000E400E080E100E080FFFF1F016821F0BE
:10062000010101600021016041608160C1608E496B
:10063000884208D18C490839496841F00F018A4A3B
:10064000083A516090E088491431884208D18649BF
:100650000839496841F0F001834A083A516083E063
:1006600081492831884208D17F490839496841F4D5
:1006700070617D4A083A516076E07B493C3188429E
:1006800008D179490839496841F47041764A083AF5
:10069000516069E074495031884208D17249083983
:1006A000496841F47021704A083A51605CE06E4933
:1006B0006431884208D16C490839496841F47001B5
:1006C000694A083A51604FE067497831884208D159
:1006D00065490839496841F07061634A083A5160D8
:1006E00042E06249884208D1011F096841F00F01C8
:1006F0005D4A083AC2F8041436E05C491431884275
:1007000009D15A49091F096841F0F001564A083ACF
:10071000C2F8041428E055492831884209D15349C8
:10072000091F096841F470614F4A083AC2F804147D
:100730001AE04E493C31884209D14C49091F0968E9
:1007400041F47041484A083AC2F804140CE04749A1
:100750005031884208D14549091F096841F4702188
:10076000414A083AC2F80414704710B500220268E2
:1007700047F6F0739A430C6A8B6823430C69234352
:100780004C6923438C692343CC6923434C6A23433C
:100790008C6A23431A430260CB6843600B68836012
:1007A0004B68C36010BD0021016041608160C16081
:1007B000016141618161C161016241628162704791
:1007C00021B1026842F00102026003E0026822F0F7
:1007D0000102026070471AB103680B43036002E034
:1007E00003688B43036070470146486880B27047D6
:1007F00002460020002112F0805F03D01B4B083B13
:10080000196802E0184B083B1968114201D0012019
:1008100000E00020704710F0805F03D01349091FEB
:10082000086002E01049083948607047024600201D
:10083000002112F0805F03D00C4B083B196802E0E6
:10084000094B083B1968114201D0012000E000204B
:10085000704710F0805F03D00449091F086002E070
:100860000149083948607047080002400804024006
:1008700030B943F2DB014FF0204242F8201005E08E
:1008800043F2D2014FF0204242F820106FF0704244
:10089000411C4FF0204343F8212011461A4602EB39
:1008A0008002C2F80411704710280AD118214FF0B5
:1008B00020421166402151664FF0FC319166D166AD
:1008C00010E01821F84A116040214FF02042C2F890
:1008D00084104FF0FC31F44A083211604FF020428E
:1008E000C2F88C1070471820EF49203108600020B2
:1008F0000906C1F8A4004FF0FC30EB49283108602C
:10090000091D0860091D08607047D0E901121143F4
:10091000C26811430269114342691143826911435C
:10092000C2691143026A1143426A1143826A114348
:10093000C26A11434FF02043026843F822108168D5
:10094000082908D11A46016852F8211041F04001E7
:10095000026843F82210016B0968026B526841EA91
:100960000211026B926841EA0221026BD26841EAED
:100970000241026B126941EA0251026B526941EA7B
:100980000262016B89690A430168491C4FF02043E8
:1009900043F82120816AB1F5804F1AD1416B096873
:1009A000426B526841EA0211426B926841EA0221AD
:1009B000426B126941EA0251426B526941EA02619B
:1009C000426B92691143026803EB8202C2F8041180
:1009D00008E06FF070414FF02043026803EB8202A1
:1009E000C2F80411704730B500210022002344688A
:1009F00044F0080485682C43C5682C4305692C43E2
:100A0000456944EA4524856944EA4531C469246856
:100A1000C5696D6844EA0524C569AD6844EA0544C2
:100A2000C569ED6844EA0562046A2468056A6D6870
:100A300044EA0524056AAD6844EA0544056AED68A0
:100A400044EA05630468102C05D14FF02044216668
:100A5000A266E36608E0944C21604FF02044C4F89D
:100A60008820914C0C34236030BD016841F01001A6
:100A7000426841EA4221826841EA42318A4A203290
:100A80001160C1680968C268526841EA0221C268FF
:100A9000926841EA0241C268D26841EA0261824A30
:100AA00028321160016909680269526841EA02212D
:100AB0000269926841EA02410269D26841EA026130
:100AC000794A2C321160416909684269526841EAE9
:100AD00002214269926841EA02414269D26841EAD0
:100AE00002614FF02042C2F8B0107047002101604F
:100AF0000221416000218160C16001614161816129
:100B0000C1614FF48051016249004162002181625C
:100B1000C1620F21026B1160026B5160FF21026BF9
:100B200091600F21026BD160026B1161026B516108
:100B30000021026B91610F21426B1160426B516089
:100B4000FF21426B91600F21426BD160426B1161BA
:100B5000426B51610021426B91617047102101602D
:100B6000002141608160C160016141618161FC21BE
:100B7000C2691160C2695160C2699160C269D16085
:100B8000026A1160026A5160026A9160026AD16071
:100B900070470021016041608160FC21C2681160E2
:100BA000C2685160C2689160C268D1600269116018
:100BB00002695160026991600269D1604269116005
:100BC00042695160426991604269D160704751B198
:100BD0004FF0204252F8202042F001024FF0204313
:100BE00043F8202009E04FF0204252F820202F4BFC
:100BF0001A404FF0204343F82020704799B1102845
:100C000008D14FF02042126E42F004024FF0204310
:100C10001A661DE0244A126842F004024FF0204395
:100C2000C3F8802014E0102809D14FF02042126E42
:100C30001E4BDB1E1A404FF020431A6608E01A4A8A
:100C400012681A4BDB1E1A404FF02043C3F8802075
:100C5000704748B114492031096841F004014FF050
:100C60002042C2F8A01009E00F49203109680F4A5C
:100C7000D21E11404FF02042C2F8A0107047B9B107
:100C8000102808D14FF02042126E42F040024FF07F
:100C900020431A661FE0044A126842F040024FF0F7
:100CA0002043C3F8802016E0800000A0FEFF0F0064
:100CB000102808D14FF02042126E6B4B1A404FF0B3
:100CC00020431A6607E0694A1268674B1A404FF0E2
:100CD0002043C3F88020704701460020102903D12B
:100CE0004FF02042506F02E0604A143210687047A3
:100CF00010B5F2B1102807D14FF020435B6E0B43C3
:100D00004FF02044636632E0B0F5807F08D1574B46
:100D10001B1D1B680B434FF02044C4F8843026E0B1
:100D2000524B24331B680B434FF02044C4F8A430CB
:100D30001DE0102807D14FF020435B6E8B434FF02E
:100D40002044636613E0B0F5807F08D1474B1B1D3C
:100D50001B688B434FF02044C4F8843007E0434BBA
:100D600024331B688B434FF02044C4F8A43010BDDB
:100D700010B5034600200022102B03D14FF0204471
:100D8000626E09E0B3F5807F03D1384C241D2268E0
:100D900002E0364C243422680A4201D0012000E0EF
:100DA000002010BD102807D14FF02042526E8A4318
:100DB0004FF020435A6613E0B0F5807F08D12B4AEC
:100DC000121D12688A434FF02043C3F8842007E0C5
:100DD000264A243212688A434FF02043C3F8A420E5
:100DE000704770B502460020002300240025102A19
:100DF00003D14FF02046736E09E0B2F5807F03D136
:100E00001A4E361D336802E0184E2436336803EA62
:100E1000010403EAD10514B10DB1012000E0002066
:100E200070BD102808D14FF02042526E22EAD10244
:100E30004FF020435A6615E0B0F5807F09D10B4A88
:100E4000121D126822EAD1024FF02043C3F8842019
:100E500008E0064A2432126822EAD1024FF0204309
:100E6000C3F8A42070470000BFFF0F00800000A05F
:100E700010B50446C748844208D10121042000F07F
:100E80001BFB0021042000F017FB46E0C24884420F
:100E900008D10121082000F00FFB0021082000F0FC
:100EA0000BFB3AE0BD48844208D10121102000F03C
:100EB00003FB0021102000F0FFFA2EE0B848844226
:100EC00008D10121202000F0F7FA0021202000F0B5
:100ED000F3FA22E0B348844208D10121402000F017
:100EE000EBFA0021402000F0E7FA16E0AE48844219
:100EF00008D10121802000F0DFFA0021802000F0DD
:100F0000DBFA0AE0A948844207D10121801500F0EC
:100F1000D3FA0021A01500F0CFFA10BD10B50121C1
:100F2000084600F0C9FA0021012000F0C5FA10BD02
:100F3000F0B500220023002400250026002791F8A8
:100F400003C00CF00F0291F803C01CF0100F03D087
:100F500091F802C04CEA0202B1F800C01CF0FF0F89
:100F600031D0066800242BE04FF0010C0CFA04F598
:100F7000B1F800C00CEA0503AB4220D1A5004FF048
:100F80000F0C0CFA05F7BE4302FA05FC4CEA060604
:100F900091F803C0BCF1280F06D14FF0010C0CFAF8
:100FA00004FCC0F814C00AE091F803C0BCF1480F7B
:100FB00005D14FF0010C0CFA04FCC0F810C0641C01
:100FC000082CD1D30660B1F800C0BCF1FF0F34DDAE
:100FD000466800242EE004F1080C4FF0010E0EFAD2
:100FE0000CF5B1F800C00CEA0503AB4221D1A50015
:100FF0004FF00F0C0CFA05F7BE4302FA05FC4CEA61
:10100000060691F803C0BCF1280F05D104F1080CC5
:101010000EFA0CFEC0F814E091F803C0BCF1480FC2
:1010200007D104F1080C4FF0010E0EFA0CFEC0F8C7
:1010300010E0641C082CCED34660F0BD4FF6FF7163
:101040000180022181700421C17070470246002096
:1010500093680B4201D0012000E000207047014658
:10106000886880B2704702460020D3680B4201D0E6
:10107000012000E0002070470146C86880B2704738
:1010800001617047416170470AB1016100E041614F
:101090007047C16070474FF480320A4382618161BA
:1010A00082618269826970470022414B1A684FF65B
:1010B00080731A4042EA00120A433D4B1A6070479F
:1010C0003C49C8617047F0B5002200230024002588
:1010D00000F00046B6F1004F02D1354EF46901E050
:1010E000334E7468C0F3034582B200F44016B6F57F
:1010F000401F08D124F070642D4E766826F070668B
:101100002B4F7E6012E000F48016B6F5801F06D1EA
:10111000032606FA05F39C4344F0706406E0460D8E
:10112000360102FA06F6B44344F0706421B1460D6C
:10113000360102FA06F6344300F00046B6F1004FDD
:1011400002D11B4EF46101E0194E7460F0BD30B560
:1011500000228B071C0F0F2303FA04F2144B0833F1
:101160008C1053F8244094438D1043F825408C1084
:1011700053F824308C07240F00FA04F423430C4C5A
:1011800008348D1044F8253030BD0A49DC31086040
:101190007047000000080140000C014000100140B1
:1011A0000014014000180140001C014000200140D3
:1011B0000000014000002042DB48006840F00100D0
:1011C000D949086008464068D8490840D64948606F
:1011D00008460068D6490840D349086008460068B8
:1011E00020F4802008600846406820F4FE00486033
:1011F0004FF41F0088607047CB49096821F48031A3
:10120000C94A11601146096821F480211160B0F5C6
:10121000803F03D0B0F5802F0ED106E0C2490968A7
:1012200041F48031C04A116007E0BF49096841F4C8
:10123000A021BD4A116000E000BF00BF704710B59B
:1012400001460022002300204A11012A02D1B64C97
:10125000236806E0022A02D1B34C236A01E0B24CB3
:10126000636A01F01F02012494401C4201D0012056
:1012700000E0002010BD70B500240025002600BF4E
:101280003120FFF7DCFF0646641CB4F5A06F01D0E7
:10129000002EF5D03120FFF7D2FF08B1012500E084
:1012A0000025284670BD00219F4A116821F0F801F1
:1012B00041EAC001116070479E49086070470022F2
:1012C000994B5A6822F47C1240EA01031A43964B68
:1012D0005A6070479749086670470021924A5168E2
:1012E00021F003010143516070478F48406800F0CE
:1012F0000C00704700218C4A516821F0F001014335
:10130000516070470021884A516821F4E06101432F
:10131000516070470021844A516821F4605141EACC
:10132000C0015160704729B17F4A527A02437E4B17
:101330005A7206E07C4A527AC343DBB21A407A4BB7
:101340005A7270477B49D831086070470021764A4D
:10135000516821F440410143516070470021724AB5
:1013600020321170704A82F82010012802D004281F
:101370000AD104E001216C4A2032117005E00521F8
:10138000694A2032117000E000BF00BF70476A490F
:10139000086070476449096A0143634A11627047F3
:1013A000654944390860704730B5002100220023A8
:1013B00000245D4D6D6805F00C0121B1042905D0B4
:1013C000082923D105E05D4D056022E05B4D0560F5
:1013D0001FE0554D6D6805F47012534D6D6805F4AE
:1013E0008033022505EB92421BB9554D55430560EC
:1013F0000BE04D4D6D6815F4003F03D0504D554343
:10140000056002E04D4D5543056002E04B4D05601F
:1014100000BF00BF444D6D6805F0F0010909494D5A
:101420006C5C0568E54045603F4D6D6805F4E06122
:10143000090A444D6C5C4568E54085603A4D6D682D
:1014400005F46051C90A3F4D6C5C4568E540C560D4
:10145000354D6D6805F44041890B3A4D10356C5C93
:10146000C568B5FBF4F5056130BD29B12E4A526956
:1014700002432D4B5A6104E02B4A526982432A4BA6
:101480005A61704729B1284A92690243264B9A61F2
:1014900004E0254A92698243234B9A61704729B13F
:1014A000214AD2690243204BDA6104E01E4AD26924
:1014B00082431D4BDA61704729B11B4AD26802434F
:1014C000194BDA6004E0184AD2688243164BDA609E
:1014D000704729B1144A12690243134B1A6104E0A0
:1014E000114A12698243104B1A6170471249403900
:1014F000086070470F49C86470470B49C87170474E
:101500000948406A40F080700749486270470146C8
:101510000020054A92680A4201D0012000E0002024
:101520007047014988727047001002400000FFF8C0
:10153000FFFFF6FE000042428004424200127A00A1
:1015400000093D001500002031B1564A12880243BF
:10155000554BA3F8002807E0524A1288C3439BB2B8
:101560001A40514BA3F8002870474E48001D0088D0
:1015700040F010004C49A1F8040870474948001D8C
:1015800000884FF6EF7108404749A1F804087047FA
:10159000002144481C3001884348B0F8180841EA4B
:1015A0000040704700B50246FFF7DFFF100C3D49D1
:1015B000183108803C49A1F81C28FFF7DFFF00BD67
:1015C00000B50246FFF7D1FFC2F3034035490831A9
:1015D00008803549A1F80C28FFF7D0FF00BD00B501
:1015E0000246FFF7C2FF100C2E49203108802E4919
:1015F000A1F82428FFF7C2FF00BD002029491031BF
:1016000009880907080B2849B1F8141808437047DE
:1016100000BF2448001D008810F0200FF9D070474B
:101620002048001D00884FF6F77108401E49A1F8B8
:10163000040800BF1B48001D008810F0080FF9D0F7
:10164000704701460020174A121D12880A4201D035
:10165000012000E0002070471249091D0988C2439B
:1016600092B21140104AA2F80418704701460020B7
:101670000C4A121D12880A40D0B20B4AB2F8002858
:101680000A4202D008B1012000E00020704705495D
:10169000091D0988C24392B21140034AA2F80418F6
:1016A00070470000002800400020004000206D49E5
:1016B000086048608860C86048628862C8626A489A
:1016C00088630020C86370470021664A516847F666
:1016D000FF629143027D83681A4343681A43C368DB
:1016E0001A4303681A4303691A4311435D4A516060
:1016F000704700210175016041608160C160016136
:1017000070475A49086070475649096821F003013B
:10171000544A1160114609680143116070475148ED
:10172000006800F00300704729B14E4AD26B0243B3
:101730004C4BDA6304E04B4AD26B8243494BDA6389
:1017400070474B49086070470021464B02689A6019
:101750001A46D1686FF30A01D0E901231A43C3681E
:101760001A4303691A4311433E4AD160704700216E
:10177000016041608160C160016170473948006962
:10178000C0B2704701460022364814300A1810686B
:1017900070470021334B02685A6242689A621A46C7
:1017A000D16A21F0F701D0E902231A4303691A43F1
:1017B00043691A4311432B4AD16270474FF0FF31FE
:1017C0000160002141608160C16001614161704739
:1017D0002448006B704723488030006870472149D7
:1017E0008031086070471F48806C70472049143171
:1017F000086070471E491831086070471C491C3149
:10180000086070471A49203108607047194908601C
:1018100070471849091D0860704701218143154A26
:1018200008321160704713490C3108607047014657
:1018300000200C4A526B0A4201D0012000E0002037
:10184000704708498863704701460020054A526B7B
:101850000A4201D0012000E000207047014988635E
:101860007047000000800140FF07C000A000304228
:101870008C053042AC01304210B50446FF4884422A
:1018800008D10121C014FFF717FE0021E014FFF773
:1018900013FEC4E0B4F1804F08D101210846FFF7E0
:1018A00018FE00210120FFF714FEB8E0F44884423E
:1018B00008D101210220FFF70CFE00210220FFF7D2
:1018C00008FEACE0EF48844208D101210420FFF774
:1018D00000FE00210420FFF7FCFDA0E0EA4884425E
:1018E00008D101210820FFF7F4FD00210820FFF7AF
:1018F000F0FD94E0E548844208D101211020FFF773
:10190000E8FD00211020FFF7E4FD88E0E048844274
:1019100008D101212020FFF7DCFD00212020FFF766
:10192000D8FD7CE0DB48844208D101214014FFF758
:10193000C3FD00216014FFF7BFFD70E0D64884426C
:1019400009D10121C804FFF7B7FD00214FF40020A1
:10195000FFF7B2FD63E0D148844209D101210805B7
:10196000FFF7AAFD00214FF48010FFF7A5FD56E018
:10197000CB48844209D101214805FFF79DFD002194
:101980004FF40010FFF798FD49E0C648844208D1A3
:1019900001214020FFF79DFD00214020FFF799FD28
:1019A0003DE0C148844208D101218020FFF791FD2C
:1019B00000218020FFF78DFD31E0BC48844208D132
:1019C00001218015FFF785FD0021A015FFF781FD9E
:1019D00025E0B748844209D101210804FFF76CFDD6
:1019E00000214FF48030FFF767FD18E0B1488442D2
:1019F00009D101214804FFF75FFD00214FF40030B9
:101A0000FFF75AFD0BE0AC48844208D1012188045D
:101A1000FFF752FD00214FF48020FFF74DFD10BD70
:101A200000220288954B98420ED09A4B98420BD0D8
:101A3000B0F1804F08D0924B984205D0914B98421C
:101A400002D0914B984204D14FF68F731A404B88C5
:101A50001A438E4B984207D08D4B984204D04FF6D4
:101A6000FF431A40CB881A4302808B8883850B88FA
:101A70000385824B98420BD0864B984208D08C4B02
:101A8000984205D08B4B984202D08B4B984201D1A3
:101A90000B7A038601238382704770B500220023EE
:101AA0000024058C4FF6FE7635400584038C84882F
:101AB000028B4FF68F752A40B51E2A400D882A43A7
:101AC000751E2B400D892B434D882B436B4DA8422F
:101AD0000BD0704DA84208D0754DA84205D0754D69
:101AE000A84202D0744DA84213D14FF6F7752B408F
:101AF0004D892B434FF6FB752B408D882B434FF6BA
:101B0000FF652C404FF6FF552C408D892C43CD8925
:101B10002C4384800283CD888586038470BD70B594
:101B2000002200230024058C4FF6EF763540058413
:101B3000038C8488028B48F6FF752A404FF6FF45D8
:101B40002A400D882D0642EA15424FF6DF752B40DC
:101B50000D892D0543EA15434D882D0543EA1543AC
:101B6000464DA84202D04B4DA8421BD14FF67F757F
:101B70002B404D892D0543EA15434FF6BF752B4089
:101B80008D882D0543EA15434FF6FF352C404FF263
:101B9000FF752C408D89AD0444EA1544CD89AD0410
:101BA00044EA154484800283CD880587038470BD90
:101BB00070B5002200230024058C4FF6FF663540E7
:101BC0000584038C8488828B4FF68F752A404FF6EC
:101BD000FC752A400D882A434FF6FF552B400D898E
:101BE0002D0643EA15434D882D0643EA1543234D40
:101BF000A84202D0274DA8421BD14FF2FF752B40BF
:101C00004D892D0643EA15434FF6FF352B408D884D
:101C10002D0643EA15434EF6FF752C404DF6FF7531
:101C20002C408D892D0544EA1544CD892D0544EAC3
:101C3000154484808283CD888587038470BD70B508
:101C4000002200230024058C4EF6FF7635400584E3
:101C5000038C8488828B48F6FF752A404FF6FF4537
:101C60002A400D882D0642EA15424DF6FF752B409D
:101C70000D892D0743EA15434D881FE0002C0140D4
:101C80000004004000080040000C0040001000402C
:101C90000014004000340140004C0140005001405D
:101CA0000054014000180040001C0040002000408B
:101CB0000040014000440140004801402D0743EA34
:101CC0001543FB4DA84202D0FA4DA84206D14BF66F
:101CD000FF752C408D89AD0544EA154484808283CC
:101CE000CD88A0F84050038470BD828B4FF2FF3343
:101CF0001A408283828B0B0642EA1342828370472A
:101D0000F0B5002400250026078C4EF6FF7C07EA7C
:101D10000C070784848B058C0F073E0C40F6FF47A9
:101D20003C40170644EA17441F0744EA17444DF69F
:101D3000FF773D4046F480573D4384830584F0BDE2
:101D4000828B4FF6F3731A408283828B0A4382831D
:101D50007047F0B5002500240026078C4FF6FF6C75
:101D600007EA0C070784858B048C0F063E0C4FF6A0
:101D70000C773D401F0542EA17473D434FF6FF579A
:101D80003C4046F480773C4385830484F0BD028B5D
:101D90004FF2FF331A400283028B0B0642EA1342D2
:101DA00002837047F0B5002400250026078C4FF60B
:101DB000EF7C07EA0C070784048B058C0F053E0CAB
:101DC00040F6FF473C401F0744EA1744170644EA21
:101DD00017444FF6DF773D4046F010073D4304833C
:101DE0000584F0BD028B4FF6F3731A400283028B19
:101DF0000A4302837047F0B500240025068C4FF695
:101E0000FE773E400684048B058C4FF60C763440FA
:101E10001E0542EA164634437E1E354041F0010657
:101E2000354304830584F0BD70B504460D4628880B
:101E300050B92B89AA8869882046FFF7DCFFE9881A
:101E40002046FFF7CFFF25E0288804280AD12B89F8
:101E5000AA8869882046FFF7A5FFE9882046FFF792
:101E600096FF17E0288808280AD12B89AA88698854
:101E70002046FFF76EFFE9882046FFF761FF09E083
:101E80002B89AA8869882046FFF73AFFE98820460F
:101E9000FFF72BFF70BD2DE9F04104460D460026EB
:101EA0000127688808B9022600E00026A8880128D2
:101EB00001D1022700E001272888A0B92B89AA8830
:101EC00069882046FFF797FFE9882046FFF78AFFD9
:101ED0002B893A4631462046FFF764FFE9882046C1
:101EE000FFF755FF13E02B89AA8869882046FFF782
:101EF00059FFE9882046FFF74AFF2B893A463146C9
:101F00002046FFF778FFE9882046FFF76BFFBDE822
:101F1000F0810A884B881A438B881A43CB881A436E
:101F20000B891A434B891A438B891A43A0F8442022
:101F300070474FF6FF71818000210180C180418090
:101F4000017270470021018041808180C180018140
:101F500041818181C181704700210180418001213F
:101F600081800021C1800181704700210180418072
:101F70008180C180018141818181704721B10288C6
:101F800042F00102028004E002884FF6FE731A401C
:101F90000280704731B1B0F8442042F40042A0F80A
:101FA000442005E0B0F84420C2F30E02A0F844201B
:101FB000704710B51AB183890B43838104E083898C
:101FC000CC43A4B22340838110BD8182704741EA93
:101FD0000203A0F84830704710B51AB183890B434B
:101FE000838104E08389CC43A4B22340838110BD64
:101FF00001894FF6F8721140018170470022028971
:102000004FF68F731A400A430281704730B5044679
:102010000D4629462046FFF7F1FF208940F00700D2
:10202000208130BD2DE9F04104460D4616461F467D
:10203000602D06D13B46012231462046FFF7B2FE15
:1020400005E03B46012231462046FFF7D4FE2946F3
:102050002046FFF7D3FF208940F007002081BDE82C
:10206000F08130B500240489E4B21D0642EA15452A
:102070000D432C43048130BD2DE9F04104460D464B
:102080001646984600274346324629462046FFF723
:10209000E8FF27894FF6F870074047F007074FF62B
:1020A0008F70074047F070072781BDE8F08100007E
:1020B000002C014000340140F0B504460D461646A0
:1020C0001F463B46324629462046FFF7CAFF208975
:1020D00040F480402081F0BD01858282704700225B
:1020E00002884FF68F731A400A4302807047F0B59A
:1020F0000024002500260489058B068C4FF6F8770E
:102100003C400C434FF6FC473D4040F201173D4335
:102110004FF6DD773E401F0542EA17473E430481F4
:1021200005830684F0BD0022028B4FF68F731A40A0
:102130000A43028370470022028B48F6FF731A405D
:102140000B0642EA1342028370470022828B4FF64D
:102150008F731A400A43828370470022828B48F6AD
:10216000FF731A400B0642EA13428283704721B183
:10217000028842F08002028004E002884FF67F73FA
:102180001A400280704721B1828842F004028280A6
:1021900004E082884FF6FB731A408280704721B1B9
:1021A000828842F00802828004E082884FF6F7734A
:1021B0001A408280704721B1828842F001028280F9
:1021C00004E082884FF6FE731A4082807047002236
:1021D000028B4FF6F7731A400A43028370470022BE
:1021E000028B4FF2FF731A400B0642EA134202833E
:1021F00070470022828B4FF6F7731A400A4382839E
:1022000070470022828B4FF2FF731A400B0642EA9E
:102210001342828370470022028B4FF6FB731A40F1
:102220000A43028370470022028B4FF6FF331A40A5
:102230000B0642EA1342028370470022828B4FF65C
:10224000FB731A400A43828370470022828B4FF649
:10225000FF331A400B0642EA134282837047002282
:10226000028B4FF67F731A400A43028370470022A5
:10227000028BC2F30E020B0642EA1342028370473E
:102280000022828B4FF67F731A400A438283704785
:102290000022828BC2F30E020B0642EA13428283B3
:1022A00070470022028C4FF6FD731A400A430284E5
:1022B00070470022028C4FF6F7731A400A430284DB
:1022C00070470022028C4FF6DF731A400B0542EA7A
:1022D0001342028470470022028C4FF67F731A402B
:1022E0000B0542EA1342028470470022028C4FF62B
:1022F000FF531A400B0642EA134202847047002241
:10230000028C4FF2FF731A400B0642EA134202841A
:1023100070470022028C4DF6FF731A400B0742EA09
:1023200013420284704730B5002301248C40A3B2CD
:10233000048CDD43ADB22C400484048C02FA01F518
:10234000ADB22C43048430BD30B5002304248C404E
:10235000A3B2048CDD43ADB22C400484048C02FA99
:1023600001F5ADB22C43048430BD70B500230024C8
:1023700003461846183301258D40ACB2058CE64360
:10238000B6B23540058409B1082909D103EB6103D0
:102390001D6825F070051D601D6815431D600CE06B
:1023A0000D1FADB203EB65031D6825F4E0451D600C
:1023B0001D68160645EA16451D6070BD21B10288EC
:1023C00042F00202028004E002884FF6FD731A40D8
:1023D0000280704721B1028842F00402028004E0CA
:1023E00002884FF6FB731A400280704721B1828841
:1023F00042F08002828004E082884FF67F731A40A8
:102400008280704702884FF6F7731A400280028874
:102410000A430280704782884FF68F731A40828089
:1024200082880A438280704702894FF6F8731A4007
:10243000028102890A430281704702894FF67F7345
:102440001A40028102890A430281704781847047E1
:102450008185704781867047018770478187704703
:10246000A0F84010704702884FF6FF431A400280E0
:1024700002880A43028070470146888E70470146F1
:10248000088F70470146888F70470146B1F84000B9
:1024900070470146888C70470146088D7047024698
:1024A0000020138A0B4201D0012000E00020704779
:1024B000CA430282704730B5024600200023002440
:1024C000158A05EA0103958905EA010413B10CB1E7
:1024D000012000E0002030BDCA43028270470000A6
:1024E00010B50446FB48844209D101218803FEF758
:1024F000E3FF00214FF48040FEF7DEFF32E0F648B4
:10250000844209D101214804FEF7E3FF00214FF482
:102510000030FEF7DEFF25E0F048844209D10121BA
:102520008804FEF7D6FF00214FF48020FEF7D1FF8C
:1025300018E0EB48844209D10121C804FEF7C9FF25
:1025400000214FF40020FEF7C4FF0BE0E548844271
:1025500008D101210805FEF7BCFF00214FF48010CF
:10256000FEF7B7FF10BD2DE9F04786B004460D46D3
:102570000026002700BFB146B246A88900B100BFBF
:10258000A246268A4CF6FF700640E888064326825B
:10259000A6894EF6F3100640A88829890843698960
:1025A00008430643A681A68A4FF6FF400640A88945
:1025B0000643A68201A8FEF7F7FE5446C5488245A9
:1025C00001D1049F00E0039FA08910F4004F08D0C0
:1025D00007EBC70000EB071029684900B0FBF1F8D2
:1025E00007E007EBC70000EB071029688900B0FB84
:1025F000F1F86420B8FBF0F006013009642101FB1A
:102600001089A08910F4004F09D0322101EBC900D4
:102610006421B0FBF1F000F00700064308E032212E
:1026200001EB09106421B0FBF1F000F00F0006434C
:10263000268106B0BDE8F0874FF4165101600021F5
:102640008180C18001810C214181002181817047FD
:1026500010B50022028A4FF2FF031A400B884C8803
:1026600023438C882343CC8823431A43028210BD22
:102670000021018041808180C180704721B1828921
:1026800042F40052828104E082894DF6FF731A40C1
:1026900082817047F0B50024002500260023A1F5B3
:1026A00010676A3F00D100BF0346C1F3421401F036
:1026B0001F05012707FA05F6012C01D10C3304E0B0
:1026C000022C01D1103300E014331AB11F683743D4
:1026D0001F6002E01F68B7431F60F0BD10B51AB15C
:1026E000838A0B43838204E0838ACC43A4B22340D1
:1026F000838210BD028A4FF6F0731A400282028A6A
:102700000A430282704782894FF2FF731A40828126
:1027100082890A438281704721B1828942F0020294
:10272000828104E082894FF6FD731A4082817047EE
:10273000028A4FF6DF731A400282028A0A4302823B
:10274000704721B1028A42F48042028204E0028A88
:102750004BF6FF731A4002827047C1F30802828071
:10276000704701468888C0F308007047818941F0AE
:10277000010181817047028BD2B20283028B42EA4F
:10278000012202837047028B02F47F420283028B94
:102790000A430283704721B1828A42F0200282827A
:1027A00004E0828A4FF6DF731A408282704721B1BB
:1027B000828A42F01002828204E0828A4FF6EF732E
:1027C0001A408282704721B1828A42F008028282D6
:1027D00004E0828A4FF6F7731A408282704721B173
:1027E000828942F40042828103E08289C2F30E02B0
:1027F0008281704721B1828A42F40062828204E0C1
:10280000828A4FF2FF731A4082827047828A4FF6A3
:10281000FB731A408282828A0A438282704721B106
:10282000828A42F00202828204E0828A4FF6FD73BD
:102830001A408282704702460020B1F5007F00D125
:1028400000BF13880B4201D0012000E00020704738
:1028500001F40072B2F5007F00D100BFCA430280CC
:10286000704770B502460023002400250020A1F522
:1028700010666A3E00D100BFC1F3421501F01F048B
:10288000012606FA04F4012D02D19689344006E0AF
:10289000022D02D1168A344001E0968A34400B1290
:1028A000012606FA03F31688334014B10BB1012058
:1028B00000E0002070BD10B500220023A1F51064D7
:1028C0006A3C00D100BF0A1201249440A3B2DC4349
:1028D000048010BD00380140004400400048004022
:1028E000004C004000500040704700B587B0012107
:1028F0000846FEF7D4FD1720ADF8140040F2E7308B
:10290000ADF810000020ADF81600ADF812008DF8FB
:10291000180004A94FF08040FFF782F86846FFF7DF
:1029200011FB0020ADF80000ADF8060069464FF03D
:102930008040FFF7B2F801218807FFF71FFB012253
:1029400040F2E7319007FFF7C7FB01218807FFF747
:10295000AFFD012211469007FFF72BFB07B000BD2A
:1029600010B58CB0044601210803FEF7ACFB4FF410
:102970000050ADF82C0018208DF82F0003208DF8A2
:102980002E000BA9D548FEF7D3FA01210420FEF74B
:1029900086FD40F2E730ADF824001720ADF82000A6
:1029A0000020ADF82600ADF822008DF8280008A917
:1029B000CB48FFF735F80121C948FFF7D8FB602065
:1029C000ADF810000120ADF812000420ADF814009D
:1029D0000020ADF81800ADF81A00ADF8164001203F
:1029E000ADF812000420ADF81400ADF8164004A9AB
:1029F000BB48FFF794F80821B948FFF7F0FB4FF404
:102A00000060ADF800004010ADF802000020ADF805
:102A100004009020ADF806000020ADF808004FF447
:102A20000050ADF80A004000ADF80C006946AC4813
:102A3000FFF76FFA0121AA48FFF7A0FA0121A84881
:102A4000FFF7A8FA0CB010BD08B500214FF00060E8
:102A5000FDF7ACFD4FF4A060FDF770FD1C208DF874
:102A6000000002208DF801008DF8020001208DF891
:102A700003006846FDF767FD25208DF80000012062
:102A80008DF801008DF802008DF803006846FDF70F
:102A90005AFD27208DF8000000208DF801008DF8E8
:102AA000020001208DF803006846FDF74CFD31203F
:102AB0008DF8000001208DF801008DF802008DF8DE
:102AC00003006846FDF73FFD08BD10B501213C201D
:102AD000FEF7D8FC01210846FEF7D4FC10BD10B566
:102AE00086B0044601210420FEF7CCFC4FF40070B0
:102AF000ADF8040003208DF8060018208DF80700BB
:102B000001A97848FEF714FA4FF48060ADF804008C
:102B100004208DF8070001A97248FEF709FA012187
:102B20008803FEF7AFFC02940020ADF80C00ADF86E
:102B30000E00ADF81000ADF814000C20ADF8120036
:102B400002A96948FFF70FFD012240F225516648AE
:102B5000FFF7A0FD01216448FFF790FD06B010BD0E
:102B600010B586B0044601210820FEF78BFC4FF417
:102B70008060ADF8040003208DF8060018208DF861
:102B8000070001A95948FEF7D3F94FF40060ADF8EA
:102B9000040004208DF8070001A95448FEF7C8F985
:102BA00001218804FEF77BFC02940020ADF80C00A4
:102BB000ADF80E00ADF81000ADF814000C20ADF823
:102BC000120002A94A48FFF7CEFC012240F225512B
:102BD0004748FFF75FFD01214548FFF74FFD06B06D
:102BE00010BD444909784FF47A7201FB02F0B0F14C
:102BF000807F01D301211CE020F07F41491E4FF06E
:102C0000E022516100BF5117002905DA0F210901A7
:102C1000394A0B23D15404E00F210901374A5317D5
:102C2000D15400BF00214FF0E022916107211161D2
:102C3000002109B100BFFEE7704710B5FFF745FF5F
:102C4000FFF702FFFFF750FE0020FFF789FE4FF469
:102C50001650FFF744FF4FF41650FFF781FFFFF7C0
:102C6000C0FF10BD264A116800BF254A1268521ADB
:102C70008242FAD3704700B503464FF47A7103FBE2
:102C800001F0FFF7EFFF00BD10B51D480068401CC4
:102C90001B490860084600684FF4FA71B0FBF1F276
:102CA00001FB120058B901210E48FEF7DCF9C0F112
:102CB0000100C4B2224601210A48FEF7E5F9104896
:102CC00000684FF47A71B0FBF1F201FB120020B9F9
:102CD0000C480068401C0B49086010BD00140140FE
:102CE000000800400008014000380140000C01408D
:102CF000004800401400002018ED00E000E400E06F
:102D00002C0000203000002070B50446204609F059
:102D1000DFFB0546D34B02462146D34805F0A2FE11
:102D2000D24801880088401CD04A1080142905DD53
:102D3000CD4805F0A8FF0020CC49088070BD10B533
:102D4000002004F0F5FCCA49002005F0B7FC02227F
:102D5000C849C54805F0C7FC042804D10A22C54962
:102D6000C14805F0C0FCC048C16805F0F2FFC24987
:102D7000087010BD10B506F05CFC06F065FC06F0AE
:102D8000ABFC06F079FC08F009FB00BFBB4800680B
:102D90000528FBD106F0BFFC00BFFEE700B59DB0E3
:102DA00001F0D3FAB648C068B049891C0968884266
:102DB0007ED0B348C068AD49891C0860B0491AABE1
:102DC0001BAA086A1CA900F016FE1A980CF012FC47
:102DD000CDE90401CDE902011B9BA948009390F8BD
:102DE00024004E2801D1A7A000E0A8A00246A9A176
:102DF00006A81C9B09F01AF90022114606A803F048
:102E000073FE9F491AAB1BAA886A1CA900F0F3FD48
:102E10001A980CF0EFFBCDE90401CDE902011B9BF0
:102E20009748009390F82C00452801D19FA000E01E
:102E3000A0A0024697A106A81C9B09F0F7F8102253
:102E4000002106A803F050FE8D49886B0CF0D2FBE0
:102E5000CDE904018A4890F83C3000930B4697A1D5
:102E600006A8049A09F0E2F82022002106A803F03F
:102E70003BFE8349086B0CF0BDFB0B460246CDE9D7
:102E8000040192A106A809F0D1F83022002106A879
:102E900003F02AFE7A49486B0CF0ACFB0B46024665
:102EA000CDE904018EA106A809F0C0F8402200E097
:102EB00074E0002106A803F017FE7148C368009370
:102EC00083684068102803DA6D484068083002E0E3
:102ED0006B4840681038024685A106A809F0A6F89C
:102EE0005022002106A803F0FFFD654843690093C6
:102EF000836984A1C26906A809F098F860220021BC
:102F000006A803F0F1FD5E4890F85F3090F85E206F
:102F100081A106A809F08AF87022002106A803F012
:102F2000E3FD574890F83D0030B1012809D0022850
:102F30000FD006281AD114E07BA106A809F076F874
:102F400015E04F4890F83F207CA106A809F06EF8E4
:102F50000DE04B4890F83F207DA106A809F066F8E7
:102F600005E080A106A809F061F800E000BF00BFFD
:102F70008022002106A803F0B7FD3C48801D0268AE
:102F80000068401C394B9B1D7BA1186006A809F006
:102F90004DF89022002106A803F0A6FD1DB000BD4B
:102FA00010B50024FDF729FAFFF747FE00F06CFC8E
:102FB00000F081FC06F0EBFB00F09BFC03F068FDE9
:102FC0000020FFF7CDFC04F0CFFA002003F072FDE3
:102FD00002216E48FEF73AF830B9002211466CA083
:102FE00003F082FDFFF7C6FE00F098FCFFF7D6FE67
:102FF00040F6B830FFF736FE01F0A7F901F0A5F969
:1030000001F0A3F91E48436964A18269194809F0D7
:103010000DF8002006F0EAFB10B965A000F0FFF9FA
:10302000FFF78DFE1CE0FFF7B9FE02215748FEF7BF
:103030000DF808B900F056FC08215448FEF706F8D0
:1030400070B900F06BFCA02C06DA04F12800C4B2C1
:103050002046FFF785FC03E000242046FFF780FCB4
:10306000E1E70000C401002028060020B201002092
:10307000F80300204C080020BC010020D4030020ED
:103080005C080020B1B1CEB300000000C4CFCEB3C5
:103090000000000025733A2533642025326427257B
:1030A00030352E326622202000000000B6ABBEADC7
:1030B00000000000CEF7BEAD00000000BAA3B0CE05
:1030C0003A252E316625632020202000CBD9B6C8B2
:1030D0003A252E31666B6D2F6820202020000000DD
:1030E000BABDCFF23A252E3166B6C8202020200086
:1030F000CAB1BCE43A2532643A253032643A25300C
:1031000032642000C8D5C6DA3A3230253032642D18
:1031100025642D2564202000CEC0D0C73A25326416
:103120002F25326400000000475053D7B4CCAC3A8E
:10313000CEB4B6A8CEBB202020000000475053D705
:10314000B4CCAC3A256444205350532020000000F6
:10315000475053D7B4CCAC3A25644420444750532D
:1031600020000000475053D7B4CCAC3AB9C0CBE3F1
:10317000D6D02020200000005570646174652025A1
:1031800034642074696D65732100000000180140EB
:10319000475053202D2D3E205043000047505325CB
:1031A000303264253032642E7478740000000000E0
:1031B0000A53442043617264204F4B210A000000EF
:1031C000704700BFFEE700BFFEE700BFFEE700BF9D
:1031D000FEE770477047704710B5FFF755FD10BD0B
:1031E00010B50120FEF742FA38B10120FEF74FFA80
:1031F0000C480068401C0B49086010BD10B5012147
:103200008807FFF769F9FFF73FFD10BD10B503F020
:10321000BCF810BD10B508F077FA10BD10B506F077
:1032200009FF10BD3000002010B504462146FF48BC
:10323000FFF793FA00BF8021FC48FFF7FCFA002853
:10324000F9D010BD10B5002240F22551F748FFF724
:1032500021FA00BF2021F548FFF7EDFA0028F9D048
:10326000012240F22551F148FFF714FAEF48FFF729
:1032700078FAC0B210BD70B50446250904F00F06F7
:103280000A2D05DA05F13000C0B2FFF7CDFF04E0EA
:1032900005F13701C8B2FFF7C7FF0A2E05DA06F1BC
:1032A0003000C0B2FFF7C0FF04E006F13701C8B23A
:1032B000FFF7BAFF70BD70B50546DD480068B8B1CC
:1032C000B5B1DB4808300068D9490C31096888423B
:1032D0000EDAD7480830046805E0D5481430007885
:1032E000FFF7A2FF641CD2480C3000688442F4DB74
:1032F00070BD10B50446204609F0EAF8CC49083103
:103300000860091F096809B9012100E00021084689
:10331000FFF7D1FF03E014F8010BFFF785FF2078DA
:1033200058B1C34810300068C14910310968491EBE
:10333000BF4A103211600028EDD1204609F0C8F8CC
:10334000BB4908310860081F0068FFF7B4FF10BDD3
:10335000F0B58DB004460D4616461422B5A1684658
:1033600009F0F7F805AF00BFB4FBF6F006FB10401C
:103370001DF8000007F8010BB4FBF6F00400F3D1D0
:1033800015B12D2007F8010B002007F8010905A849
:1033900009F09EF8A64908310860091F096809B9B3
:1033A000012100E000210846FFF785FF03E017F840
:1033B0000109FFF739FF05A88742F8D29C48001D94
:1033C0000068FFF778FF0DB0F0BD2DE9F04104462D
:1033D0000D461646002C03DA16B10127644200E0C0
:1033E00000272A4639462046FFF7B2FFBDE8F081A4
:1033F00070B504460026256807E015F8011BA1F109
:10340000300006EB860100EB410608F0FBFD00688A
:103410002978405C2028F0D02560304670BD0FB47C
:10342000F8B507A80090C6E00698007825280BD0CC
:1034300006990878FFF7F8FE069800780A2802D166
:103440000D20FFF7F1FEB3E00025002400207849AD
:10345000091D0860091F086020201431087047F614
:10346000FF70091F086000BF0698401C0690067890
:1034700008F0C8FD0068805D20281AD135B106A883
:10348000FFF7B6FF6A49103108600EE0302E03D115
:10349000302067491431087006A8FFF7A9FF644976
:1034A0000C31086001200C3908600698401E069017
:1034B000DAE7304608F0AEFD64281DD008DC252888
:1034C0000DD02D280FD02E2812D063286DD165E0A5
:1034D0006C280FD073285BD0782866D132E0252085
:1034E000FFF7A2FE64E001205149091D08605DE07C
:1034F00001255BE0012459E0012C11D1442E07D1B4
:10350000009901C9002200910A21FFF75EFF4FE0F8
:10351000009901C9012200910A21FFF756FF47E0F7
:10352000442E07D1009901C9002200910A21FFF71A
:103530004CFF3DE0009901C9012200910A21FFF7EB
:1035400044FF35E0012C11D1582E07D1009901C953
:10355000002200911021FFF738FF29E0009901C9EE
:10356000012200911021FFF730FF21E0582E07D1F2
:10357000009901C9002200911021FFF726FF17E0F2
:10358000009901C9012200911021FFF71EFF0FE0F1
:10359000009901C90091FFF7ACFE09E0009904C948
:1035A000D0B20091FFF740FE02E001E000BF5BE710
:1035B0000698401C06900698007800287FF434AFE7
:1035C000F8BC5DF814FBFEB5044626460A250DE05E
:1035D0000A20B6FBF0F100FB11603030C0B20DF8EC
:1035E00005000A20B6FBF0F6681E45B2002DEFDAA2
:1035F00000208DF80B009DF80000302862D19DF866
:103600000100302859D19DF80200302850D19DF892
:103610000300302847D19DF8040030283FD19DF8A1
:103620000500302836D19DF806000DE00038014035
:10363000C801002030313233343536373839414211
:10364000434445460000000030281ED19DF8070085
:10365000302815D19DF8080030280DD19DF80900BB
:10366000302804D10DF10A00FFF7D9FE2DE00DF14D
:103670000900FFF7D4FE28E002A8FFF7D0FE24E0FF
:103680000DF10700FFF7CBFE1FE00DF10600FFF77D
:10369000C6FE1AE00DF10500FFF7C1FE15E001A816
:1036A000FFF7BDFE11E00DF10300FFF7B8FE0CE0DF
:1036B0000DF10200FFF7B3FE07E00DF10100FFF787
:1036C000AEFE02E06846FFF7AAFEFEBD70B500251B
:1036D000002600244FE0FFF7B5FD0546302D4ADBFC
:1036E000392D48DC2846FFF79FFD601CC4B2092C29
:1036F0003ED2DFE804F03D05080F161D242B3200F2
:10370000A5F1300636E0A5F1300006EB860100EBAE
:1037100041062FE0A5F1300006EB860100EB4106E3
:1037200028E0A5F1300006EB860100EB410621E020
:10373000A5F1300006EB860100EB41061AE0A5F189
:10374000300006EB860100EB410613E0A5F13000E6
:1037500006EB860100EB41060CE0A5F1300006EB1C
:10376000860100EB410600242020FFF75DFD01E00B
:10377000002400BF00BF0D2DADD1304670BD70B527
:10378000054600241DE000BF20212C48FFF753F818
:103790000028F9D02948FEF7E4FFC2B22046611C98
:1037A000CCB22A54601E295C25A0FFF738FE601EAB
:1037B000285C0D2805D1601EC4B200202855204683
:1037C00070BDE0E770B5054600241FE000BF202172
:1037D0001A48FFF730F80028F9D01848FEF7C1FF63
:1037E000C2B22046611CCCB22A54601E295C14A0CF
:1037F000FFF715FE601E285C0D2803D0601E285CB4
:10380000202803D1601EC4B2204670BDDEE7F0B5AB
:10381000044626460F469A4201D00020F0BD0025FE
:1038200008E0705D17F805C0604501D00020F5E79D
:10383000681CC5B29542F4DB0120EFE70038014077
:103840002563000070B504460D46E0B20C490880BF
:1038500000BF80210A48001FFEF7EDFF0028F8D0C6
:10386000204670BD10B50748FEF77BFFC4B2044880
:10387000048040F225510348FFF71DF810BD0000F9
:10388000044800400038014008B50320ADF80000AE
:1038900010208DF8030003208DF8020069460F48C0
:1038A000FDF746FB03200D4910310860012104207B
:1038B000FDF7E8FD08BD08B501214020FDF7E2FD58
:1038C0000F20ADF8000048208DF8030002208DF88D
:1038D000020069460248FDF72BFB08BD00080140C5
:1038E000001801400120FF4908610020FE490870CE
:1038F000704708B501211020FDF7C4FD0320ADF885
:10390000000010208DF8030003208DF802006946A6
:10391000F448FDF70DFBFFF7E5FF08BD10B5F248D1
:10392000007808B1002010BD0120EF490870FFF7B2
:10393000E0FF0220EB4948616420FFF793F9012082
:10394000E8494861E8480078EDE710B50120E7490B
:103950000870E44908614FF47A70FFF783F9022098
:10396000E04908614FF47A70FFF77CF90120DD49E6
:1039700048614FF41640FFF7B2F84FF41640FFF7D6
:10398000EFF810BDD84800787047D948007808B1E2
:10399000012000E00020C0B27047D54890F82C000C
:1039A000452802D1D248806A7047D148806A80F0A9
:1039B0000040F9E7CE4890F824004E2802D1CC48C8
:1039C000006A7047CA48006A80F00040F9E7C848BA
:1039D000806B7047C64890F83C007047C448006B45
:1039E0007047C348406B7047C14890F85E0070470D
:1039F000BF48006C70472DE9FF5F04460D46164630
:103A00001F4620460BF0AAFE286028680BF0DEFE59
:103A1000824621460BF09DFF8146B6490BF0F0FE31
:103A200080460BF09BFE306030680BF0CFFE0390B9
:103A300028680BF0CBFE834621460BF08AFF8246B6
:103A4000AC490BF0DDFE814603990BF08DFF8046FB
:103A5000A8490BF0D5FE386038680BF0CBFDCDE9F6
:103A60000201A5A00CC802980BF01EFCCDE90001D4
:103A7000A3A00CC800980BF0B7FA08D20020386059
:103A8000361D30683C2802D12D1D00203060BDE875
:103A9000FF9F30B503461C461D460BB1187810B980
:103AA0000020106030BD00E0641C207840B1207818
:103AB000884205D020780D2802D020780A28F3D13A
:103AC000207820B1601C10600020207001E00020F0
:103AD00010602846E6E730B502461346002402B1DE
:103AE00009B9002030BD02E0187844405B1C18780A
:103AF0000028F9D1844800EB241000780D78A84202
:103B000008D104F00F00804D285C4D78A84201D107
:103B10000120E7E70020E5E72DE9F04196B00446F3
:103B2000601C119000272078242803D0002016B0B4
:103B3000BDE8F08111AA2A211198FFF7AAFF0646D5
:103B400030461199FFF7C7FF012801D00020EEE7AA
:103B5000119611AA2C211198FFF79BFF06466BA125
:103B6000304608F053FD00287ED111AA2C2111986F
:103B7000FFF78FFF0646AEB114223146654808F0C4
:103B800061FC78B15A4B10331A1FCDE90023131F83
:103B9000083A61A1304608F089FB142231465D489D
:103BA00008F009FD11AA2C211198FFF772FF0646B3
:103BB0004EB13078412803D101204D49087002E010
:103BC00000204B49087011AA2C211198FFF761FFC2
:103BD0000646002E3DD012AB009313AB14AA52A19F
:103BE000304608F063FB12980BF0F0FD80460BF0B6
:103BF00001FDCDE90E014FA00CC80E980AF0A6FFFA
:103C0000CDE90C0113980BF0E1FD80460BF0F2FCBE
:103C1000CDE90A0138A00CC80A980AF097FFCDE94F
:103C2000080114980BF0D2FD80460BF0E3FCCDE9BF
:103C30000601DDE908230AF061FECDE90401DDE9B2
:103C40000C230AF05BFECDE902010AF00DFE2849C3
:103C5000086211AA2C211198FFF71BFF064666B1D6
:103C60003078532805D100E0CCE0214981F82400C8
:103C700003E04E201E4981F8240011AA2C2111983E
:103C8000FFF707FF0646002E71D00EAB00930FAB77
:103C900010AA2AA1304608F009FB0E980BF096FDF9
:103CA00080460BF0A7FCCDE90C0122A00CC80C98B3
:103CB0000AF04CFFCDE90A010F980BF087FD804612
:103CC0000BF098FCCDE908010BA00CC808980AF08D
:103CD0003DFFCDE9060110980BF078FD80460BF012
:103CE00089FC31E000100140E3010020DD010020EB
:103CF0005C080020000070420000000000004E4000
:103D00007B14AE47E17A843F16FC00084750524DC1
:103D10004300000002110020253264253264253260
:103D2000642E2534640000002532642532642E257B
:103D30003464000000000000804F224125336425D8
:103D400032642E2534640000CDE90401DDE9062348
:103D50000AF0D4FDCDE90201DDE90A230AF0CEFD27
:103D6000CDE900010AF080FDFD49886200BF11AA7B
:103D70002C211198FFF78DFE064656B13078572852
:103D800003D1F74981F82C0003E04520F44981F87C
:103D90002C0011AA2C211198FFF77BFE06467EB15C
:103DA00030460AF0A7FCCDE90E01EEA00CC80E9833
:103DB0000BF052F9CDE90C010AF056FDE849086311
:103DC00011AA2C211198FFF764FE064646B1304631
:103DD0000AF090FCCDE90E010AF046FDE049486387
:103DE00011AA2C211198FFF754FE0646002E08D088
:103DF000DB4B1C3300931B1F1A1FDCA1304608F05D
:103E000055FA31E2DCA1304608F000FC002875D1FB
:103E100011AA2C211198FFF73CFE0646B6B11422D8
:103E20003146D74808F00EFB80B1CD4B10331A1F36
:103E3000CDE90023131F083AAFF22411304608F0F1
:103E400035FA14223146CE4808F0B5FB11AA2C21D0
:103E50001198FFF71EFE0646002E41D00EAB0093D0
:103E60000FAB10AAAFF24011304608F01FFA0E98BF
:103E70000BF0ACFC80460BF0BDFBCDE90C01AFF2C2
:103E80004C100CC80C980AF061FECDE90A010F989D
:103E90000BF09CFC80460BF0ADFBCDE90801AFF2C6
:103EA000A8100CC808980AF051FECDE90601109838
:103EB0000BF08CFC80460BF09DFBCDE90401DDE9A5
:103EC00006230AF01BFDCDE90201DDE90A230AF011
:103ED00015FDCDE900010AF0C7FCA149086200BF49
:103EE00011AA2C211198FFF7D4FD06465EB1307857
:103EF000532804D19A4981F8240004E0A6E04E201A
:103F0000974981F8240011AA2C211198FFF7C1FDCF
:103F10000646002E41D00EAB00930FAB10AAAFF2B5
:103F2000E411304608F0C2F90E980BF04FFC8046C1
:103F30000BF060FBCDE90C01AFF208200CC80C9827
:103F40000AF004FECDE90A010F980BF03FFC804611
:103F50000BF050FBCDE90801AFF264200CC80898C3
:103F60000AF0F4FDCDE9060110980BF02FFC804615
:103F70000BF040FBCDE90401DDE906230AF0BEFCAD
:103F8000CDE90201DDE90A230AF0B8FCCDE9000120
:103F90000AF06AFC7249886200BF11AA2C211198AC
:103FA000FFF777FD064656B13078572803D16C49A4
:103FB00081F82C0003E04520694981F82C0011AA02
:103FC0002C211198FFF765FD06462EB1304608F00A
:103FD0002CFA634981F83D0011AA2C211198FFF7B2
:103FE00058FD06462EB1304608F01FFA5C4981F8AC
:103FF0005E0011AA2C211198FFF74BFD064646B131
:1040000030460AF077FBCDE90E010AF02DFC544949
:10401000486411AA2C211198FFF73BFD064646B1D2
:1040200030460AF067FBCDE90E010AF01DFC4C4951
:10403000886311AA2C211198FFF72BFD0646002E4C
:1040400003D03078464981F83C000DE14DA130465F
:1040500008F0DCFA00287ED111AA2C211198FFF774
:1040600018FD064626B1304608F0DFF947490870CA
:1040700011AA2C211198FFF70CFD06462EB13046EF
:1040800008F0D3F94149491C08704048401C0078A9
:10409000012803D100203D49891C087011AA2C2158
:1040A0001198FFF7F6FC06462EB1304608F0BDF930
:1040B0002B4981F85F0000256CE011AA2C21119892
:1040C000FFF7E7FC064656B1304608F0AEF9244942
:1040D00060312E4A921C127801EB0211086011AA7D
:1040E0002C211198FFF7D5FC064656B1304608F052
:1040F0009CF91B496031254A921C127801EB021190
:10410000486011AA2C211198FFF7C3FC064656B14E
:10411000304608F08AF9124960311C4A921C127824
:1041200001EB0211886011AA2C211198FFF7B1FC54
:10413000064656B1304608F078F909496031134A0D
:10414000921C127801EB0211C8601048801C0078A4
:10415000401C0E4900E021E0891C0870C6B91BE034
:104160005C0800206F1283C0CAA1FD3F2532642580
:104170003264253264000000475047474100000088
:10418000021100204750475356000000DE01002076
:10419000681CC5B2042D90DB00BF65E086A13046E7
:1041A00008F034FA00285FD111AA2C211198FFF7EA
:1041B00070FC06462EB1304608F037F9804981F888
:1041C0003E0011AA2C211198FFF763FC06462EB180
:1041D000304608F02AF97A4981F83F00002511E0BD
:1041E00011AA2C211198FFF754FC064646B130461F
:1041F00008F01BF9C1B2724852304155781CC7B261
:10420000681CC5B20C2DEBDB11AA2C211198FFF70D
:1042100040FC064646B130460AF06CFACDE90E0184
:104220000AF022FB6649086411AA2C211198FFF7B5
:1042300030FC064646B130460AF05CFACDE90E0184
:104240000AF012FB5E49486411AA2C211198FFF76D
:1042500020FC064646B130460AF04CFACDE90E0184
:104260000AF002FB564988645549086A0BF0C2F906
:10427000CDE90E0153A00CC80E980AF0D1FF02D26E
:1042800000204F4908624E49886A0BF0B3F9CDE926
:104290000E014EA00CC80E980AF0C2FF02D20020F8
:1042A00047498862012042E410B540F2255149484F
:1042B000FEF7D7FA002842D04648FEF752FAC4B2B9
:1042C00045480480242C25D10121444800789722B8
:1042D0005043434A115441480078401C3F490870FC
:1042E00008460078092801DD0020087000213B48BD
:1042F0000078972250433A4A1154242137480078D5
:1043000097225043364A1044417001203349491CDA
:10431000087014E03148401C007895280FDA2F48C7
:104320000078972148432E490144491C2B48401CE2
:1043300002780078401C294B5B1C18708C5440F2AA
:1043400025512448FEF7B7FA10BD70B500250024AA
:1043500029E0972060432249085C012821D1972059
:10436000604308444078242806D1972161431C4AC1
:104370001144481CFEF7C8FC97216143184A1144B8
:10438000481CFFF7C9FB2844C5B2002197206043B1
:10439000134A1154972161431144481C962108F097
:1043A000B6F8601CC4B20A2CD3DB0DB1012000E0CA
:1043B0000020C0B270BD00004750475341000000CC
:1043C0005C08002000000000008056400000000053
:1043D000008066400048004004380140E1010020B0
:1043E0001C0B002070B52A25FD48446B01E0FC48F9
:1043F000446B14F0450FFAD014F0040F05D00325D8
:104400000420FDF71EFA284670BD14F0010F05D0F8
:1044100001250120FDF715FA2846F5E740F2FF5087
:10442000FDF70FFA2846EFE72DE9F04104460D4667
:104430002A26EB48D0F8348002E0E948D0F83480EE
:1044400018F0450FF9D018F0040F06D00326042009
:10445000FDF7F7F93046BDE8F08118F0010F05D0FF
:1044600001260120FDF7EDF93046F4E7FDF786F966
:10447000A04202D010263046EDE740F2FF50FDF793
:10448000E0F90020FDF77EF9074617F4604F03D1ED
:10449000380C28803046DEE717F4005F01D0132087
:1044A000D9E717F4804F01D01020D4E717F4004F5C
:1044B00001D00F20CFE73046CDE738B52A240120C0
:1044C0000090FDF72CF910B92524204638BDC548C9
:1044D0000068042829D00020C349086002204860F1
:1044E000C02088600020C8604FF4806008610846E2
:1044F000FDF72AF9FFF776FF04462A2C01D0204663
:10450000E4E70020FDF73EF9B84908600420FDF714
:1045100039F9B64948600820FDF734F9B349886095
:104520000C20FDF72FF9B149C860AE48006858B1BA
:10453000AC480068012807D0AA480068062803D0C4
:10454000A8480068022817D10020A7490860032066
:104550004860402088600020C8604FF48060086197
:104560000846FDF7F1F869460320FFF75DFF0446B2
:104570002A2C01D02046A9E79A480068042834D0A4
:10458000BDF800009749091D0860BDF8000000044F
:104590009549086009204860C02088600020C860F4
:1045A0004FF4806008610846FDF7CEF8FFF71AFF68
:1045B00004462A2C01D0204688E70020FDF7E2F8C7
:1045C0008A49103908600420FDF7DCF88749103962
:1045D00048600820FDF7D6F88449103988600C201F
:1045E000FDF7D0F881491039C8602A2420466DE7CC
:1045F00070B52A257A48446B01E07948446B14F081
:10460000450FFAD014F0040F05D003250420FDF760
:1046100018F9284670BD40F2FF50FDF712F9284600
:10462000F8E72DE9F04104462A256D48476B01E083
:104630006B48476B17F0450FFAD017F0040F06D000
:1046400003250420FDF7FDF82846BDE8F08117F0AA
:10465000010F05D001250120FDF7F3F82846F4E706
:10466000FDF78CF8A04202D010252846EDE740F275
:10467000FF50FDF7E6F80020FDF784F806465C4998
:104680000E4201D12846E0E716F0004F01D01C2071
:10469000DBE716F0804F01D00920D6E716F0005F67
:1046A00001D00A20D1E716F0805F01D00B20CCE7C3
:1046B00016F0006F01D00C20C7E716F0806F01D014
:1046C0000D20C2E716F0807F01D00E20BDE716F462
:1046D000000F01D00F20B8E716F4800F01D0102092
:1046E000B3E716F4001F01D01120AEE716F4801FC7
:1046F00001D01220A9E716F4002F01D01320A4E75F
:1047000016F4802F01D014209FE716F4003F01D04B
:1047100015209AE716F4803F01D0162095E716F48D
:10472000004F01D0172090E716F4804F01D01820D9
:104730008BE716F4005F01D0192086E716F0080F0A
:1047400001D01A2081E728467FE770B52A2442F27B
:1047500010752348466B02E06D1E2148466B16F02B
:10476000450F01D1002DF7D115B116F0040F05D07A
:1047700003240420FDF765F8204670BD16F0400FB5
:1047800005D02A244020FDF75CF82046F5E72046B6
:10479000F3E770B52A2442F2107500E06D1E25B1D2
:1047A0008020FDF744F80028F8D015B903242046EE
:1047B00070BD40F2FF50FDF744F82046F8E72DE9C0
:1047C000F0412A240025002600274FF00008094860
:1047D0000078182812D13B200749087511E0000025
:1047E00000800140E4010020501100202811002029
:1047F00008E0FFFD1400002038110020B220FF491E
:1048000008750020FD49086048608860C86008613C
:104810000846FCF759FF0320FCF776FF0120FCF760
:1048200070FF0020F649086048608860C8604FF457
:10483000806008610846FCF787FFFFF7AAFF04467F
:104840002A2C02D02046BDE8F0814FF4D570EC4907
:10485000086008204860402088600020C8604FF44D
:10486000806008610846FCF76FFFFFF76EFF0446A3
:104870002A2C05D10120E34908604FF0804812E05E
:104880000020DF4908603720486040208860002011
:10489000C8604FF4806008610846FCF755FF372078
:1048A000FFF7BFFE04460020D54908603720486066
:1048B000402088600020C8604FF48060086108468E
:1048C000FCF742FF3720FFF7ACFE04462A2C4CD100
:1048D00038E00020CA4908603720486040208860DE
:1048E0000020C8604FF4806008610846FCF72CFF88
:1048F0003720FFF796FE04462A2C01D02046A2E777
:10490000C14848EA0000BE490860292048604020AC
:1049100088600020C8604FF4806008610846FCF79A
:1049200013FFFFF765FE04462A2C01D020468AE7D4
:104930000020FCF727FF0546012080EAD57080F0B3
:104940000107761C1FB94FF6FF708642C1D34FF6A0
:10495000FF70864202D31B24204674E705F0804096
:10496000050002D00220A749086020466BE708B581
:1049700001213020FCF786FD4FF4F850ADF800001F
:1049800003208DF8020018208DF8030069469F4827
:10499000FCF7CEFA0420ADF8000069469C48FCF70D
:1049A000C7FA08BD38B52A2401210820FCF76AFDA2
:1049B0002020ADF8000010208DF8030003208DF8B2
:1049C000020069469348FCF7B3FA20219148FCF7AE
:1049D00059FBFFF7CCFF01218802FCF746FD0121BE
:1049E0000220FCF742FDFCF761FEFFF7E8FE0446FB
:1049F0002A2C01D0204638BDFFF75FFD04462A2C43
:104A000001D02046F7E701207C49087500200860A6
:104A100048608860C86008610846FCF755FE20467B
:104A2000E9E710B52A240020FCF76EFE204610BDF1
:104A300030B501462A200022724B1B6881F84E30A7
:104A4000704B1B1D1B68A1F84C30734B1B681A0E72
:104A500093090B70C2F383034B7002F003038B7056
:104A60006D4B1B68C3F30742CA706B4B1B68C3F3E3
:104A700007220A71684B1B68DAB24A71664B5B68A1
:104A80001A0E1301CB80644B5B68C3F30742CB88DB
:104A900043EA1213CB8002F00F030B725E4B5B688C
:104AA000C3F30722D3094B72C2F380138B72C2F394
:104AB0004013CB72C2F300130B7300234B73514BA3
:104AC0001B681BB14F4B1B68012B3DD193071B0D7E
:104AD0000B61514B5B68DAB20B6943EA82030B61ED
:104AE0004D4B9B681A0E0B6943EA92130B61C2F39C
:104AF000C2030B7502F007034B75474B9B68C3F36A
:104B0000074253098B75C2F38203CB7593075B0F82
:104B10000B76414B9B68C3F307220B7E43EAD2130B
:104B20000B760B695B1C4B640C7E4D6CA41C012343
:104B3000A3405D434D640C7A0123A3408B64D1E90B
:104B4000113463434B6422E02E4B1B68022B1ED1B1
:104B5000314B5B68DAB293069B0A0B612E4B9B6864
:104B60001A0E0B6943EA02230B612B4B9B68C3F3BC
:104B700007420B6913430B61274B9B68C3F3072262
:104B80000B695B1CDB044B644FF400738B64C2F352
:104B9000801301F8193F93065B0E4B701E4B9B6808
:104BA000DAB24B7843EAD2134B7002F07F038B707A
:104BB000194BDB681A0ED309CB70C2F341130B718A
:104BC000C2F382034B7193071B0F8B71124BDB688F
:104BD000C3F307428B7943EA92138B71C2F34013FC
:104BE000CB7100230B7202F001034B720A4BDB689E
:104BF000C3F30722D3098B7210E0000038110020A4
:104C000050110020E401002000001080001001403D
:104C100000140140000C014018110020C2F3801361
:104C2000CB72C2F340130B73C2F300134B73C2F386
:104C300081038B7302F00303CB73FB4BDB68DAB2A7
:104C400053080B7401234B74F74B10331B681A0E77
:104C5000CA741939F44B10331B68C3F307421402AA
:104C6000CC85F14B10331B68C3F30722CC8D144362
:104C7000CC85ED4B10331B68DAB214060C63EA4B9B
:104C800010335B681A0E0B6B43EA02440C63E64B6D
:104C900010335B68C3F307420B6B43EA02240C63D7
:104CA000E14B10335B68C3F307220C6B14430C63B6
:104CB000DD4B10335B68DAB234235A54DA4B1033CD
:104CC0009B681A0E35235A54D74B10339B68C3F395
:104CD000074214068C63D44B10339B68C3F307223E
:104CE0008B6B43EA02448C63CF4B10339B68DAB280
:104CF0008B6B43EA02248C63CB4B1033DB681A0EB8
:104D00008C6B14438C63C84B1033DB68C3F30742CE
:104D10003C235C5C44EA12145C5413071C0DCC87E2
:104D2000C14B1033DB68C3F30722CC8F1443CC870D
:104D3000BD4B1033DB68DAB2540840235C540124C5
:104D400041235C5430BD2DE9FC4107460C4600254B
:104D50002A266846002213460CC00820B349086082
:104D600010204860402088600020C8604FF48060B8
:104D700008610846FCF7E8FC1020FFF752FC0646E5
:104D80002A2E02D03046BDE8FC81A9480068000404
:104D9000A649086037204860402088600020C8602D
:104DA0004FF4806008610846FCF7CEFC3720FFF71F
:104DB00038FC06462A2E01D03046E4E79D489E493D
:104DC000086008204860302088600220C860002009
:104DD0000861012048610846FCF7DBFC002093498C
:104DE000086033204860402088600020C8604FF48D
:104DF000806008610846FCF7A7FC3320FFF711FC30
:104E000006462A2E01D03046BDE709E04FF40010D7
:104E1000FCF70DFD20B1FCF7DEFC4DF825006D1C04
:104E20008648406B40F22A610842EFD00820FCF728
:104E3000FEFC28B10820FCF704FD04263046A2E75A
:104E40000220FCF7F4FC28B10220FCF7FAFC022651
:104E5000304698E72020FCF7EAFC28B12020FCF738
:104E6000F0FC062630468EE74FF40070FCF7DFFCBE
:104E700030B14FF40070FCF7E4FC0726304682E7BF
:104E800040F2FF50FCF7DDFC00980006009901F4A9
:104E90007F4140EA0120009901F47F0140EA11209E
:104EA000009940EA1160606001980006019901F4E0
:104EB0007F4140EA0120019901F47F0140EA11207D
:104EC000019940EA1160206030465CE77CB50446F9
:104ED0002A25684600210A4606C00020FCF752FC3D
:104EE00010F0007F02D00E2528467CBD6946504850
:104EF000006880B2FFF727FF05462A2D01D028461B
:104F0000F3E7012C37D1019810F4802F30D04848B6
:104F100000680004454908603720486040208860E8
:104F20000020C860A00208610846FCF70DFC37208D
:104F3000FFF777FB05462A2D01D02846D5E702204A
:104F40003A49086006204860402088600020C86018
:104F50004FF4806008610846FCF7F6FB0620FFF777
:104F600060FB05462A2D01D02846BEE72846BCE74F
:104F700025252846B9E7019810F4803F31D02C4808
:104F80000068000429490860372048604020886094
:104F90000020C8604FF4806008610846FCF7D4FB2D
:104FA0003720FFF73EFB05462A2D01D028469CE717
:104FB00000201E49086006204860402088600020CC
:104FC000C8604FF4806008610846FCF7BDFB06200E
:104FD000FFF727FB05462A2D01D0284685E72846FE
:104FE00083E72525284680E770B504462A25104822
:104FF000001F0068032802D12725284670BD0C48F1
:10500000001F006848B10A48001F0068012804D04A
:105010000748001F006802283DD1B4F5805F0FD11A
:1050200027252846EAE7000018110020501100202B
:10503000E8010020FFFF0F00641100200080014004
:10504000B4F5006F15D10120FFF740FF05462A2D6A
:1050500021D10120F9490875002008604860886066
:105060004FF40060C860002008610846FCF72CFB84
:1050700011E00020FFF72AFF05462A2D0BD1012061
:10508000EE4908750020086048608860C8600861C3
:105090000846FCF719FB2846B0E701462A2019B15B
:1050A000012901D0022902D1E54A116000E0262041
:1050B000704770B504462A25E24804600720E1499C
:1050C0004860402088600020C8604FF4806008611C
:1050D0000846FCF739FB0720FFF7A3FA05462846E8
:1050E00070BD30B58BB004460D46D748FBF793FB37
:1050F0000021D648FBF764FBD548009001940020BE
:105100000290A80803900020049080200590800061
:10511000069080000790002008904FF400500990FE
:1051200000200A906946C948FBF71FFB0121C748C8
:10513000FBF746FB0BB030BD0146002002E04910F2
:10514000421CD0B20129FAD170472DE9F04704463C
:105150000D4616462A274FF00009A8464FF0000AD0
:105160001DB926273846BDE8F0872A20B9490870BE
:105170000020B9490860B249091D0860B748B8491C
:105180000860002048608860C8600861486108467F
:10519000FCF7FFFA0020FCF7D4FA0020FCF7F2FA43
:1051A00010F0007F02D00E273846DCE7A44808380C
:1051B0000068022801D10602640A002E20DDB6F53F
:1051C000006F1DDC701E30421AD13046FFF7B4FF6D
:1051D00082469C48066010209A49486040208860BA
:1051E0000020C8604FF4806008610846FCF7ACFA04
:1051F0001020FFF716FA07462A2F04D03846B2E7E8
:1052000026273846AFE79548954908600846466026
:105210004FEA0A1088600220C8600020086101205F
:1052200048610846FCF7B5FA8548001D0660002075
:105230008349083108608B4805608248046011206A
:1052400080494860402088600020C8604FF480603A
:1052500008610846FCF778FA1120FFF7E2F90746E3
:105260002A2F01D038467EE775480068022856D1BB
:1052700012E04FF40040FCF7DAFA68B14FF0000991
:1052800005E0FCF7A8FA48F8290009F10109B9F18D
:10529000080FF6D308F120086D488038406B40F2C3
:1052A0002A610842E5D00820FCF7C1FA28B108209D
:1052B000FCF7C7FA0427384655E70220FCF7B7FA8F
:1052C00028B10220FCF7BDFA022738464BE7202020
:1052D000FCF7ADFA28B12020FCF7B3FA06273846D0
:1052E00041E74FF40070FCF7A2FA30B14FF40070C0
:1052F000FCF7A7FA0727384635E705E0FCF76BFA15
:10530000C8F8000008F104084FF40010FCF78FFA09
:105310000028F3D140F2FF50FCF793FA2CE0484804
:105320000068012813D1012148F22A30FCF7FCF96A
:1053300000BF4948006818B9464800782A28F8D0C4
:10534000444800782A2817D0424800780BE73C48A8
:10535000006888B9012140F22A30FCF7E5F9012004
:10536000FCF7EFF931462846FFF7BBFE00BF3E4889
:10537000FBF73EFA0028FAD03846F4E62DE9F05F54
:1053800004460D4616461F464FF02A084FF0000906
:10539000AA464FF0000B25B94FF026084046BDE85D
:1053A000F09F2A202B49087000202B4908602449CF
:1053B000091D086029482A49086000204860886063
:1053C000C860086148610846FCF7E3F90020FCF773
:1053D000B8F90020FCF7D6F910F0007F03D04FF0A9
:1053E0000E084046DBE7164808380068022801D15D
:1053F0000602640A002E39DDB6F5006F36DC701E39
:10540000304233D13046FFF797FE83460D480660A1
:1054100010200C494860402088600020C8604FF48C
:10542000806008610846FCF78FF91020FFF7F9F853
:105430008046B8F12A0F1DD04046B0E73811002051
:10544000EC0100205011002000F000104404024044
:1054500080800140F8010020FC010020FFFF0F00C8
:105460006411002008020020002000104FF02608E0
:10547000404694E7012F70D907FB06F0B0F1007F9A
:1054800003D34FF02608404689E707FB06F0FF49A3
:1054900008600120091D0860FD480560FD48FE49BF
:1054A000086007FB06F048604FEA0B108860022096
:1054B000C86000200861012048610846FCF769F9CE
:1054C000F64804601220F5494860402088600020BA
:1054D000C8604FF4806008610846FCF735F9122077
:1054E000FFF79FF88046B8F12A0F01D0404656E7F3
:1054F000E648001F006802287ED112E04FF4004009
:10550000FCF795F968B14FF0000905E0FCF763F985
:105510004AF8290009F10109B9F1080FF6D30AF197
:10552000200ADF48406B40F22A310842E6D00820CA
:10553000FCF77DF930B10820FCF783F94FF004083F
:1055400040462CE70220FCF772F938B10220FCF744
:1055500078F94FF00208404621E795E02020FCF75B
:1055600066F930B12020FCF76CF94FF00608404690
:1055700015E74FF40070FCF75AF938B14FF400709A
:10558000FCF75FF94FF00708404608E705E0FCF735
:1055900022F9CAF800000AF1040A4FF40010FCF7DF
:1055A00046F90028F3D14FF48070FCF740F938B386
:1055B000B6480C38006848B1B4480C380068022876
:1055C00004D0B2480C380068012819D10020B34932
:1055D00008600C204860402088600020C8604FF4BC
:1055E000806008610846FCF7AFF80C20FFF719F857
:1055F0008046B8F12A0F00E007E001D04046CEE631
:1056000040F2FF50FCF71DF93EE0A048001F006883
:10561000012813D1012148F22A30FCF785F800BF98
:10562000A048006818B9A04800782A28F8D09E48F9
:1056300000782A2828D09C480078B0E69348001FBC
:10564000006808BB012140F22A30FCF76DF8012008
:10565000FCF777F807FB06F12846FFF742FD00BF8D
:105660009248FBF7C5F80028FAD000BF8D480068C3
:1056700018B98D4800782A28F8D08B4800782A2855
:1056800002D0894800788AE6404688E62DE9F04154
:1056900004462A25002600277C48083800680004B4
:1056A0007E4908600D204860402088600020C86066
:1056B0004FF4806008610846FCF746F87848476B6D
:1056C00001E07748476B17F0450FFAD017F0040F49
:1056D00006D003250420FCF7B4F82846BDE8F08185
:1056E00017F0010F05D001250120FCF7AAF8284684
:1056F000F4E7FCF743F807460D2F02D010252846A3
:10570000ECE740F2FF50FCF79CF80020FCF73AF879
:105710000646C6F3432020706548064201D128465C
:10572000DCE716F0004F01D01C20D7E716F0804FC1
:1057300001D00920D2E716F0005F01D00A20CDE7A2
:1057400016F0805F01D00B20C8E716F0006F01D083
:105750000C20C3E716F0806F01D00D20BEE716F0D5
:10576000807F01D00E20B9E716F4000F01D00F2082
:10577000B4E716F4800F01D01020AFE716F4001F35
:1057800001D01120AAE716F4801F01D01220A5E74E
:1057900016F4002F01D01320A0E716F4802F01D0BB
:1057A00014209BE716F4003F01D0152096E716F46D
:1057B000803F01D0162091E716F4004F01D017204A
:1057C0008CE716F4804F01D0182087E716F4005FAD
:1057D00001D0192082E716F0080F01D01A207DE7CA
:1057E00028467BE730B58BB004460D463148FBF7C1
:1057F00012F800213048FAF7E3FF29488030009082
:10580000019410200290A8080390002004908020AA
:1058100005908000069080000790002008904FF4CB
:105820000050099000200A9069462348FAF79DFF2E
:1058300001212148FAF7C4FF0BB030BD2DE9FF5F0D
:1058400004460D4616462A274FF000080020039014
:1058500081468246029083460190009525B926270D
:10586000384604B0BDE8F09F2A200F490870002098
:105870000C4908600549086006480749086000208F
:1058800048608860C8600861486117E0F001002046
:1058900008020020FFFF0F006411002050110020BB
:1058A00000800140FC010020F801002000200010D1
:1058B00008E0FFFD00F00010440402400846FBF73A
:1058C00068FF0020FBF73DFF0020FBF75BFF10F0B7
:1058D000007F02D00E273846C3E7FF480068022841
:1058E00001D10602640A002E20DDB6F5006F1DDC32
:1058F000701E30421AD13046FFF71EFC8046F74832
:1059000006601020F5494860402088600020C8608B
:105910004FF4806008610846FBF716FF1020FEF781
:1059200080FE07462A2F04D038469AE726273846B5
:1059300097E7E948001D00680004E84908600D2069
:105940004860402088600020C8604FF48060086193
:105950000846FBF7F9FE0D20FEF763FE07462A2FE7
:1059600001D038467DE70020FBF70CFF0290DFF8FE
:1059700070931FE0A9F10109D748001D00680004D9
:10598000D64908600D204860402088600020C8602B
:105990004FF4806008610846FBF7D6FE0D20FEF745
:1059A00040FE07462A2F01D038465AE70020FBF771
:1059B000E9FE0290029810F4807F02D1B9F1000F45
:1059C000D8D1B9F1000F01D129204AE7C3480460BA
:1059D0001820C2494860402088600020C8604FF409
:1059E000806008610846FBF7AFFE1820FEF719FE3D
:1059F00007462A2F01D0384633E7B7480C300660F7
:105A00000020B54910310860B6480560B448B64971
:105A10000860084646604FEA081088600020C860A9
:105A20000861012048610846FBF7B3FEAA48083028
:105A3000006802287AD147E04FF48040FBF7F7FE78
:105A4000002841D0A4480C300068A0EB0A002028B0
:105A500028D2A1480C300068A0EB0A0010F0030F18
:105A600006D19D480C300068A0EB0A00800806E0D3
:105A700099480C300068A0EB0A008008401C019097
:105A80004FF0000B0AE000990868FBF7A8FE0BF145
:105A9000010B0098001D00900AF1040A019883454B
:105AA000F1D311E04FF0000B06E0009951F82B0004
:105AB000FBF795FE0BF1010BBBF1080FF5D3009836
:105AC000203000900AF1200A8848406B40F21A61A9
:105AD0000842B1D00820FBF7AAFE28B10820FBF746
