:020000042000DA
:10020000D8A80020E5040020B1280020B328002051
:10021000B5280020B7280020B928002000000000E1
:10022000000000000000000000000000BB280020CB
:10023000BD28002000000000BF280020C1280020A9
:10024000FF040020FF040020FF040020C528002038
:10025000FF040020FF040020FF040020FF04002012
:10026000FF040020FF040020FF040020FF04002002
:10027000FF040020FF040020FF040020FF040020F2
:10028000FF040020FF040020FF040020FF040020E2
:10029000FF040020FF040020FF040020FF040020D2
:1002A000FF040020FF040020FF040020FF040020C2
:1002B000E1280020FF040020FF040020FF040020AC
:1002C000FF040020FF040020FF040020FF040020A2
:1002D000FF04002015290020FF04002033290020FE
:1002E000FF040020FF040020FF04002000F002F8BB
:1002F00000F058F80AA090E8000C82448344AAF168
:100300000107DA4501D100F04DF8AFF2090EBAE865
:100310000F0013F0010F18BFFB1A43F00103184739
:10032000E477000004780000103A24BF78C878C150
:10033000FAD8520724BF30C830C144BF04680C60EB
:10034000704700000023002400250026103A28BF33
:1003500078C1FBD8520728BF30C148BF0B60704737
:10036000662906F06A84642903F00287632904F091
:10037000F883732904F0FD83002070471FB5AFF3A5
:10038000008004F045F904000020002105F050FB36
:10039000401C60600020002105F060FBE0601FBD94
:1003A00010B510BD04F03FFF1146FFF7E7FF02F064
:1003B000DFF804F05DFFFFF7F3FF04F05FFF0000DC
:1003C0004148016841F00101016041683F4A114024
:1003D000416001683E4A11400160016821F48021BA
:1003E0000160416821F4FE0141604FF41F0181600A
:1003F00000F02AB810B5344A5068364B10F00C01A2
:10040000354803D0042901D0082901D0036011E048
:1004100051685368022401F4701104EB914113F404
:10042000803F02D053689B0301D52C4B00E0294B41
:100430005943016052682849C2F30312091D895CBF
:100440000268CA40026010BD1F4900200A6842F4D9
:1004500080320A604FF4A0630A68401C12F4003F27
:1004600001D19842F8D1086880032CD51C48026855
:1004700042F010020260026822F003020260026889
:100480000260486848604868486048684860486852
:1004900020F47C104860486840F498104860086870
:1004A00040F08070086008688001FCD5486820F042
:1004B00003004860486840F0020048604868C0F3A4
:1004C00081000228FAD17047001002400000FFF8B6
:1004D000FFFFF6FE00127A000090002000093D00A8
:1004E000002002400948804709480047FEE7FEE730
:1004F000FEE7FEE7FEE7FEE7FEE7FEE7FEE7FEE7D4
:1005000004480549054A064B70470000C103002016
:10051000ED020020D8A20020D8A80020D8A40020F6
:10052000D8A4002028490843284908607047F0B53E
:100530000F23C47801784FF0E0220127E4B1D2F80C
:100540000C4D867804F4E064C4F5E064240AC4F138
:100550000405E34044781E40AC4026433301114477
:1005600081F800340078410900F01F0002EB81019E
:100570008740C1F80071F0BD01F01F0087404809B5
:1005800002EB8000C0F88071F0BD114A11400143B8
:100590000E48001F016070474FF0E0220029D2F89A
:1005A000101D01D0014300E08143C2F8101D7047C7
:1005B0004FF0E0210428086902D140F0040001E076
:1005C00020F00400086170470000FA050CED00E01F
:1005D00080FFFF1FFF4A116801F0380101431160DD
:1005E0007047FC490A6822F008020A600A68024360
:1005F0000A607047F7490A6822F010020A600A6828
:1006000002430A607047F348F3494160F34941608F
:100610007047F048F0494160F04941607047ED484B
:10062000016941F0800101617047EA48016941F0C8
:10063000800101617047E7490420CA68D20701D0F0
:1006400001207047CA68520701D502207047C96867
:10065000C906FBD50320704700B50346FFF7EBFF43
:1006600003E000BFFFF7E7FF5B1E012802D1002B6C
:10067000F8D101E0002B00D1052000BD70B5054682
:100680004FF430263046FFF7E7FF042813D1D14C52
:10069000206940F0020020616561206940F040005F
:1006A00020613046FFF7D8FF052804D0216941F6C4
:1006B000FD721140216170BD30B54FF430252846E0
:1006C000FFF7CAFF042812D1C24C206940F0040091
:1006D0002061206940F0400020612846FFF7BCFF00
:1006E000052804D0216941F6FB721140216130BD1B
:1006F00000B50346FFF79FFF03E000BFFFF79BFF36
:100700005B1E012802D1002BF8D101E0002B00D1A3
:10071000052000BD30B54FF430252846FFF7E8FF2F
:10072000042812D1AB4C206940F0040020612069FC
:1007300040F0400020612846FFF7DAFF052804D08A
:10074000216941F6FB721140216130BDA1490020B1
:10075000C969890700D50120704770B5A525FFF745
:10076000F5FF00B100254FF430263046FFF774FF47
:10077000042827D1974C9848A0609848A060206929
:1007800040F020002061206940F0400020613046A8
:10079000FFF762FF41F6EF7604280ED1206941F69B
:1007A000DF7108402061206940F0100020618C4812
:1007B00005804FF40050FFF74FFF052802D0216954
:1007C0003140216170BDF0B505464FF4005C0E4626
:1007D0006046FFF741FF042816D17E4C206940F0A7
:1007E000010020612E806046FFF736FF41F6FE775C
:1007F000042804D1300C68806046FFF72DFF0528DF
:1008000002D0216939402161F0BDF0B505464FF4B1
:1008100000570E463846FFF71FFF04280ED16D4CD7
:10082000206940F0010020612E803846FFF714FF58
:10083000052803D02169BA1E11402161F0BDF0B531
:1008400005464FF400570E463846FFF705FF0428CB
:1008500013D1604C6048A0606048A060206940F0FF
:10086000100020612E803846FFF7F6FE052804D0E0
:10087000216941F6EF7211402161F0BD2DE9F0438D
:10088000C043C4B2C0F30725C0F30746070E4FF4B8
:1008900000594846FFF7E0FE04283AD1DFF834C19A
:1008A0004D49CCF808104D49CCF80810DCF8101070
:1008B000DFF8308141F01001CCF81010FF2C06D089
:1008C000A8F808484846FFF7C7FE042818D1FF2DAE
:1008D00006D0A8F80A584846FFF7BEFE04280FD1F4
:1008E000FF2E06D0A8F80C684846FFF7B5FE04288E
:1008F00006D1FF2F06D0A8F80E784846FFF7ACFEC9
:10090000052806D0DCF8101041F6EF721140CCF843
:100910001010BDE8F08370B506464FF43025284628
:10092000FFF79AFE04282BD12A4C2B48A0602B48B5
:10093000A060206940F020002061206940F0400064
:1009400020612846FFF788FE41F6DF71042818D1A0
:100950002069084020612169224841F0100121618D
:100960000EB1002100E0A521A0F800182846FFF7ED
:1009700073FE052804D0216941F6EF721140216110
:1009800070BD0528FCD022690A40226170BDF0B517
:100990000546104C10480E461746A0600F48A06050
:1009A0004FF4005C6046FFF757FE042820D1206911
:1009B00040F0100020613E432E43094946F0F80004
:1009C000891C08806046FFF747FE052810D0216982
:1009D0000AE000000020024023016745AB89EFCD0B
:1009E00000F8FF1F00F0FF1F41F6EF721140216178
:1009F000F0BD1C48C069800870471A48006A7047FB
:100A0000184900200968890600D501207047154A59
:100A10000029116901D0014300E081431161704751
:100A2000014600200F4A012904D1D169C90700D02D
:100A300001207047D2680A42FAD170470949C8605C
:100A4000704708490420CA68D20701D001207047C6
:100A5000CA68520701D502207047C968C906FBD58C
:100A600003207047002002404FF0204202EB80013B
:100A700018B943F2DB00106002E043F2D2000860D4
:100A80006FF070404860C1F80401704710B518233A
:100A900040244FF020414FF0FC32102804D10B6667
:100AA0004C668A66CA6610BD41F8803F4C608A6019
:100AB000CA6010BDFA4818210160002141604FF062
:100AC000FC318160C16001617047F0B5D0E902324C
:100AD00041681943D0E90443224311431943D0E943
:100AE000062311431943D0E9082311431943D0E9E0
:100AF0000A231143046819434FF0204242F824109E
:100B00008168082906D1016802EB81010B6843F076
:100B100040030B60016BD1E901431D020B68D1E971
:100B2000036743EA041345EA06452B43D1E905452B
:100B300043EA075343EA04610368294302EB830352
:100B40005960816AB1F5804F15D1416BD1E90143FC
:100B50001D020B68D1E9046743EA041345EA065411
:100B600089692343006843EA07630B4302EB800073
:100B7000C0F80431F0BD00686FF0704102EB8000F6
:100B8000C0F80411F0BD70B5D0E9024241682143BC
:100B9000D0E904341A43114341EA4423D0E9062141
:100BA00043EA423291E83800CE682D0443EA042338
:100BB000016A45EA06652B4391E8700044EA052482
:100BC0003504CE68016845EA06652C4342F0080208
:100BD0004FF02040102903D102668366C46670BDC1
:100BE00040F8802F8360C46070BD70B590E80E003F
:100BF000102441EA422144EA4333A94A19431160CF
:100C0000C168D1E901340D68CE68240445EA0321A6
:100C100044EA0663194391600169D1E901340D6822
:100C2000CE68240445EA032144EA06631943D160EF
:100C30004069D0E901130468C5681B0444EA012037
:100C400043EA05610843106170BD10B5002302211D
:100C5000C0E900318360C360036143618361C902FD
:100C6000C0E907314900C0E90913C362026B0F21D3
:100C70001160026BFF245160026B9460026BD160C3
:100C8000026B1161026B5161026B9361426B1160E7
:100C9000426B5160426B9460426BD160426B116158
:100CA000426B5161406B836110BD102101600021D6
:100CB00041608160C160016141618161C269FC2163
:100CC0001160C2695160C2699160C269D160026AF3
:100CD0001160026A5160026A9160006AC1607047E7
:100CE0000021016041608160C268FC211160C2681E
:100CF0005160C2689160C268D16002691160026986
:100D00005160026991600269D16042691160426973
:100D10005160426991604069C16070474FF0204264
:100D200002EB80000029016802D041F0010101E0DE
:100D30005C4A1140016070474FF0204251B11028C9
:100D400003D1106E40F004000AE052F8800F40F02A
:100D500004000AE05349C91E102803D1106E084050
:100D60001066704752F8800F0840106070474C4979
:100D70000028086802D040F0040002E0494AD21E70
:100D80001040086070474FF0204251B1102803D145
:100D9000106E40F040000AE052F8800F40F0400032
:100DA0000AE040493F39102803D1106E0840106610
:100DB000704752F8800F0840106070474FF0204194
:100DC000102801D1486F7047D1F89400704710B5D2
:100DD0004FF480744FF020436AB1102802D1586E4E
:100DE00008430CE0A04201D1843300E0A43318682A
:100DF0000843186010BD102803D1586E8843586608
:100E000010BDA04201D1843300E0A43318688843A8
:100E1000EFE7034600204FF02042102B01D1526E25
:100E200007E0B3F5807F02D1D2F8842001E0D2F848
:100E3000A4200A4200D0012070474FF02042102821
:100E400003D1506E884350667047B0F5807F01D162
:100E5000843200E0A4321068884310607047034673
:100E600000204FF02042102B01D1526E07E0B3F565
:100E7000807F02D1D2F8842001E0D2F8A4200A4277
:100E800002EAD10102D0002900D0012070474FF0C2
:100E90002042102808D1506E20EAD10050667047D9
:100EA000A00000A0FEFF0F00B0F5807F01D18432CA
:100EB00000E0A432106820EAD1001060EFE70000E3
:100EC000904910B5884206D10121042000F048FA6B
:100ED000002104203BE08C49884206D101210820F2
:100EE00000F03EFA0021082031E08849884206D10E
:100EF0000121102000F034FA0021102027E084495D
:100F0000884206D10121202000F02AFA0021202069
:100F10001DE08049884206D10121402000F020FADE
:100F20000021402013E07C49884206D10121802025
:100F300000F016FA0021802009E0784988420AD1A1
:100F400084150121204600F00BFA00212046BDE85F
:100F5000104000F005BA10BD10B50121084600F0A0
:100F6000FFF90021BDE81040012000F0F9B9F0B50B
:100F7000CB780022DC0603F00F0301D58C782343E5
:100F80000C884FF00F0C14F0FF0F4FF0010E1BD028
:100F9000D0F800600D880EFA02F42540A5420FD16A
:100FA00095000CFA05F726EA070703FA05F6CD784F
:100FB0003E43282D01D1446102E0482D00D1046157
:100FC000521C082AE6D306600A88FF2A1ED9466802
:100FD0005FF0000202F108050EFA05F40D882540C5
:100FE000A5420FD195000CFA05F726EA070703FA88
:100FF00005F6CD783E43282D00D14461CD78482DAB
:1010000000D10461521C082AE4D34660F0BD4FF6BB
:10101000FF710180022181700421C1707047024676
:10102000926800200A4200D001207047806880B298
:1010300070470246D26800200A4200D00120704763
:10104000C06880B2704701617047416170470AB162
:101050000161704741617047C160704741F480325F
:1010600082618161826181698069704710B52C4B12
:101070001A684FF68074224042EA00100843186054
:1010800010BD2849C8617047F0B5254C002801DA29
:10109000E36900E06368450D2E0185B2C0F3015796
:1010A000B540C0F30342032F06D123F0706263689A
:1010B00023F07063636008E0C60203D50326964000
:1010C000B34300E0AB4343F0706201B12A43002810
:1010D00001DAE261F0BD6260F0BD10B58A0721F06F
:1010E00003040F49120F21440F238C6893409C4343
:1010F0008C608B68904003438B6010BD0949DC31E4
:101100000860704700080140000C014000100140D9
:101110000014014000180140001C01400020014063
:101120000000014000002042A448016841F0010194
:1011300001604168A24A114041600168A14A114022
:101140000160016821F48021016042684FF41F01B1
:1011500022F4FE0242608160704798490A6822F4D6
:1011600080320A600A68B0F5803F22F480220A606B
:1011700007D0B0F5802F03D1086840F4A0200860A4
:101180007047086840F48030F9E7034600205909A9
:101190008A4A012901D1116804E0022901D1116AAA
:1011A00000E0516A03F01F02012393400B4200D07C
:1011B0000120704730B500244FF4A0653120FFF7BF
:1011C000E4FF641CAC4201D00028F7D03120FFF7C7
:1011D000DCFF002800D0012030BD784A116821F0E2
:1011E000F80141EAC0001060704777490860704715
:1011F000724B5A68084322F47C12104358607047BF
:101200007149086670476D4A516821F00301014336
:10121000516070476948406800F00C007047674AA9
:10122000516821F0F001014351607047634A5168F1
:1012300021F4E061014351607047604A516821F434
:10124000605141EAC000506070475C4A0029517A01
:1012500001D0014300E08143517270475A49D831AF
:1012600008607047554A516821F44041014351607C
:1012700070475249002220310A7001F820290128C4
:1012800002D0042802D1052081F8200070474F4980
:101290000860704749490A6A02430A6270474B492D
:1012A00044390860704710B5444A5168484B11F002
:1012B0000C0103D0042901D0082901D0036011E0FA
:1012C00051685368022401F4701104EB914113F446
:1012D000803F02D053689B0301D53E4B00E03C4B5E
:1012E0005943016051683C4B01F0F00109095C5C15
:1012F0000168E1404160546804F4E064240A1C5D24
:1013000021FA04F48460546804F46054E40A1B5D18
:10131000D940C1605268304B02F44042920B1B1F0F
:101320009A5CB1FBF2F1016110BD244A00295169B8
:1013300001D0014300E08143516170471F4A0029F9
:10134000916901D0014300E08143916170471B4ADC
:101350000029D16901D0014300E08143D161704788
:10136000164A0029D16801D0014300E08143D160D1
:101370007047124A0029116901D0014300E08143FE
:101380001161704711494039086070470E49C864BF
:1013900070470A49C87170470848416A41F0807136
:1013A000416270470549024689680020114200D019
:1013B0000120704701498872704700000010024008
:1013C0000000FFF8FFFFF6FE0000424280044242A8
:1013D00000127A0000093D00189000203D4A0029C3
:1013E000B2F8001801D0014300E08143A2F80018D0
:1013F00070473948018841F0100101807047364834
:10140000018821F010010180704733491431888828
:10141000098840EA0140704700B50246FFF7E9FF3E
:101420002D48110C1430018082805DF804EBE6E752
:1014300000B50246FFF7DDFF2748C2F30341001D58
:10144000018082805DF804EBD9E700B50246FFF722
:10145000D0FF2148110C1C30018082805DF804EB24
:10146000CDE71D480C3001888088090740EA11301B
:1014700070471848B0F804188906FBD5704715481E
:10148000B0F8041821F00801A0F80418B0F8041806
:101490000907FBD570471049024609880020114210
:1014A00000D0012070470C4A118881431180704799
:1014B0000949091F8B880A880340D9B2024202D029
:1014C00009B10120704700207047034A1188814309
:1014D000118070470020004004280040FA4910B5F0
:1014E000884202D10121C41486E0B0F1804F06D1B8
:1014F00001210846FFF73DFF0021012067E0F34985
:10150000884206D101210220FFF733FF002102208B
:101510005DE0EF49884206D101210420FFF729FF51
:101520000021042053E0EB49884206D10121082024
:10153000FFF71FFF0021082049E0E749884206D154
:1015400001211020FFF715FF002110203FE0E349A3
:10155000884206D101212020FFF70BFF0021202027
:1015600035E0DF49884202D10121441444E0DD49DD
:10157000884202D10121CC043EE0DB49884202D1FD
:1015800001210C0538E0D949884202D101214C05DE
:1015900032E0D749884206D101214020FFF7E9FE19
:1015A0000021402013E0D349884206D10121802048
:1015B000FFF7DFFE0021802009E0CF4988420AD1F1
:1015C000841501212046FFF7D4FE00212046BDE806
:1015D0001040FFF7CEBEC949884202D101210C0458
:1015E0000AE0C749884202D101214C0404E0C54900
:1015F00088420AD101218C042046FFF7B1FE204623
:10160000BDE810400021FFF7ABBE10BD30B5028829
:10161000AD4CB34DA0420DD0A8420BD0B0F1804FDD
:1016200008D0AA4B984205D0A94B984202D0A94BAA
:10163000984203D122F070034A881A43A64B98427D
:1016400006D0A64B984203D022F44073CA881A43AE
:1016500002808A88A04282850A8802850AD0A84230
:1016600008D0A64A904205D0A54A904202D0A54A89
:10167000904201D1097A01860121818230BDF0B505
:10168000028C22F001020284048C8288038B24F0F5
:10169000020523F073060B880C8933434E888A4F6A
:1016A0002C432643B8420BD08D4CA04208D0934C1B
:1016B000A04205D0924CA04202D0924CA0420DD143
:1016C00026F008044D898E88254325F004052E4315
:1016D00022F440748D89CA8925432A43828003837A
:1016E000C98881860684F0BD30B5028C22F01002D4
:1016F0000284028C8388048B22F0200224F4E645C5
:101700000C88240645EA14440D892D0542EA154546
:101710004A88120545EA12426B4DA84202D0704D2C
:10172000A84215D14D8922F080022D0542EA1545C7
:101730008A8825F04005120545EA12428D8923F476
:101740004063AD0443EA1545CB899B0445EA134346
:1017500083800483C9880187028430BD70B5028C00
:1017600022F480720284028C8388848B0E8924F098
:1017700073050C8822F400722C43350642EA1545A5
:101780004A88120645EA12424F4DA84202D0544DF3
:10179000A84215D14D8922F400622D0642EA154572
:1017A0008A8825F48065120645EA12428D8923F461
:1017B00040532D0543EA1545CB891B0545EA1343E4
:1017C00083808483C9888187028470BD30B5028C90
:1017D00022F480520284038C8288848B24F4E645B0
:1017E0000C88240645EA144423F400550B891B0792
:1017F00045EA13434D882D0743EA1545324B98427D
:1018000002D0374B984205D122F480438A89920551
:1018100043EA124282808483C988A0F8401005847C
:1018200030BD828B22F440628283828B42EA0122A5
:1018300082837047828B22F00C028283828B0A4360
:1018400082837047028B22F440620283028B42EA59
:1018500001220283704730B5048C24F01004048404
:10186000058B048C25F4734545EA033343EA0222D1
:1018700024F0200343EA011343F0100102830184A2
:1018800030BD028B22F00C020283028B0A430283DA
:10189000704770B50D46044608884988AA882B8988
:1018A00038B9204600F0CBFAE9882046BDE8704000
:1018B000E7E7042828D12046FFF7CDFFE988204636
:1018C000BDE87040BEE70000002C0140000400406D
:1018D00000080040000C00400010004000140040D0
:1018E00000340140004C01400050014000540140D0
:1018F00000180040001C0040002000400040014053
:1019000000440140004801400828208C16D120F4F2
:1019100080702084A68B208C26F0F30642EA031305
:1019200020F40070334340EA012040F48070A38328
:101930002084E9882046BDE870407BE720F4805091
:101940002084A68B208C26F4734646EA022220F4DB
:10195000005042EA033340EA013040F48050A38350
:101960002084E9882046BDE870405AE72DE9F0411F
:101970000C46002549880746012601B90225A288A0
:10198000012A00D10226208823890028384610D158
:1019900000F055FAE1883846FFF773FF2389324695
:1019A00029463846FFF757FFE1883846BDE8F04141
:1019B00048E7FFF750FFE1883846FFF743FF2389E8
:1019C00032462946384600F03AFAE1883846BDE802
:1019D000F04156E730B50A884C888B88CD88224381
:1019E0002B431A430C894B89224389891A430A43A2
:1019F000A0F8442030BD4FF6FF71818000210180A6
:101A0000C180418001727047002101804180818046
:101A1000C180018141818181C181704700210180A4
:101A2000418001228280C1800181704700210180B4
:101A300041808180C180018141818181704700297D
:101A4000018802D041F0010101E021F00101018093
:101A50007047002930F8441F02D041F4004101E0F2
:101A6000C1F30E0101807047002A828901D00A4328
:101A700000E08A4382817047818270471143A0F859
:101A800048107047002A828901D00A4300E08A4347
:101A900082817047018921F0070101817047028925
:101AA00022F070020A4302817047028922F070021C
:101AB0000A430281018941F007010181704770B535
:101AC0000D4611460446602D4FF0010202D1FFF78A
:101AD000C2FE01E000F0B3F9208920F07000284335
:101AE0002081208940F00700208170BD10B5048955
:101AF00042EA0323E4B20B432343038110BD10B534
:101B00000446FFF7F3FF208940F07700208110BDE5
:101B100010B50446FFF7EAFF208940F48040208199
:101B200010BD018582827047028822F070020A434C
:101B30000280704770B50689058B048C26F0070675
:101B40000E434FF6FC410D4040F201110D4324F0CD
:101B5000220442EA0311214306810583018470BDFA
:101B6000028B22F070020A4302837047028B22F438
:101B7000E04242EA012101837047828B22F0700229
:101B80000A4382837047828B22F4E04242EA0121B9
:101B9000818370470029018802D041F0800101E073
:101BA00021F08001018070470029818802D041F036
:101BB000040101E021F0040181807047002981883F
:101BC00002D041F0080101E021F008018180704756
:101BD0000029818802D041F0010101E021F00101DA
:101BE00081807047028B22F008020A43028370470B
:101BF000028B22F4006242EA012101837047828B4A
:101C000022F008020A4382837047828B22F400622A
:101C100042EA012181837047028B22F004020A43C9
:101C200002837047028B22F4806242EA0121018321
:101C30007047828B22F004020A4382837047828BB2
:101C400022F4806242EA012181837047028B22F0F4
:101C500080020A4302837047028BC2F30E0242EAFB
:101C6000012101837047828B22F080020A43828324
:101C70007047828BC2F30E0242EA012181837047D2
:101C8000028C22F002020A4302847047028C22F086
:101C900008020A4302847047028C22F0200242EAC2
:101CA000011101847047028C22F0800242EA011186
:101CB00001847047028C22F4007242EA01210184FF
:101CC0007047028C22F4006242EA012101847047CD
:101CD000028C22F4005242EA01310184704710B5AF
:101CE0000123048C8B409C430484038C8A4013435F
:101CF000038410BD10B50423048C8B409C430484E2
:101D0000038C8A401343038410BD30B50124058C35
:101D100000F118038C40A543058409B1082907D1B7
:101D200003EB5100016821F07001016001680AE0D5
:101D3000091F88B203EB5000016821F4E041016003
:101D400001681206120C1143016030BD00290188A0
:101D500002D041F0020101E021F002010180704750
:101D60000029018802D041F0040101E021F00401C2
:101D7000018070470029818802D041F0800101E094
:101D800021F0800181807047028822F008020280E1
:101D900002880A4302807047828822F070028280A3
:101DA00082880A4382807047028922F007020281FA
:101DB00002890A4302817047028922F0800202816F
:101DC00002890A4302817047818470478185704788
:101DD000818670470187704781877047A0F840105F
:101DE0007047028822F44072028002880A4302800F
:101DF0007047808E7047008F7047808F7047B0F8B3
:101E000040007047808C7047008D70470246128AF0
:101E100000200A4200D001207047C9430182704768
:101E20000246138A002092890B4202EA010202D084
:101E3000002A00D001207047C9430182704730B5A5
:101E4000048C24F001040484058B048C42EA0313FF
:101E500025F0F3052B4324F002020A4342F001016E
:101E60000383018430BD0000C64910B588420AD101
:101E700001218C032046FFF773FA2046BDE810408D
:101E80000021FFF76DBAC049884202D101214C04FC
:101E900010E0BE49884202D101218C040AE0BC490D
:101EA000884202D10121CC0404E0BA4988420AD117
:101EB00001210C052046FFF75CFA2046BDE81040E2
:101EC0000021FFF756BA10BD30B50446008A85B030
:101ED0000D464CF6FF710840E98801432182A08934
:101EE0004EF6F3110840A9882A8911436A890243F2
:101EF0001143A181A08A4FF6FF410840A9890143FF
:101F0000A1826846FFF7CFF99E48844201D1039829
:101F100000E00298A1890904002900EBC00101EB4F
:101F20000010296802DA4FEA410101E04FEA81011D
:101F3000B0FBF1F06422B0FBF2F14FEA01114FEA7D
:101F400011136FF018056B43A58900EB8300322352
:101F50002D0406D503EBC000B0FBF2F000F0070043
:101F600005E003EB0010B0FBF2F000F00F000843B7
:101F7000208105B030BD4FF41651016000218180F1
:101F8000C18001810C2242818181704730B5028A73
:101F90004FF2FF031A400B884D888C88C9882B4369
:101FA0000C4323431343038230BD00210180418051
:101FB0008180C18070470029818902D041F400519D
:101FC00001E021F400518181704710B5C1F3421343
:101FD00001F01F040121A140012B01D10C3004E0CC
:101FE000022B01D1103000E01430002A026801D029
:101FF0000A4300E08A43026010BD002A828A01D0B1
:102000000A4300E08A4382827047028A22F00F026C
:102010000282028A0A4302827047828922F40062A5
:10202000828182890A43828170470029818902D096
:1020300041F0020101E021F0020181817047028A32
:1020400022F020020282028A0A430282704700299B
:10205000018A02D041F4804101E021F480410182F3
:102060007047C1F30801818070478088C0F3080081
:102070007047818941F0010181817047028BD2B2A2
:102080000283028B42EA012101837047028B02F432
:102090007F420283028B0A43028370470029818AB0
:1020A00002D041F0200101E021F02001818270473F
:1020B0000029818A02D041F0100101E021F01001D5
:1020C000818270470029818A02D041F0080101E035
:1020D00021F00801818270470029818902D041F4F2
:1020E000004101E0C1F30E01818170470029818A1E
:1020F00002D041F4006101E021F400618182704767
:10210000828A22F004028282828A0A438282704793
:102110000029818A02D041F0020101E021F0020190
:10212000818270470246128800200A4200D00120B6
:102130007047C9430180704770B501F01F06012543
:102140000024C1F3421305FA06F2012B01D1838961
:1021500004E0022B01D1038A00E0838A4FEA1121B7
:102160000088134205FA01F500EA050001D000B12C
:102170000124204670BD0A0A01219140C943018013
:102180007047000000380140004400400048004013
:10219000004C00400050004070B5012188B0084656
:1021A000FFF7D5F817200024ADF8180040F2E73506
:1021B000ADF814504FF08046ADF81A40ADF8164017
:1021C0008DF81C4005A93046FFF720FA01A8FFF75B
:1021D0001BFCADF80440ADF80A4001A93046FFF7FA
:1021E0004EFA01213046FFF72AFC012229463046EB
:1021F000FFF797FC01213046FFF70FFE0122114641
:102200003046FFF731FC08B070BDF0B5054601213E
:102210008DB00803FEF738FF4FF40056ADF830607C
:1022200018208DF8330003208DF832000CA9C8481F
:10223000FEF79DFE01210420FFF789F840F2E73008
:10224000ADF8280017200024ADF82400C14FADF8E8
:102250002A40ADF826408DF82C4009A93846FFF7F2
:10226000D5F901213846FFF795FC6020ADF8140040
:102270000120ADF816000420ADF81800ADF81C40A0
:10228000ADF81E40ADF81A5005A93846FFF72CFAF4
:1022900008213846FFF7ACFCB010ADF80400401040
:1022A000ADF80600ADF808409020ADF80A007000C7
:1022B000ADF80C40ADF81000ADF80E6001A938463D
:1022C000FFF788FB01213846FFF7B9FB01213846AB
:1022D000FFF7BFFB0DB0F0BD10B54FF480342046C2
:1022E000FEF73BFFFEF766FF012825D10020FEF731
:1022F00096FF0020FEF79AFF0020FEF79EFF0020C9
:10230000FEF7B0FF0020FEF765F91020FEF772F926
:10231000A1002046FEF76CFF0120FEF771FF392077
:10232000FEF733FF0028FAD00220FEF76CFF00BF53
:10233000FEF770FF0828FBD101213C20FEF7FEFFCD
:102340000121BDE810400846FEF7F8BF30B504464D
:1023500085B001210420FEF7F1FF4FF40070ADF8C5
:10236000000003208DF8020018207B4D8DF803003B
:1023700069462846FEF7FBFD2815ADF8000004204D
:102380008DF8030069462846FEF7F1FD0121880318
:10239000FEF7D4FF0020ADF808000194ADF80A0064
:1023A000ADF80C00ADF810000C206C4CADF80E0030
:1023B00001A92046FFF788FD012240F22551204661
:1023C000FFF703FE01212046FFF7F5FD05B030BD04
:1023D00030B5044685B001210820FEF7AFFF4FF469
:1023E0008060ADF8000003208DF8020018205C4DDD
:1023F0008DF8030069462846FEF7B9FDE814ADF8EC
:10240000000004208DF8030069462846FEF7AFFD62
:1024100001218804FEF79BFF0020ADF8080001941D
:10242000ADF80A00ADF80C00ADF810000C204D4CD2
:10243000ADF80E0001A92046FFF746FD012240F24B
:1024400025512046FFF7C1FD01212046FFF7B3FDCE
:10245000BCE745F6BF514FF0E0204161424AF02110
:1024600011700021816107210161704738B5FFF7C4
:1024700033FF4FF400710805FEF787F84FF4A060B2
:10248000FEF750F81C208DF8000002208DF80100A6
:102490008DF8020001248DF803406846FEF747F8E6
:1024A00025208DF800008DF801408DF802408DF850
:1024B00003406846FEF73BF827208DF80000002017
:1024C0008DF801008DF802408DF803406846FEF754
:1024D0002EF8FFF761FE0020FFF797FE4FF4165429
:1024E0002046FFF733FF2046BDE8384070E71F4A1B
:1024F000116813685B1A8342FBD370474FF47A71FB
:102500004843F4E770B5194C2068401C20602068EF
:102510004FF4FA71B0FBF1F201FB120058B90E4D05
:1025200001212846FEF785FDC0F10100C2B201215C
:102530002846FEF78CFD20684FF47A71B0FBF1F26B
:1025400001FB1200002802D16068401C606070BD71
:10255000001401400008004000080140003801401C
:10256000000C01400048004023ED00E028900020CE
:10257000F0B500249BB02546FDF722FFFFF776FF5C
:1025800000F0EEF900F001FA01F075F80020FFF715
:102590003CFE00F018FA814F02213846FEF73FFD5D
:1025A000C8B90A20FFF7A3FF02213846FEF737FD1E
:1025B00088B900F02FFA7A4C02212046FEF739FD47
:1025C000C0F10100C2B202212046FEF740FDC82042
:1025D000FFF78DFFF0E700F00AFA002001F060FC41
:1025E000002001F057F86F4E00F077FE18AB19AAE3
:1025F0001AA9306A00F02CFA189804F08FF8199B89
:10260000CDE90201009396F8240067A24E2800D07D
:1026100067A269A104A81A9B01F046FD0022114699
:1026200004A801F049F818AB19AA1AA9B06A00F079
:102630000FFA189804F072F8199BCDE90201009383
:1026400096F82C0062A2452800D063A25AA104A8E3
:102650001A9B01F029FD1022002104A801F02CF89A
:10266000B06B04F05BF896F83C3000930B460246E2
:102670005BA104A801F018FD2022002104A801F0AC
:102680001BF8306B04F04AF80B46024658A104A828
:1026900001F00AFD3022002104A801F00DF8706B52
:1026A00004F03CF80B46024656A104A801F0FCFCDD
:1026B0004022002104A800F0FFFFF3680093D6E950
:1026C000012310460832102801DBA0F1100251A1AD
:1026D00004A801F0E9FC5022002104A800F0ECFF5E
:1026E00073690093D6E906324FA104A801F0DCFC1F
:1026F0006022002104A800F0DFFF96F85F3096F812
:102700005E204EA104A801F0CFFC7022002104A895
:1027100000F0D2FF96F83D0050B101280AD00228FF
:102720000CD0062810D149A104A801F0BDFC0BE093
:102730004BA1F9E796F83F204EA102E096F83F2022
:1027400051A104A801F0B0FC8022002104A800F0EF
:10275000B3FF2A466D1C51A104A801F0A5FC9022EC
:10276000002104A800F0A8FF02213846FEF757FC1C
:1027700008B900F021F908213846FEF750FC00287E
:102780007FF432AF00F033F9A02C02D22834E4B247
:1027900000E000242046FFF738FD25E7001801403F
:1027A000000801404C900020B1B1CEB30000000001
:1027B000C4CFCEB30000000025733A253364202532
:1027C0003264272530352E3266222020000000009A
:1027D000B6ABBEAD00000000CEF7BEAD00000000FD
:1027E000BAA3B0CE3A252E316625632020202000E2
:1027F000CBD9B6C83A252E31666B6D2F68202020C4
:1028000020000000BABDCFF23A252E3166B6C820AE
:1028100020202000CAB1BCE43A2532643A25303287
:10282000643A253032642000C8D5C6DA3A32302501
:102830003032642D25642D2564202000CEC0D0C701
:102840003A2532642F25326400000000475053D7E8
:10285000B4CCAC3AB9C0CBE3D6D0202020000000E5
:10286000475053D7B4CCAC3ACEB4B6A8CEBB202098
:1028700020000000475053D7B4CCAC3A2564442024
:102880005350532020000000475053D7B4CCAC3AEB
:102890002564442044475053200000007570646153
:1028A0007465202534642074696D6573210000000F
:1028B0007047FEE7FEE7FEE7FEE7704770477047A8
:1028C000FFF720BE10B50120FEF7F2FD002806D06C
:1028D0000120FEF7FAFD07490868401C086010BD9A
:1028E00010B501218807FFF7A7FABDE81040FFF7F0
:1028F00009BE00002C90002070B504461649C0B2F5
:1029000008800D1F80212846FFF70CFC0028F9D015
:10291000204670BD10B5114C2046FFF7A6FB0E49AE
:10292000C0B208802046BDE8104040F22551FFF7B4
:1029300022BC10B5084C241F2046FFF796FB074920
:10294000C0B2091D088000F07AFC2046BDE81040A6
:1029500040F22551FFF70FBC044800400038014009
:1029600038B50324ADF8004010208DF803008DF831
:10297000024069460E48FEF7FAFA0D48103004602E
:1029800001210420FEF7DAFC38BD08B50121402002
:10299000FEF7D4FC0F20ADF8000048208DF80300AE
:1029A00002208DF8020069460248FEF7E0FA08BDF1
:1029B0000008014000180140FF4901200861FF495B
:1029C00000208871704708B501211020FEF7B6FC81
:1029D0000320ADF8000010218DF803108DF80200DF
:1029E0006946F548FEF7C3FAFFF7E6FF08BD70B584
:1029F000F24EB07908B1002070BD0125B571FFF726
:102A0000E2FFED4C022060616420FFF770FD65611C
:102A1000B07970BD70B5E9480124E74D04702C61B0
:102A20004FF47A763046FFF762FD02202861304687
:102A3000FFF75DFD6C614FF416442046FFF786FCFE
:102A40002046BDE87040FFF7C3BCDC488079704782
:102A50002DE9F04781460E4614461D4603F012FF4D
:102A6000306003F047FF494604F007F8D44F394679
:102A700003F05AFF03F006FF206003F03BFF80469F
:102A8000306803F037FF494603F0F7FF394603F09B
:102A90004BFF414603F0FCFF394603F045FF286039
:102AA00003F03CFEC7A20CCA03F092FCC7A20CCAFA
:102AB00003F072FB06D20020286054F8041F3C2962
:102AC00000D12060BDE8F08730B5027800210123F5
:102AD000A2F13004092C04D92D2A07D02B2A0BD1BE
:102AE00006E02D2A02D02B2A03D101E04FF0FF335C
:102AF000401C6FF02F0407E0002030BD01EB810186
:102B000004EB41011144401C0278A2F13005092D6B
:102B1000F4D903FB01F030BD2DE9F05F00268046BB
:102B20008A460446374601F0B7FA006800E0641CA4
:102B30002178415CC907FAD12078A6492D2801D017
:102B40002B2801D10746641C89460BE0641C03F066
:102B5000D1FE05464946304603F0E6FE294603F01D
:102B600005FE0646207830380A28EFD320782E2834
:102B70001CD14FF07E5B641C14E0584603F0CEFD80
:102B800095A20CCA03F040FB02F07EFF8346284664
:102B9000641C03F0AFFE594603F0C6FE314603F055
:102BA000E5FD06462578303D0A2DE6D3207840F035
:102BB0002000652832D114F8010F00252B380F288A
:102BC0000FD2DFE800F00A0E080E0E0B0B0B0B0BFA
:102BD0000B0B0B0B0B00DFF80892641C6FF02F013E
:102BE00008E00026444619E005EB850201EB4202AD
:102BF0008518641C2078A0F130020A2AF4D3E80773
:102C000004D04946304603F08FFE06466D0805D0D5
:102C10004946484603F088FE8146F0E7BAF1000FC6
:102C200001D0CAF8004030462D2F01D186F0004077
:102C3000BDE8F09F00216FE701E0401C491C0278CD
:102C400022B10B7823B19A42F7D003E0097809B991
:102C5000401C704700207047014600E0491C0A787C
:102C60002C2A01D0002AF9D100220A70704730B511
:102C700003004FF0000501D004781CB90020156056
:102C800030BD5B1C1C784CB18C4203D00D2C01D0A4
:102C90000A2CF6D1591C11601D7030BD156030BD75
:102CA00010B50022B0B1A9B101E05A40401C037830
:102CB000002BFAD141480C78C01D00EB12131B7891
:102CC000A34207D102F00F02805C4978884201D10B
:102CD000012010BD002010BD2DE9F04F014689B044
:102CE000401C04900978242909D104AA2A21FFF75D
:102CF000BEFF04460499FFF7D3FF012803D000204C
:102D000009B0BDE8F08F204604AA2C210494FFF7F7
:102D1000AEFF074633A101F037FC344C4FF00008FA
:102D200004F10C0104F1100A04F108094FF0530BEF
:102D30002FA524A6089100286DD104AA2C2104985F
:102D4000FFF795FF070015D01422394604F53070BF
:102D500001F0A9FB70B1089ACDE9002A4B46221D6B
:102D600025A1384601F0E0FA1422394604F5307006
:102D700001F0DFFB04AA2C210498FFF778FF30B1A3
:102D80000078412801D1012000E04046207004AACB
:102D90002C210498FFF76BFFE0B305AB009306AB63
:102DA00007AA19A101F0C0FA059803F0A3FD03F0EA
:102DB000B5FCD5E900232FE0001001403090002041
:102DC000000070420000000000004E407B14AE473F
:102DD000E17A843F000020419A9999999999B93FE5
:102DE000CDCCCC3D4750524D430000004C900020CC
:102DF00000000000804F22412532642532642532D4
:102E0000642E2534640000002532642532642E25AA
:102E1000346400001FE092E002F0A8FF81460F46F4
:102E2000069803F067FD03F079FCD6E9002302F071
:102E30009DFF80468A46079803F05CFD03F06EFC18
:102E40005346424602F06AFE3B464A4602F066FEA0
:102E500002F01AFE206204AA2C210498FFF707FF53
:102E600038B10078532801D1584600E04E2084F84C
:102E7000240004AA2C210498FFF7F9FE50B301ABFB
:102E8000009302AB03AAFFA101F04EFA019803F0F0
:102E900031FD03F043FC0CCD02F068FF05460F4600
:102EA000029803F027FD03F039FC0CCE02F05EFF20
:102EB00080460E46039803F01DFD03F02FFC3346B9
:102EC000424602F02BFE3B462A4602F027FE02F065
:102ED000DBFDA06204AA2C210498FFF7C8FE28B1EC
:102EE0000078572800D0452084F82C0004AA2C2113
:102EF0000498FFF7BCFE50B1FFF79CFE03F00EFCF8
:102F0000E3A20CCA03F080F902F0BEFD206304AA1C
:102F10002C210498FFF7ABFE10B1FFF78BFE606326
:102F200004AA2C210498FFF7A2FE002806D0DA4B51
:102F300000931B1F1A1FD9A101F0F6F97DE1DAA158
:102F4000384601F021FB00287ED104AA2C210498E8
:102F5000FFF78DFE070014D014223946D44801F043
:102F6000A2FA70B1089ACDE9002A4B46221DAFF2B1
:102F70007811384601F0D8F914223946CC4801F0CE
:102F8000D8FA04AA2C210498FFF771FE68B301ABAC
:102F9000009302AB03AAAFF2901101F0C5F90198BA
:102FA00003F0A8FC03F0BAFBD5E9002302F0DEFE33
:102FB00080468946029803F09DFC03F0AFFBD6E9FA
:102FC000002302F0D3FE07468A46039803F092FCE2
:102FD00003F0A4FB53463A4602F0A0FD4B4642469E
:102FE00002F09CFD02F050FD206204AA2C210498FE
:102FF000FFF73DFE38B10078532801D1584600E074
:103000004E2084F8240004AA2C210498FFF72FFEF8
:1030100060B301AB009302AB03AA9AA101F084F95B
:10302000019803F067FC03F079FB0CCD02F09EFEE3
:1030300005460F46029803F05DFC03F06FFB0CCED3
:1030400002F094FE064600E04DE08846039803F047
:1030500051FC03F063FB4346324602F05FFD3B4602
:103060002A4602F05BFD02F00FFDA06204AA2C21AB
:103070000498FFF7FCFD28B10078572800D04520C0
:1030800084F82C0004AA2C210498FFF7F0FD18B155
:10309000FFF71AFD84F83D0004AA2C210498FFF7DD
:1030A000E6FD18B1FFF710FD84F85E0004AA2C219C
:1030B0000498FFF7DCFD10B1FFF7BCFD606404AAC3
:1030C0002C210498FFF7D3FD10B1FFF7B3FDA063E7
:1030D00004AA2C210498FFF7CAFD002802D000782A
:1030E00084F83C00A9E073A1384601F04DFA0028AD
:1030F0005ED104AA2C210498FFF7B9FD6F4F10B1DF
:10310000FFF7E2FC787004AA2C210498FFF7AFFDCA
:1031100010B1FFF7D9FCB870B878012801D187F851
:10312000038004AA2C210498FFF7A1FD18B1FFF732
:10313000CBFC84F85F00002504AA2C210498FFF73B
:1031400096FD28B1FFF7C0FCF97804EB0111086681
:1031500004AA2C210498FFF78AFD28B1FFF7B4FCDC
:10316000F97804EB0111486604AA2C210498FFF7B2
:103170007EFD28B1FFF7A8FCF97804EB0111886601
:1031800004AA2C210498FFF772FD060006D03046F1
:10319000FFF79AFCF97804EB0111C866F878401C37
:1031A000F870002E49D06D1CEDB2042DC4D344E05C
:1031B00043A1384601F0E8F900283ED104AA2C21A9
:1031C0000498FFF754FD18B1FFF77EFC84F83E0029
:1031D00004AA2C210498FFF74AFD18B1FFF774FCEC
:1031E00084F83F00002504AA2C210498FFF73FFD36
:1031F00020B1FFF769FC611981F852006D1CEDB236
:103200000C2DF0D304AA2C210498FFF730FD10B147
:10321000FFF710FD206404AA2C210498FFF727FD76
:1032200010B1FFF707FD606404AA2C210498FFF792
:103230001EFD10B1FFF7FEFCA064012060E530B573
:103240001E4B197801291CD01946194C09791434E0
:10325000C1EBC1022428C2EBC11235D1491C0125A2
:10326000C8B2A55400211871052800D91971187920
:10327000C0EBC002C2EBC010215424212044417095
:103280005D7130BD2533642532642E253464000021
:103290006F1283C0CAA1FD3F6890002025326425CB
:1032A0003264253264000000475047474100000067
:1032B0000C930020475047535600000030900020E8
:1032C000475047534100000059797729D9D2224409
:1032D0000A445070491C5971D3E72DE9F041002090
:1032E0000A4E0446054600BFC4EBC401C1EBC41737
:1032F000F15D012904D1B819401CFFF7EDFCF5552B
:10330000641CE4B2062CEFD3BDE8F08120930020CA
:10331000F0B4F94BC9081B78FF24F84D012B21D1DB
:10332000F74B03EBC003A3F58073002002EB820789
:10333000521C401C13F8016B05EB8707C0B27E548A
:10334000D2B20728F2D302EB820005EB800044548E
:10335000521CC806000ED3B200F10801CAB2A3F194
:10336000080120E0E74B03EB0013A3F500730020F6
:1033700002EB8207521C401C13F8016B05EB870718
:10338000C0B27E54D2B20F28F2D302EB820005EB1A
:1033900080004454521CC806000ED3B200F108014C
:1033A000CAB2A3F11001F0BCC9B200F0C7BDF0B4BD
:1033B0001346D14AC9081278D04C012A1CD1D04AF0
:1033C00002EBC002A2F580725FF0000003EB8306FF
:1033D00012F8015B5B1CED43401C04EB8606C0B297
:1033E0007554DBB20828F1D3C806000E00F10801BD
:1033F000CAB2A3F108011AE0C24A02EB0012A2F518
:103400000072002003EB830612F8015B5B1CED43A6
:10341000401C04EB8606C0B27554DBB21028F1D311
:10342000C806000E00F10801CAB2A3F11001F0BCF9
:10343000C9B200F083BDF0B41346AF4AC908127890
:10344000AE4C012A1BD1AE4A02EBC002A2F580723B
:103450005FF0000003EB83065B1C401C12F8015B6D
:1034600004EB8606C0B27554DBB20828F2D3C80656
:10347000000E00F10801CAB2A3F108011AE0A14A46
:1034800002EB0012A2F500725FF0000003EB83066E
:103490005B1C401C12F8015B04EB8606C0B275543D
:1034A000DBB21028F2D3C806000E00F10801CAB240
:1034B000A3F11001F0BCC9B200F040BD20280BDB25
:1034C0007F2809DC8C4B5B7823B1012B03D0022BC6
:1034D00002D11DE7AFE76AE770472DE9F0470C46D8
:1034E0000025DFF81482884B164629465FFA80F7DC
:1034F00013F81120B2EB102F04D103EB41025278E4
:10350000BA4213D021290DD1324621462320FFF79C
:10351000D5FF98F8020032462044BDE8F047C1B21A
:103520002320CBE7491C89B22229E1D3764A98F8B7
:103530000100764B443248B1012830D002282DD109
:1035400002EB41194FF000089A4651E002EB411896
:103550004FF000099A460027780701D118F8015B5F
:1035600007F007001AF80000284201D1002200E00D
:1035700001223146204600F057FD641C7F1CFFB23B
:10358000E4B2102FE8D3761C103C09F1010000F0E2
:10359000FF09F6B2E4B2B9F1100FDCD35FE002EB41
:1035A00041184FF000099A460027780701D118F812
:1035B000015B07F007001AF80000284201D1012240
:1035C00000E000223146204600F02EFD641C7F1CE6
:1035D000FFB2E4B2102FE8D3761C103C09F10100D1
:1035E00000F0FF09F6B2E4B2B9F1100FDCD336E017
:1035F0000027780701D119F8015BB8F10F0F00D14E
:10360000FF2507F007001AF80000284201D1002228
:1036100000E001223146204600F006FD641C7F1CBC
:10362000FFB2E4B2102FE4D3761C103C08F1010085
:1036300000F0FF08F6B2E4B2B8F10F0FD8D30025BE
:1036400001223146204600F0EFFC641C6D1CEDB2F7
:10365000E4B2102DF4D3103C761CE4B2F6B204F1BF
:103660001000C2B2A6F11000C1B233462046BDE838
:10367000F04700F063BC10B500F055FB002000F0EF
:103680000FFC1D480021017041700821817010213C
:10369000C17010BD18494870C0B270471649082261
:1036A000012803D108708A70CA7070470020087022
:1036B0008A701020C87070472DE9F04106460D460B
:1036C0001446002007E0802903D90020FFF7E6FF19
:1036D00004E0401CC0B2315C0029F4D10027DFF8BF
:1036E000188041E0802829D20A2811D198F80300D7
:1036F00000252044C4B236E047900020F695002013
:103700005677002056710020D26C0020567A002097
:10371000982D09D998F803000025C0F1A001204494
:10372000C4B2A14200DA0024F05722462946FFF72E
:10373000C5FE98F802002844C5B214E0902D05D9C2
:1037400010340025E4B2902C00D90024F1194978F6
:10375000224601EB002080B22946FFF7BEFE7F1C07
:103760001035FFB2EDB2761CF05D0028BAD1BDE88D
:10377000F0812DE9FC470D461C464FF000084146FC
:103780000A266B46B0FBF6F706FB1700585438467E
:103790005F5C07B18846491CC9B20529F2D3DFF83E
:1037A0006C94601E99F80210D2B200FB0150C1B2B5
:1037B0009DF800009A46303040B21746FFF77EFE73
:1037C00001261CE01AF8060050B1A11B491E99F809
:1037D0000220303001FB0251C9B240B23A460AE041
:1037E00046450AD9A01B99F80210401E00FB015063
:1037F000C1B23A462020FFF761FE761CF6B2A6421F
:10380000E0D3BDE8FC872DE9F04706460F46914618
:103810001D46082B00D908250024DFF8F08316E0A8
:10382000A5EB040198F80220A1F1010102FB01714E
:1038300006F00F0036090A28C9B24A4601D23030D4
:1038400000E0373040B2FFF739FE641CE4B2AC420E
:10385000E6D3BDE8F0872DE9F04101EBC30108395B
:1038600090461C46CDB20A270FE000BFB0FBF7F62A
:1038700007FB160030304246294640B2FFF71EFED5
:10388000083D641EEDB23046E4B2002CEED16EE786
:103890002DE9F041061E01F10800D4B21F46C5B261
:1038A000224608DA2D20FFF709FE70423B462246E9
:1038B000294680B206E02020FFF700FE3B46224664
:1038C0002946B0B2BDE8F041C5E72DE9F84F002523
:1038D00004460E461746984699427AD0B04505DA16
:1038E00040463946B046274606460C46A8EB060039
:1038F00083460FFA80FA381B00900FFA80F9F1B274
:10390000E0B20A9A00F039FBA74220DB00998B4510
:103910001DDCAAEB090816E00A9A002D08DA641CDF
:10392000F1B2E0B200F029FB24B205EB0A0009E095
:10393000761C641CF1B2E0B200F01FFB24B236B278
:1039400008EB050005B2BC42E6D1BDE8F88FA742FE
:103950001DDB00998B451ADDAAEB090714E006F17F
:1039600001060A9A002DF1B207DA641CE0B200F0F9
:1039700004FB24B236B2781905E0E0B200F0FDFA9B
:1039800036B2A5EB090005B24645E8D1DDE7A7420E
:1039900020DAE01B83451DDC0AEB090816E00A9AD1
:1039A000002D08DA641EF1B2E0B200F0E6FA24B2AB
:1039B00005EB0A0009E0761C641EF1B2E0B200F0EB
:1039C000DCFA24B236B208EB050005B2BC42E6D1FF
:1039D000BBE71FE0A742B8DA00988345B5DD0AEBE4
:1039E000090714E006F101060A9A002DF1B207DA80
:1039F000641EE0B200F0C1FA24B236B2781905E0D4
:103A0000E0B200F0BAFA36B205EB090005B246455D
:103A1000E8D19AE7A1463D46BC4201DAB9462546BF
:103A2000F4B206E02146E8B20A9A00F0A6FA6D1C4C
:103A30002DB24D45F6DB08F0FF01F8B20A9ABDE859
:103A4000F84F00F09ABA2DE9FF4F8BB007460D985A
:103A50008A4600287ED00D9909970AEB01040A973F
:103A6000FEB20894A02C04DAE1B230460E9A00F0BF
:103A700084FA0D990697BAEB01050797059504D4CA
:103A8000E9B230460E9A00F078FA0D980AF0FF0875
:103A90003E18CDE902A6A02E04DA4146F0B20E9AF5
:103AA00000F06BFA0D98D3463F1ACDF810A001979D
:103AB00004D44146F8B20E9A00F05FFA0D9801283E
:103AC00048D04042032101EB40080D984FF0000917
:103AD000009094E0B8F1000F04DA08EB890000F1DF
:103AE000060818E0A9EB010008EB800000F10A08C5
:103AF0000098641E401E009008986D1C401E08909F
:103B00000598761E401C059003987F1C401E03906C
:103B10000198401C01900A9809F10109401C0A9083
:103B200009980AF1010A401E09900798ABF1010BB0
:103B3000401C07900698401E06900498401C049074
:103B40000298401E02900A98A02808DC002C06DB90
:103B5000E1B200E057E0C0B20E9A00F00EFA099808
:103B6000002808DB0898002805DBC1B209980E9AE6
:103B7000C0B200F002FA0798A02806DCA02D04DCF1
:103B8000E9B2C0B20E9A00F0F8F90698002808DBF6
:103B90000598A02805DCC1B206980E9AC0B200F0C4
:103BA000ECF9A02E08DCBAF1000F05DB0AF0FF01EA
:103BB000F0B20E9A00F0E1F9002F07DB049800281C
:103BC00004DBC1B2F8B20E9A00F0D7F90398A0282E
:103BD00008DC0298A02805DCC1B203980E9AC0B296
:103BE00000F0CBF90198002809DBBBF1A00F06DC3F
:103BF00001980BF0FF01C0B20E9A00F0BEF90099D7
:103C00008945FFF667AF0FB0BDE8F08F4790002001
:103C1000FE49088070474FF0C0410880704738B5B2
:103C200001217C20FDF78AFB10208DF8030003247E
:103C30008DF802400820F64DADF800006946284690
:103C4000FDF795F94CF23370ADF800008DF80240A5
:103C500018208DF8030069462846FDF788F94FF6CD
:103C60008070EC4CADF8000069462046FDF77FF906
:103C70008020ADF8000069462846FDF778F9E01489
:103C8000ADF8000069462846FDF771F98021284605
:103C9000FDF7D9F94CF203012846FDF7D4F94FF4AA
:103CA000F0612046FDF7CFF901212046FDF7CDF95F
:103CB00008212846FDF7C9F910212846FDF7C3F968
:103CC00020212846FDF7BFF938BD00B595B0022088
:103CD000009000200521CDE90101039004904FF0F0
:103CE0008051CDE905010821CDE908011021CDE978
:103CF0000A1009020790CDE90E010C900D9010906A
:103D000011901290CDF84CD0CDF850D007A8FCF708
:103D1000DCFE01210020FDF701F801210802FDF77A
:103D200004FB15B000BD10B5FFF779FFFFF7CDFF1D
:103D3000B74C08212046FDF788F90A20FEF7D7FB8B
:103D400008212046FDF77FF96420FEF7D0FBE9212A
:103D50004FF0C04001802B2101802421018081216E
:103D60000180AC210180C5210180A3210180D121E6
:103D70000180D521018084210180C821018010218A
:103D80000180DA210180F421018025210180F621C2
:103D900001805A210180F521018000210180F72155
:103DA00001809F210180F822028089220280F12275
:103DB00002800180AD21018010BD30B5F4254FF0A7
:103DC000C04425800325B0FBF5F025302080F62087
:103DD0002080921CB2FBF5F025302080F520208059
:103DE0002180F7202080238030BD0322B0FBF2F039
:103DF00001F00F0242F0600325304FF0C042C0B224
:103E00001380702343EA1111118000F00F0111801B
:103E1000102141EA101010807047F0B59F23002157
:103E20001A460846FFF7C9FF00210846FFF7DDFFE5
:103E3000794F764C002303EB8300002207EB8005CB
:103E4000A85C0021060600D5F021460601D541F008
:103E50000F0121800021860600D5F021C60601D57C
:103E600041F00F0121800021060700D5F02146070F
:103E700001D541F00F0121800021860700D5F021F6
:103E8000C00701D041F00F012180521CD2B2142A88
:103E9000D6D3002020805B1CDBB2A02BCBD3F0BD9F
:103EA00010B45D4C002202EB8203002104EB83037B
:103EB0005854491CC9B21429FAD3521CD2B2A02AB0
:103EC000F1D310BCA9E730B50D460321B0FBF1F0EA
:103ED00000EB4000C4B229462046FFF786FF4E485B
:103EE00005EB850100EB81024C4B02EBD40004F0A2
:103EF00007010078595C084000D0F020641CE1B252
:103F000002EBD10401F0070524785D5D2C4202D05C
:103F100040F00F0001E000F0F0003C4C2080491C14
:103F2000C8B202EBD00100F007000978185C01422A
:103F300001D0F02000E00020208030BDF0B58446A4
:103F40001F46A02A01D8A02F01D90020F0BD921C45
:103F5000D6B20D460BE0644605E029462046FFF741
:103F6000B2FFE41CE4B2B442F7D36D1CEDB2BD4223
:103F7000F1D30120F0BD002092E770B5A02801D850
:103F8000A02901D9002070BD234B01EB8104234DF2
:103F900003EB840400F0070604EBD003002A1A7830
:103FA000AE5D01D0324300E0B2431A700322B0FB91
:103FB000F2F000EB4000C6B23046FFF716FF04EB0C
:103FC000D60006F007010078695C084000D0F020B8
:103FD000761CF1B204EBD10201F007031278EB5C1E
:103FE0001A4202D040F00F0001E000F0F000074A52
:103FF0001080491CC8B204EBD00100F0070009781A
:10400000285C01420CD0F0200BE0000000000260B0
:104010000014014000180140F6950020567A002057
:1040200000201080012070BD30B5A02801D8A02943
:1040300001D9002030BD164D00F0070301EB8101CE
:10404000144C05EB810101EBD000002A0178E25C01
:1040500001D0114300E091430170012030BDA02840
:1040600001D2A02901D300207047094B01EB810147
:1040700003EB810101EBD001064B00F0070009784A
:10408000185C084000D0012010700120704700002B
:10409000F6950020567A002010B500F0B9FA001D00
:1040A00010BD00008D1900000FB408491CB506AB07
:1040B0006A4679440090059800F031FD0020694679
:1040C00000F040FD1CBC5DF814FB00008F0A0000EE
:1040D00070B50446856900683026C10600D42026E4
:1040E000C00709D106E0D4E9012130469047206A93
:1040F000401C20626D1EF6D570BD70B50446856902
:104100000068C00709D006E0D4E9012120209047CB
:10411000206A401C20626D1EF6D570BD70B5054644
:104120000C46012A01D101200BE02868800600D549
:10413000EA69002000E0401C904202D2215C002984
:10414000F9D1A9692618091AA961296A01442846E2
:104150002962FFF7BDFF04E0D5E9012114F8010B46
:104160009047B442F8D32846FFF7C7FF70BD000060
:104170002DE9F0418046002610687529414614A5B6
:1041800011D0AFF30080002802DA404211A508E008
:10419000D8F800108A0701D50FA502E0490704D519
:1041A0000EA5012601E0AFF30080002408F12407EA
:1041B00004E000F04CFD30313955641C0028F8D182
:1041C00033462A4621464046BDE8F04100F026BA73
:1041D000000000002D0000002B0000002000000067
:1041E0002DE9F05F4FF0000B044689464FF0010ABD
:1041F000C0F820B02046E168884700287DD02528F7
:1042000002D0D4E9012185E0464F00267F442046B4
:10421000E16888472028054607DB312D05D278194B
:1042200010F8200C08B10643F1E7B00701D526F0DD
:104230000406C4F81CB00027C4F818B02A2D10D109
:10424000204659F8041B04EB87029161E168884716
:10425000012F054628D1E069002830DA26F0200633
:104260002DE0A5F1300052460A2801461AD2CAB103
:1042700004EB870092468046816108E0D8F8180078
:1042800000EB800005EB40003038C8F818002046ED
:10429000E168884705465046A5F130010A2901D258
:1042A0000028EBD1012F0AD02E2D08D12046E1683D
:1042B00088477F1C0546022F46F02006BEDBA0691A
:1042C000002803DA404246F00106A061F00701D061
:1042D00026F010068DB1A5F14100192802D820352D
:1042E00046F400664A462946204626604E46FCF7BC
:1042F00037F860B1012804D100E010E006F10409AC
:1043000078E7F61D26F0070000F1080972E7D4E906
:10431000012128469047206A401C20626AE7206AF3
:10432000BDE8F09F4E3800000FB400B58DB010A965
:10433000009002904FF0FF3001900020039007485A
:10434000049178440A90064878440F9904AA0B9087
:10435000684600F029FC0DB05DF814FB87080000EA
:104360009D0800002DE9FF5F4FF0FF3B91461D4681
:104370004FF000085F46D3E90146A96901987F1C08
:104380008847296A824688470028F6D11AF1010039
:1043900003D1584604B0BDE8F09F002E24F4C06459
:1043A00039DD60060FD55046BAF12B0F03D02D280A
:1043B00009D144F48064A96901987F1C8847761E5E
:1043C0008246002E27DDBAF1300F24D1A969761E6E
:1043D00001987F1C44F400748847002E824615DD46
:1043E000BAF1780F02D0BAF1580F0FD1B9F1000F1E
:1043F00002D0B9F1100F1ED1A969761E01987F1C59
:1044000024F4007488478246102008E0B9F1000FB8
:1044100011D1082003E0B9F1000F0CD10A20814628
:1044200009E0A96908FB0908761E01987F1C44F47D
:10443000007488478246002E05DD4946504600F04C
:104440009CFB0028EDDAE96901988847A00502D4B1
:104450006FF001009EE7E00723D1600612D56105E9
:10446000C8F1000000D4404629680A1D2A60096886
:10447000220501D5087014E0220701D5088010E05C
:1044800008600EE02868011D29600068210502D53A
:1044900080F8008005E02107414601D5018000E059
:1044A0000160384676E740EA010370B59B0729D1E1
:1044B0004FF00136042A25D308C810C9121F9D1BCE
:1044C0009D4315EAC61505D1A342F3D018BA21BA07
:1044D000401A70BDD8B2E1B2401A50EA0561F8D175
:1044E00098B2A1B2401A50EA0541F2D123F07F41BF
:1044F00024F07F40081A50EA0521EAD1180EA0EBFB
:10450000146070BD0AB9002070BD10F8013B11F8AD
:10451000014B63B1A3420AD1521E08D010F8013BEF
:1045200011F8014B1BB1A34201D1521EEDD1181B52
:1045300070BD10B5044610F0030F08BF11F0030F53
:1045400040F015804FF0013E121FC0F20E8051F86E
:10455000043BA3EB0E0C2CEA030C1CEACE1C08BF98
:1045600040F8043BF0D0A1F1040102F10402521E14
:1045700008DB11F8013B002B00F8013BF7D1114695
:1045800000F043FB204610BD4FF0013C50F8042BD7
:1045900051F8043B9A4221D1A2EB0C03934313EA56
:1045A000CC1317D150F8042B51F8043B9A4215D183
:1045B000A2EB0C03934313EACC130BD150F8042B5A
:1045C00051F8043B9A4209D1A2EB0C03934313EA3E
:1045D000CC13DBD04FF0000070470000D01A01BAB6
:1045E000B1FA81F101F0180122FA01F0CB40C1F1DA
:1045F0002001DBB2C0B2C01A2CFA01F3D11A9143E8
:1046000011EAC311E6D17047704770477047000048
:10461000014870477047000098A200202DE9F0473C
:104620000D4604469246994600F124080168880622
:1046300004D5E06921F01001216000E0012000278D
:10464000A84200DD471BA1697A1902EB0900081A8C
:10465000A0612068C00602D42046FFF739FD00267D
:1046600008E0D4E901211AF806009047206A401CAE
:10467000761C20624E45F4DB2068C0060AD5204631
:10468000FFF726FD06E0D4E9012130209047206A9B
:10469000401C2062381EA7F10107F4DC07E0D4E9D2
:1046A000012118F805009047206A401C2062281E4E
:1046B000A5F10105F3DC2046FFF71FFD216802206C
:1046C000090600D40120BDE8F08770472DE9FF4FAF
:1046D0000C4698468DB0D2E90010DDF868A0CDE90F
:1046E0000810C0F30A550DB94FF0FF3500210846F8
:1046F0004FF00000099900F44000002905DA00EBB2
:1047000080004FF4400101EA50004FEA905BBBF19A
:10471000010F01DD4FF0FF3BDDE9080150EA4100E8
:1047200016D1BAF1010F02D16FEA080207E0302179
:1047300001E02154401C4045FBDB404600220021A3
:1047400021540D99C1E9010A0A6011B0BDE8F08F4A
:10475000A5F2FF3544F610504543CBF100000B9015
:104760004FEA2549BAF1000F03D1A9EB08056D1CEA
:1047700001E0C8F100050B9A002D00DC5A462946DD
:1047800001DAC5F1000103A800F0BEFCDDE9081064
:1047900000F07FFDA0F500501F388DE8070003985A
:1047A000002D09DD42F21F015A46084403A9039077
:1047B000684600F0DFFF08E0A0F500505A461F38B9
:1047C00003A90390684600F0E9FF8DE807000004A4
:1047D000000C03D04FF0FF356E0801E00E46154681
:1047E000BAF1000F25D1474607E03146284600F0D0
:1047F0003BFA303205460E46E2557F1EF5D50023C2
:10480000012786EA030185EA03000843CDF81C80EE
:1048100003D0002709F1010005E02078302803D1FA
:104820000027A9F101008146002FCDF8189099D0FA
:1048300034E000200A9007460AE0112F0FDA3146D3
:10484000284600F011FA303205460E46E2557F1C2C
:10485000002386EA030185EA03000843EDD1002323
:1048600086EA030185EA0300084310D13846002197
:1048700004E0235C625C6354491C2254401E814264
:10488000F7DBA7EB0800401ECDE9060706E00A9813
:1048900020B94FF011084FF0000A63E7079A002093
:1048A000A0540D98C0F808A00799416006990160CE
:1048B0004BE72DE9F04F04468846D21D22F0070051
:1048C00091B0D0E90010CDE902100146029801F044
:1048D0009BF80399CA0F4FF02D0106D122682B21B6
:1048E000930702D4202101EAC20103288B4601D09C
:1048F000072806DB5B4602464146204600F002FAE6
:1049000005E12068800601D5E76900E0062711204F
:10491000B8F1650F1ED0B8F1660F29D0B8F1670F56
:1049200062D1012F00DA01270023112F009300DC50
:104930003846034602AA06A90EA8FFF7C7FE20685C
:104940003D460026000734D40F98A84200DA0546F9
:1049500006A827E00023112F009300DA781C0346F5
:1049600002AA06A90EA8FFF7B1FE00267D1C26E0CC
:1049700001234FF0004902AA06A90EA800933B4666
:10498000FFF7A4FEDDE90F50002610B90E99781C40
:104990000D18781B02D47D1CC0F1FF36A5EB070A69
:1049A00022E06D1E012D04DD411911F8011C302992
:1049B000F7D00E98B84202DA10F1040F03DA4FF084
:1049C000010A0E980FE0002802DC2D1A064404E0CC
:1049D000401CA84201DD0E9D6D1C0E98801B00F14D
:1049E000010A4FF0004081462068000703D4AA4521
:1049F00001DB4FF0FF3A0020B9F1004F0DF117072E
:104A00008DF8170024D04FF002082B20B9F1000FC9
:104A100001900BDA2D20C9F10009019006E048460B
:104A200000F015F93031814607F8011DB8F100009A
:104A3000A8F10108F3DCB9F1000FF0D1019807F8F3
:104A4000010D21684520090500D4652007F8010DF6
:104A500004A8C01B00F107085FEA0B0000D001208A
:104A6000411901EBEA7101EB0800A169081A401E27
:104A7000A0612068C00602D42046FFF729FBBBF1E5
:104A8000000F06D05846D4E901219047206A401C07
:104A900020622068C00625D52046FFF719FB21E0DB
:104AA000002E07DB0F98B04204DD06A8D4E90121EF
:104AB000805D02E0D4E9012130209047206A401C4B
:104AC0002062761CAAF101005FEA000A0AD1FFF712
:104AD0009FFDC0680168405CD4E901219047206ACD
:104AE000401C2062281EA5F10105D9DC07E0D4E9AD
:104AF000012117F8010B9047206A401C2062B8F191
:104B00000000A8F10108F2DC2046FFF7F6FA0220C7
:104B10001BE6000001694A1C02610878704710B565
:104B20000C46194690B0CDE9024200220692044A92
:104B30007A44CDE9042001A8FFF752FB10B010BD64
:104B4000E1FFFFFF0A6802F8010B0A60704710B529
:104B5000436913B1AFF3008001E0FFF7DFFA0120F2
:104B600010BD126800F124010A7000224A7001226F
:104B7000EDE711684FF0FF32E9E73A2800D230380C
:104B800020F02002412A01D3A2F137004FF0FF327A
:104B9000884200D202461046704700000268034671
:104BA00011441078196070470B461146D360054ACE
:104BB0007A444A61044A7A440A6200220A6100F097
:104BC000DFB80000E9FFFFFF3901000043683BB197
:104BD000026812F8011B19B15B1E0CC00846704731
:104BE0000121C160881E7047416859B1C3680268DD
:104BF00043B98368934205D0521E491CC0E9002185
:104C0000002070474FF0FF3070474FF0000204293A
:104C1000C0F0128010F0030C00F0E082CCF1040C24
:104C2000BCF1020F18BF00F8012BA8BF20F8022B1F
:104C3000A1EB0C0100F0D2BA5FEAC17C24BF00F8FE
:104C4000012B00F8012B48BF00F8012B70474FF0F3
:104C50000A01B0FBF1F202FB11011046704700009F
:104C60000048704778A2002030B5B0F10A024FEA40
:104C7000900E71F100034EEA817EB0EB0E0061EB05
:104C800091014FEA101E4EEA017E10EB0E0041EB3F
:104C900011114FEA102E4EEA016E10EB0E0041EB9F
:104CA00011214FEA104E4EEA014E10EB0E0041EB7F
:104CB0001141401841F100014FEAD00040EA417033
:104CC0004FEAD10110EB80054FEA810444EA907469
:104CD00044EB01046D1944EB0404521BA3414FF053
:104CE000000348BF0A3200D530BD401C41F100012D
:104CF00030BD10B50446FFF7CFF90068005D00F045
:104D0000010010BD2DE9F04104461F46032601684D
:104D1000072A01F4006003DB15A520B915A502E000
:104D200015A500B915A521F010002060A069C01ECE
:104D3000A0610FB1401EA0612046FFF7C9F90FB96D
:104D4000206A06E0D4E9012138469047206A401CD9
:104D50002062C01C206204E0D4E9012115F8010B97
:104D60009047761EF8D22046FFF7C7F9BDE8F081DC
:104D70004E414E006E616E00494E4600696E6600FF
:104D80002DE9F34F4FF000080C4646468FB0012046
:104D900082460DF1140B0D9001F10C000E9062692A
:104DA0000E980121904705006FD0252831D0284664
:104DB000216A8847C0B162690E9801219047216A33
:104DC00088470028F7D16269411E0E98904700E09D
:104DD000761CA1690F988847216A88470028F7D177
:104DE000E1690F988847DAE7A1690F988847A842D8
:104DF000074601D1761CD2E7E1690F9888477F1CEE
:104E000043D1B8F1000FFBD14FF0FF3011B0BDE836
:104E1000F08F62690E9800273D46394690472A2850
:104E200004D162690E98012190470125DFF8D492E0
:104E300009E04F4529DC07EB870100EB4107303FD4
:104E400023D445F0100562690E9801219047A0F126
:104E5000300152460A2901D2002AEAD1E90601D4DA
:104E60006FF000476C280BD162690E9801219047C2
:104E70006C2802D145F002051CE045F004051DE058
:104E80004C2803D145F0200514E0DBE068280BD165
:104E900062690E9801219047682802D145F40065A7
:104EA00008E045F0080509E06A28E3D0742801D03D
:104EB0007A2803D162690E9801219047C4E901570D
:104EC000652855D018DC582831D00CDC45284FD047
:104ED00004DC252838D0412892D149E0462847D023
:104EE00047288DD144E05B287FD0612840D06328DB
:104EF0007BD0642884D172E06F2858D00FDC6628FC
:104F000036D0672834D069283AD06E28E4D120689A
:104F1000011D2160006829053CD506703FE7702817
:104F20004FD0732861D0752859D07828D4D145F056
:104F300040006060A80749D5234610220F996FF002
:104F40000100AFF30080CAE0A1690F9888472528C7
:104F500005463FF44FAFE1690F9888476D1C3FF459
:104F600050AF6FE00A222346E8E70A2223462FE0EB
:104F70000F9923460CAA6FF00100AFF30080AEE05A
:104F800045F0400023464FF000026060A80700D5BE
:104F9000D4E71DE0290701D5068000E7A90704D55D
:104FA0004FEAE671C0E90061F9E60660F7E645F010
:104FB000400023464FF008026060A80700D5BDE717
:104FC00006E040F60E0125EA01006060234610224B
:104FD0000F996FF00100FFF7C5F980E005E045F09B
:104FE00040006060A807C0D5BCE74FF00009632807
:104FF0004F464946CDF81090CDF80C9006D1E80602
:1050000001D4C4F808A00120049043E05B2841D1FA
:1050100062690E98012190475E2805D14FF0010981
:10502000494662690E989047216939B900225B466A
:1050300043F82120491C0829FADB02E0E168891EB7
:10504000039108B94046E1E6216971B9C11700EB47
:10505000D1635A1123F01F030BEB8201C31A0A68B4
:105060000AFA03F002430A6000E07F1C62690E98AE
:10507000012190475D28E4D1B9F1000F09D05946CC
:10508000002051F82020D24341F82020401C08285D
:10509000F7DB05A92069002860684FEA40700ED14F
:1050A0002246049B00286FF0010000930B460F99E5
:1050B00002DAAFF3008012E0AFF300800FE0049B50
:1050C0002246CDE900790293039B0F9900286FF0E7
:1050D000010002DAAFF3008001E0AFF300800028A6
:1050E00008DA4FF0FF31401C01D10D9800B941465C
:1050F00008468BE6E90701D108F1010806440020C3
:105100000D904CE6CCCCCC0C2DE9F04717468146EF
:105110008AB0304A7A4407A838CA01F5DC511B31FD
:1051200038C038CA04A8372238C091FBF2F0A0F189
:10513000800502FB10141B3C02D56442012000E0F4
:105140000020DFF890A080460026FA44AAF1B20AB7
:105150000DE0E00709D03A4606EB46000AEB800175
:1051600007A800F01BFB07AB07C36410761C002CDC
:10517000EFD1DFF860A001AEFA44AAF1A40A16E06C
:10518000E80712D00AEB041090E80E0086E80E0043
:10519000C068F84202D10398384403903A4601A906
:1051A00004A800F0FBFA04AB07C36D10641C002DCB
:1051B000E6D13A46B8F1000F07A904A802D000F0E2
:1051C000D9FA01E000F0EAFAA9E807000AB0BDE860
:1051D000F0870000D42900004FF0000200B513460C
:1051E00094469646203922BFA0E80C50A0E80C5007
:1051F000B1F12001BFF4F7AF090728BFA0E80C50B8
:1052000048BF0CC05DF804EB890028BF40F8042BB0
:1052100008BF704748BF20F8022B11F0804F18BF1D
:1052200000F8012B70477546FFF71AFDAE460500E2
:105230006946534620F00700854618B020B5FBF7B5
:105240005FF9BDE820404FF000064FF000074FF037
:1052500000084FF0000B21F00701AC46ACE8C00994
:10526000ACE8C009ACE8C009ACE8C0098D4670479D
:105270000446AFF300802046FBF79DF803494FF04A
:105280001800ABBE704700000900000026000200B5
:1052900070475FEA400C08BF91F0000F4FEA8C2383
:1052A0004FEAC12243EA51514FEA1C5018BF00F5A2
:1052B000F0404FEA300018BF41F000415FEA6C5CFB
:1052C00000F02980BCF1FF3F08BF40F080407047EC
:1052D000130C06BF12044FF0100C4FF0000C130E0D
:1052E00004BF12020CF1080C130F04BF12010CF1E1
:1052F000040C930F04BF92000CF1020CD30F04BFF7
:1053000052000CF1010C11464FF00002A0F11F00F9
:10531000A0EB0C00704711F0004F08BF704731F050
:1053200000413FF4D5AF0B0C06BF09044FF0100C41
:105330004FF0000C0B0E04BF09020CF1080C0B0F10
:1053400004BF09010CF1040C8B0F04BF89000CF1A0
:10535000020CCB0F04BF49000CF1010CCCF120036F
:10536000A0EB0C0022FA03F302FA0CF241EA03016B
:1053700000F10100704720F07F4C80EA030023F029
:105380007F47ACEB070303F57C5300F0004003F1CB
:10539000FF032DE980494FEA154B09B44FEA144346
:1053A00025EA0B4E24EA03480FF2042606EB1327E6
:1053B00049083E785FEA320203FB0667C7F500073B
:1053C00007FB06F64FEA54374FEAD64606F10206C7
:1053D00007FB066CCCF1005C4FEA1C472CEA074C3B
:1053E00007FB06F40CFB06F504EB15464FEA961690
:1053F00034BF00204FF000404FEAD13706FB07FCD6
:105400004FEA1C4C0CFB0BF7D21B03FB0CF761EBB8
:1054100007010CFB0EF7B0EB074072EB17420CFBD9
:1054200008F734BFA2EB0742B2EB074261EB17412A
:105430004FEA0C444FEA910706FB07FC4FEA1C4C6D
:105440000CFB0BF7B0EBC74072EB573203FB0CF7CA
:1054500034BFA2EBC742B2EBC74261EB57310CFB42
:105460000EF7B0EBC70072EB57720CFB08F734BFB6
:10547000A2EBC702B2EBC70261EB5771039F4FEA81
:10548000816141EA921104EBCC044FEAD1374FEA33
:10549000826206FB07FC42EA90124FEA80604FEA04
:1054A0001C4C0CFB0BF7D21B03FB0CF761EB070149
:1054B0000CFB0EF7B0EB074072EB17420CFB08F742
:1054C00034BFA2EB0742B2EB074261EB17414FEA50
:1054D0008C554FEA910704EB9C2406FB07FC4FEA2E
:1054E0001C4C0CFB0BF7B0EBC74072EB573203FBC5
:1054F0000CF734BFA2EBC742B2EBC74261EB5731A6
:105500000CFB0EF7B0EBC70072EB57720CFB08F701
:1055100034BFA2EBC702B2EBC70261EB577115EBC8
:105520004C254FEA816141EA92114FEA82624FEACB
:10553000D13742EA901206FB07FC44F100044FEA1F
:1055400080604FEA1C4C0CFB0BF7D21B03FB0CF7E3
:1055500061EB07010CFB0EF7B0EB074072EB174253
:105560000CFB08F734BFA2EB0742B2EB074261EB3A
:10557000174115EB1C154FEA813141EA92414FEA80
:10558000823242EA90424FEA80304FEA0C7644F190
:10559000000448EA03434EEA0B484FF0000EB2EB1A
:1055A000080C71EB030724BF624639464EEB0E0E22
:1055B0004FF0000B0018524149414BEB0B0BB2EB83
:1055C000080C71EB03077BF1000B24BF62463946E0
:1055D0004EEB0E0E4FF0000B0018524149414BEBC1
:1055E0000B0BB2EB080C71EB03077BF1000B24BF34
:1055F000624639464EEB0E0E51EA020718BF46F0DE
:10560000010616EB0E7655F1000254F1000103D5A8
:10561000BDE88901BDE80088BDE88901BDE8004812
:10562000B619524141EB0101A3F10103704780809B
:105630007F7E7D7C7B7A79787776767574737271EC
:1056400071706F6E6E6D6C6C6B6A6A6968686766A4
:1056500066656464636362616160605F5F5E5E5D36
:105660005D5C5C5B5B5A5A595958585757565655AA
:1056700055555454535352525251515050504F4F0C
:105680004F4E4E4D4D4D4C4C4C4B4B4B4A4A4A495C
:10569000494948484847474747464646454545449F
:1056A0004444444343434342424242414141002B2C
:1056B00026D4770021D01CB54FEA370703B44FF04A
:1056C00010004FF010014FF000000FBCBDE810407B
:1056D0000BF1010BBBF1010F08BF5FEA170722BFF7
:1056E00012F1010211F101014FF0004143F10003F9
:1056F00000F0004043EA00007047F9D35708DAE7AA
:1057000046EA064613F1400F4FEA16461FDD13F135
:10571000200FDFBF16430A46002120335B42C8D06A
:10572000C3F1200746EA064602FA07F74FEA164693
:1057300046EA0706C3F1200722FA03F201FA07F747
:1057400021FA03F14FF0000342EA0702B1E746EA0B
:10575000020646EA06464FEA164646EA0106BCBF7E
:1057600046EA0646360C4FF000034FF000024FF0B9
:1057700000019EE72DE9C048934630B491E8380017
:1057800007C831EA400C48BF34EA430C03D5FFF7A1
:10579000F2FDFFF78CFFF0BCBDE800882DE9C048A2
:1057A000934630B491E8380007C810F0804F08BF26
:1057B00013F0804F03D100F005F8FFF778FFF0BC3D
:1057C000BDE8008820F07F4780EA030023F07F4C8B
:1057D00007EB0C03A3F57C5300F00040A3F1FE039C
:1057E00092F0000F00F0B38095F0000F00F077808A
:1057F0002DE901494FEA11404FEA144621EA0048D9
:1058000000FB06FC24EA064708FB06F607FB08F83F
:1058100000FB07F718EB06484CEB164C4FEA124B0F
:1058200018EB07484FEA15464CEB174022EA0B4E9F
:105830000BFB06FC25EA06470EFB06F607FB0EFEF1
:105840000BFB07F71EEB064E4CEB164C4FF0000619
:105850001EEB074E4CEB174B18EB0B0840F100000A
:1058600018EB0E0B58EB000840F100008F1A4FF0B8
:1058700000013CBFC943661B14BFB5EB040C0021FB
:105880003CBFC943F61B4FEA17444EEA8E0E27EA87
:1058900004454FEA1C4704FB07622CEA074C05FB52
:1058A00007F70CFB05F604FB0CFC16EB074642EB76
:1058B000174216EB0C4642EB1C421BEB060658EB5C
:1058C0000202414146EA9E0601D5BDE80189B619AA
:1058D000524141EB0101A3F10103BDE801894FEA07
:1058E00014454FEA114724EA054621EA074C05FB17
:1058F00007F406FB07F70CFB06F105FB0CFC11EBAC
:10590000074144EB17444FEA124711EB0C4144EBBB
:105910001C4422EA074C05FB07F206FB07F70CFBC9
:1059200006F605FB0CFC16EB074642EB174216EB9E
:105930000C4642EB1C456A1854F1000148BF704701
:10594000B619524141EB0101A3F10103704795F0F3
:10595000000F37D04FEA11424FEA144721EA0246BE
:1059600024EA074C02FB07F106FB07F70CFB06F4E1
:1059700002FB0CFC14EB074441EB17414FEA1547BF
:1059800014EB0C4441EB1C4125EA074C02FB07F5E4
:1059900006FB07F70CFB06F602FB0CFC16EB0746B2
:1059A00045EB174516EB0C4645EB1C42121951F11D
:1059B000000148BF7047B619524141EB0101A3F104
:1059C000010370474FEA14454FEA114724EA0546A0
:1059D00021EA074C05FB07F106FB07F70CFB06F273
:1059E0004FF0000605FB0CFC12EB074241EB1741A0
:1059F00012EB0C4251EB1C4148BF7047921841EB2F
:105A00000101A3F101037047490050EAC12000D011
:105A100004204A0D01D040F0010040F2FF72B2EBC9
:105A2000515F01D140F00200012800D105207047EC
:105A300010B500290AD00878002807D00548784416
:105A4000FEF7A2FD002801D0002010BD02487844D6
:105A500010BD0000E6200000DE20000010B5002987
:105A60000AD00878002807D005487844FEF78CFD56
:105A7000002801D0002010BD0248784410BD00006D
:105A8000CA210000C221000001F0004321F00041C2
:105A900081EA410212F0FE4F08BF12F4600F00F0DD
:105AA0002880A1F16051B1F5801F1BDB02014FF08E
:105AB000404C09D803D208BF4FF0000C0AE000F0B8
:105AC00000521CEB820C05D410F100504FF0804CBA
:105AD00041F10001B1F17F6F06DA43EAC10343EA05
:105AE00050707047184670474FF0FF0243EAC250AB
:105AF000704711F4801F01D118467047DFF818C0B5
:105B000041EA030150EA013240F0EC80AFF300803B
:105B100021F4E000704700008800000410B591EA0D
:105B2000030F48BF83F0004300F16684841A71EBD1
:105B3000030E05D2121943EB0E03001B61EB0E019D
:105B4000DFF880C14FEA1154A4EB135E1CEA430F47
:105B500018BF9CEA445F7DD023EA0C0321EA04517C
:105B600043F48013DEF1200C38D322FA0EFC10EB44
:105B70000C0023FA0EFC41EB0C01CEF1200C03FAD1
:105B80000CFC10EB0C0051F10001B1F5801FCEF1BF
:105B9000200C38D201EB0451BDE8104012FA0CF28F
:105BA00058BF7047401C38BF5FEA420218BF7047B9
:105BB000002814BF20F0010041F100014FEA410329
:105BC00013F5001F38BF704728BFB1F1C0413E49EF
:105BD0004FF0000048BF41F000417047012A43EBFD
:105BE0000302AEF1200EDEF11F0C32BF4FF0000CAD
:105BF00023FA0EF310EB030041EB0451B4EB115FF9
:105C0000CAD0A1EB045101F58011490801EB045100
:105C1000BDE810405FEA30000CD350F1000038BFFF
:105C200012FA0CFC06D1C3E7401C38BF5FEA4202FF
:105C3000C4D1BDE74FEA410313F5001F38BF7047D9
:105C400028BFB1F1C04120494FF0000048BF41F0EA
:105C5000004170479CEA445F08D0BDE8104011EA5B
:105C60005C0F04BF01F0004100207047012841EBA8
:105C70000104012A43EB030E644598BFE645DFF8B3
:105C80004CC0BDE8104000F22580AFF30080012831
:105C900041EB0100012A43EB0302904208D010F5CA
:105CA000001F04BF0020704719464FF000007047E6
:105CB00091EA030F4FF0000058BF704704494FF0BE
:105CC000000070470000E0FF0000F07F11000004BA
:105CD0000000F87F02494FF0000000F0B0BF000064
