:020000040800F2
:100000009808002085060008690500086B050008AF
:100010006F05000873050008770500080000000060
:100020000000000000000000000000007D05000846
:100030007B050008000000007F050008810500081E
:10004000890500088B0500088D0500088F0500084C
:10005000910500089305000895050008970500081C
:10006000990500089B0500089D0500089F050008EC
:10007000A1050008A3050008A5050008A7050008BC
:10008000A9050008AB050008AD050008AF0500088C
:10009000B1050008B3050008B5050008B70500085C
:1000A000B9050008BB050008BD050008BF0500082C
:1000B000C1050008C3050008C5050008C7050008FC
:1000C000C9050008CB050008CD050008CF050008CC
:1000D000D1050008D3050008DB050008DD05000890
:1000E000DF050008E1050008E3050008E505000854
:1000F000E7050008E9050008EB050008ED05000824
:10010000EF050008F1050008F3050008F5050008F3
:10011000F7050008F9050008FB050008FD050008C3
:10012000FF05000801060008030600080506000890
:1001300000F002F800F03CF80AA090E8000C8244BD
:100140008344AAF10107DA4501D100F031F8AFF29A
:10015000090EBAE80F0013F0010F18BFFB1A43F0A5
:1001600001031847141D0000341D0000103A24BF7D
:1001700078C878C1FAD8520724BF30C830C144BF0C
:1001800004680C607047000000230024002500264E
:10019000103A28BF78C1FBD8520728BF30C148BFEA
:1001A0000B6070471FB5AFF300801FBD10B510BDC9
:1001B00001F01DFE1146FFF7F5FF00F090F901F088
:1001C0003BFEFFF7F3FF01F041FE000010B50446CF
:1001D000012001F007FCDB48046000BFD94800683B
:1001E0000028FBD1801E01F0FDFB002001F0FAFB8E
:1001F00010BD70B504460122D102D34800F0FFFDC6
:100200000120FFF7E3FF00224FF40061CE4800F029
:10021000F6FD00BF4FF48051CB4800F0D2FD01281D
:10022000F8D044F02001C94801F022FB00BF4FF490
:100230008051C54800F0C5FD0028F8D00021C34812
:1002400001F016FBC14801F015FB0646BF4801F05E
:1002500011FB054645EA0620611EBD4A22F8110041
:1002600070BD10B501221146B74800F0C8FD01224B
:100270000221B54800F0C3FD10BD10B500220121D8
:10028000B14800F0BCFD00220221AF4800F0B7FDEC
:1002900010BD10B500221021AB4800F0B0FD0120C8
:1002A000FFF794FF10BD10B501221021A64800F001
:1002B000A6FD0120FFF78AFF10BD70B52021A548DB
:1002C00001F051FD012808D1A24801F0F9FCC4B2A7
:1002D000254629469F4801F0EFFC70BD08B5C1B224
:1002E0008DF8001001128DF8011000BF994909889E
:1002F00011F0800FFAD09DF80110964A121D11805E
:1003000000BF9449098811F0800FFAD09DF80010C1
:10031000904A121D118008BD8A48006820B18948A2
:100320000068401E87490860704710B54FF41640BA
:100330008949086000208880C880088188810C2055
:100340004881844801F0E1FB012240F225518148B7
:1003500001F054FC01217F4801F044FC10BD10B5B0
:1003600000207E4908804FF48270488000208880F9
:10037000C88008814FF400704881302088810020B7
:10038000C88107200882714801F0A4F901216F4853
:1003900001F082FA01216D4801F034FA10BD10B568
:1003A0006FF0040001F006FB002201216C4800F010
:1003B000E0FE42F2283001F011FB012001F02DFB9C
:1003C00010BD08B54FF43C70ADF8000003208DF867
:1003D000020018208DF8030069465B4800F064FCB9
:1003E0004FF4A050ADF8000003208DF80200042067
:1003F0008DF803006946544800F056FC40F60300AF
:10040000ADF8000003208DF8020010208DF80300E5
:1004100069464D4800F048FC08BD08B500214FF082
:10042000006000F066FE4FF4C06000F0AAFD2520D9
:100430008DF8000001208DF801008DF802008DF884
:100440000300684600F0A3FD08BD10B500F046FFAC
:100450004FF4803000F061FF00F09EFF41490870CA
:1004600008460078012826D1102000F033F9022038
:1004700000F01AF9002000F0D5FF4FF4806000F082
:10048000D9FF002000F0DEFF4FF4E0114FF4803080
:1004900000F0ADFF012000F0B5FF00BF392000F0F3
:1004A0005FFF0028FAD0022000F0AFFF00BF00F08D
:1004B000B4FF0828FBD1012145F2050001F07AF8CC
:1004C00010BD10B5FFF7C1FFFFF7A7FFFFF779FFDA
:1004D000FFF765FFFFF729FFFFF741FF10BD10B5DC
:1004E000FFF7EFFFFFF7D5FE2BE00120FFF781FEBE
:1004F0000220FFF77EFE0320FFF77BFE0020FFF7C0
:10050000EDFE13490888FFF7E9FE11494888FFF717
:10051000E5FE0F498888FFF7E1FE47F67F70FFF799
:10052000DDFE6420FFF752FE01221146064800F06E
:1005300066FCC820FFF74AFE00220121024800F0B5
:100540005EFCD2E7000000200008014000300140BE
:100550000400002000380140140000202400002086
:100560009AC302000A000020704700BFFEE700BFE8
:10057000FEE700BFFEE700BFFEE770477047704729
:1005800010B5FFF7C9FE10BD704770477047704740
:1005900070477047704770477047704770477047A3
:1005A0007047704770477047704770477047704793
:1005B0007047704770477047704770477047704783
:1005C0007047704770477047704770477047704773
:1005D000704710B5FFF771FE10BD70477047704748
:1005E0007047704770477047704770477047704753
:1005F0007047704770477047704770477047704743
:10060000704770477047000030BF704720BF704789
:1006100040BF7047BFF36F8F7047BFF34F8F704776
:10062000BFF35F8F704701DF7047EFF314807047AF
:1006300080F31488BFF36F8F7047EFF30980704722
:1006400080F309887047EFF30880704780F30888CB
:10065000704762B6704772B67047EFF3108070470C
:1006600071B6704761B67047EFF31380704780F33F
:1006700011887047EFF31280704740BA704700BA94
:10068000704700000348004703480449044A054BEB
:1006900070470000310100089800002098080020F1
:1006A0009804002098040020FC49096801F03801F2
:1006B000FA4A116011460968014311607047F74911
:1006C000096821F00801F54A1160114609680143E3
:1006D00011607047F149096821F01001EF4A11607B
:1006E00011460968014311607047ED48EB494860C5
:1006F000EC4848607047E948006940F08000E749ED
:10070000086170470420E549C96801F00101012929
:1007100001D101200EE0E149C96811F0040F01D0B8
:10072000022007E0DD49C96811F0100F01D0032055
:1007300000E0042070470020FF2000E0401E002859
:10074000FCD1704770B504460425FFF7DBFF054672
:1007500005E0FFF7F0FFFFF7D5FF0546641E012D0A
:1007600001D1002CF5D104B90525284670BD70B51E
:100770000446042540F6FF70FFF7E4FF0546042D0C
:1007800019D1C648006940F00200C4490861084612
:100790004461006940F04000086140F6FF70FFF7D7
:1007A000D1FF0546012D06D0BC48006941F6FD7118
:1007B0000840BA490861284670BD10B5042440F6C7
:1007C000FF70FFF7BFFF0446042C18D1B34800693F
:1007D00040F00400B14908610846006940F040005B
:1007E000086140F6FF70FFF7ADFF0446012C06D00C
:1007F000AA48006941F6FB710840A84908612046F3
:1008000010BD10B5042440F6FF70FFF79BFF0446AF
:10081000042C3BD1A248A1498860A24888600846C0
:10082000006940F0200008610846006940F040007F
:10083000086140F6FF70FFF785FF0446042C1CD1C9
:100840009648006941F6DF710840944908610846FE
:10085000006940F010000861A520934908800F202E
:10086000FFF770FF0446012C10D08C48006941F658
:10087000EF7108408949086108E0012C06D08748DB
:10088000006941F6EF71084084490861204610BDB7
:1008900070B504460D4604260F20FFF753FF0646A9
:1008A000042E25D17D48006940F001007B49086194
:1008B00025800F20FFF746FF0646042E0FD1280C97
:1008C00060800F20FFF73EFF0646012E10D07348D0
:1008D000006941F6FE7108407049086108E0012E88
:1008E00006D06E48006941F6FE7108406B49086108
:1008F000304670BD70B504460D4604260F20FFF744
:1009000021FF0646042E13D16448006940F001001F
:100910006249086125800F20FFF714FF0646012E6B
:1009200006D05E48006941F6FE7108405B490861E7
:10093000304670BD70B504460D4604260F20FFF703
:1009400001FF0646042E17D1554854498860554882
:1009500088600846006940F01000086125800F207B
:10096000FFF7F0FE0646012E06D04C48006941F61E
:10097000EF71084049490861304670BD2DE9F047E4
:1009800004464FF6FF752E462F46A8464FF0040941
:10099000E443E5B2C4F30726C4F307474FEA1468FB
:1009A0000F20FFF7CFFE8146B9F1040F41D13C483B
:1009B0003A4988603B4888600846006940F010006A
:1009C0000861FF2D06D03848083005800F20FFF75A
:1009D000B9FE8146B9F1040F08D1FF2E06D0324886
:1009E0000A3006800F20FFF7ADFE8146B9F1040FF3
:1009F00008D1FF2F06D02C480C3007800F20FFF7BE
:100A0000A1FE8146B9F1040F09D1B8F1FF0F06D05C
:100A10002648A0F80E880F20FFF794FE8146B9F112
:100A2000010F06D01D48006941F6EF7108401B49CF
:100A300008614846BDE8F08770B50446042540F6D5
:100A4000FF70FFF77FFE0546042D4CD11448134973
:100A50008860144888600846006940F020000861FA
:100A60000846006940F04000086140F6FF70FFF75B
:100A700069FE0546042D2DD10848006941F6DF7155
:100A80000840064908610846006940F01000086106
:100A900074B10020044908800DE0000000200240ED
:100AA00023016745AB89EFCD00F8FF1F00F0FF1F62
:100AB000A5204549088040F6FF70FFF743FE054634
:100AC000012D10D04148006941F6EF7108403F49BF
:100AD000086108E0012D06D03C48006941F6DF714D
:100AE00008403A490861284670BD2DE9F0410446A6
:100AF0000D461646042736483449886035488860D4
:100B00000F20FFF71FFE0746042F1AD12F48006958
:100B100040F010002D49086144EA0500304340F0E0
:100B2000F8002949891C08800F20FFF70BFE0746B3
:100B3000012F06D02548006941F6EF71084023498E
:100B400008613846BDE8F0812048C06980087047D8
:100B50001E48006A704700201C49C96911F0020F45
:100B600001D0012000E000207047002017490968EB
:100B700011F0200F01D0012000E00020704729B1C2
:100B8000124A12690243114B1A6104E00F4A1269BA
:100B900082430E4B1A61704701460020012908D19B
:100BA0000A4AD26912F0010F01D0012008E00020AA
:100BB00006E0064AD2680A4201D0012000E0002087
:100BC00070470249C860704700F8FF1F00200240CC
:100BD00023016745AB89EFCD10B50446C049601AC3
:100BE0008C422FD009DCBF48201810D0B0F5806FA0
:100BF00016D0B0F5006F4AD11BE0B0F5806F2AD057
:100C0000B0F5006F30D0B0F5406F40D135E0012134
:100C1000042000F0E9FC0021042000F0E5FC37E0AE
:100C20000121082000F0E0FC0021082000F0DCFC9D
:100C30002EE00121102000F0D7FC0021102000F050
:100C4000D3FC25E00121202000F0CEFC0021202053
:100C500000F0CAFC1CE00121402000F0C5FC00218E
:100C6000402000F0C1FC13E00121802000F0BCFC1A
:100C70000021802000F0B8FC0AE00121080200F009
:100C8000B3FC00214FF4807000F0AEFC00E000BF28
:100C900000BF10BD10B50121084600F0A5FC0021E1
:100CA000012000F0A1FC10BDF0B5002200230024BB
:100CB00000250026002791F803C00CF00F0291F8E0
:100CC00003C01CF0100F03D091F802C04CEA0202DE
:100CD000B1F800C01CF0FF0F30D0066800242AE0F5
:100CE0004FF0010C0CFA04F5B1F800C00CEA050352
:100CF000AB421FD1A5004FF00F0C0CFA05F7BE4315
:100D000002FA05FC4CEA060691F803C0BCF1280F74
:100D100005D14FF0010C0CFA04FCC0F814C091F896
:100D200003C0BCF1480F05D14FF0010C0CFA04FCD4
:100D3000C0F810C0641C082CD2D30660B1F800C003
:100D4000BCF1FF0F34DD466800242EE004F1080CEE
:100D50004FF0010E0EFA0CF5B1F800C00CEA0503D5
:100D6000AB4221D1A5004FF00F0C0CFA05F7BE43A2
:100D700002FA05FC4CEA060691F803C0BCF1280F04
:100D800005D104F1080C0EFA0CFEC0F814E091F83D
:100D900003C0BCF1480F07D104F1080C4FF0010E5D
:100DA0000EFA0CFEC0F810E0641C082CCED346608E
:100DB000F0BD4FF6FF710180022181700421C170E6
:100DC00070470246002093680B4201D0012000E0EA
:100DD000002070470146886880B2704702460020B4
:100DE000D3680B4201D0012000E00020704701468B
:100DF000C86880B2704701617047416170470AB1AD
:100E0000016100E041617047C16070474FF480327A
:100E10000A4382618161826182698269704700222E
:100E2000314B1A684FF680731A4042EA00120A43A7
:100E30002D4B1A6070472D49C8617047F0B50022EC
:100E4000002300250024284E7568C0F3034482B2B5
:100E500000F44016B6F5401F08D125F07065224E0B
:100E6000766826F07066204F7E6012E000F48016EF
:100E7000B6F5801F06D1032606FA04F39D4345F01C
:100E8000706506E0460D360102FA06F6B54345F0F8
:100E9000706521B1460D360102FA06F63543124E51
:100EA0007560F0BD30B500228B071C0F0F2303FACD
:100EB00004F20D4B08338C1053F8244094438D10EA
:100EC00043F825408C1053F824308C07240F00FA87
:100ED00004F42343044C08348D1044F8253030BD0D
:100EE0000014014000F8FEBF000001400000204255
:100EF0000020411EF24A11600A09F1498039C1F807
:100F00008420411E4FF0E022C2F880120A09ED4908
:100F10000A6000BF04E00022EB4941F82020401C99
:100F20000F28F8D3704700204FF02061E74A116086
:100F300000214FF0E022C2F8081DE549E34A0832DB
:100F400011600021121D1160121D116000BF05E02B
:100F50000022DE49143141F82020401C0328F7D339
:100F60000021DA4A20321160491E4FF0E022C2F817
:100F7000281DD64A283211604FF0E022C2F8301DF9
:100F80007047D3490143D14A083211607047F0B528
:100F900000210022002300240F25C678002E36D021
:100FA000CA4E0836366806F4E066C6F5E066310AD1
:100FB000C1F10404CD40467806FA04F186782E404B
:100FC000314309010678B607F60EB140BE4E0778E8
:100FD000BF1056F827200678B607F70EFF2606FA48
:100FE00007F39A4319400A43B74E0778BF1046F8F3
:100FF0002720067806F01F070126BE4007787F11DC
:101000004FF0E02C0CEB8707C7F800610BE0067887
:1010100006F01F060127B740A94E90F800C04FEA1E
:101020006C1C46F82C70F0BD00210170417081707D
:10103000C170704710B5FFF70EFB10BD10B5FFF77C
:1010400008FB10BD10B5FFF70BFB10BD10B5FFF787
:1010500009FB10BD10B504462001FFF708FB10BDC9
:1010600010B5FFF707FB10BD98480068C0F30930C2
:10107000704710B501460020002201F01F04012333
:1010800003FA04F28E4B80334C1153F82430134092
:10109000934201D1012000E0002010BD8D4908607D
:1010A000704700F01F0101228A408649091F431141
:1010B00041F82320704785480068C0F30900704755
:1010C00010B501460020002201F01F04012303FA9D
:1010D00004F27C4B7C334C1153F824301340934280
:1010E00001D1012000E0002010BD7848001F0068F9
:1010F0007047794A0A400243744B1B1D1A607047BF
:101100007348001D71490831086070477048401CE1
:101110006E4908310860704741B16C4A0C32126860
:1011200002434FF0E023C3F8102D07E0674A0C326A
:10113000126882434FF0E023C3F8102D704710B5BA
:10114000002200F01F04012303FA04F241B15F4BB7
:1011500020331B6813434FF0E024C4F8243D07E01C
:101160005A4B20331B6893434FF0E024C4F8243DCE
:1011700010BDF0B50023FF2400250026534F08378B
:101180003F6807F4E067C7F5E0673E0AC6F104036D
:10119000F44001FA03F602EA04073E43360100F088
:1011A000C0039B09C0F30124E700BE404FEAC40C12
:1011B000FF2707FA0CF5454F143757F823C02CEAE0
:1011C000050C47F823C057F823C04CEA060C47F833
:1011D00023C0F0BD10B501460020002200238B0A79
:1011E00003F00F03012404FA03F3384C203424687D
:1011F00004EA03029A4201D1012000E0002010BD60
:10120000002100F01F01314A136801228A40134374
:101210004FF0E022C2F8043D704710B5002100F005
:101220001F012A4A13684C1E0122A24013434FF0AB
:10123000E022C2F8043D10BD10B501460020002395
:101240000022C1F38332012404FA02F21F4C20343D
:10125000246804EA0203934201D1012000E0002047
:1012600010BD30B50146002000220023C1F38142A9
:10127000C1F301531AB9154C2834206811E0012A32
:101280000CD1124C24342468DD0024FA05F0022B22
:1012900002D000F00F0004E0C0B202E00B4C2C348E
:1012A000206830BD014600200022C1F380521AB9E7
:1012B000064B3033186802E0044B3433186870472B
:1012C00080E100E084E200E000E400E004ED00E002
:1012D0000000FA0500EF00E080FFFF1FDE48006815
:1012E00040F00100DC49086008464068DB490840DE
:1012F000D949486008460068D9490840D64908607D
:101300000846006820F4802008600846406820F401
:10131000FE004860002088607047CF49096821F4CA
:101320008031CD4A11601146096821F48021116095
:10133000B0F5803F03D0B0F5802F0ED106E0C6494E
:10134000096841F48031C44A116007E0C249096864
:1013500041F4A021C04A116000E000BF00BF704707
:1013600010B501460022002300204A11012A02D1B3
:10137000B94C236806E0022A02D1B74C236A01E087
:10138000B54C636A01F01F02012494401C4201D055
:10139000012000E0002010BD10B5002400BF312066
:1013A000FFF7DEFFAF490870081F0068401C091FE7
:1013B0000860081D007828B908460068A0F580710B
:1013C000FF39ECD13120FFF7CBFF08B1012400E059
:1013D0000024204610BD00219F4A116821F0F80129
:1013E00041EAC001116070479F49086070470022C0
:1013F000994B5A6822F47C1240EA01031A43964B37
:101400005A6070479849086670470021924A5168AF
:1014100021F003010143516070478F48406800F09C
:101420000C00704700218C4A516821F0F001014303
:10143000516070470021884A516821F4E0610143FE
:10144000516070470021844A516821F4605141EA9B
:10145000C0015160704729B17F4A527A02437E4BE6
:101460005A7206E07C4A527AC343DBB21A407A4B86
:101470005A7270477C49D831086070470021764A1B
:10148000516821F440410143516070470021724A84
:1014900020321170704A82F82010012802D00428EE
:1014A0000AD104E001216C4A2032117005E00521C7
:1014B000694A2032117000E000BF00BF70476B49DD
:1014C000086070476449096A0143634A11627047C2
:1014D000664944390860704730B500210022002376
:1014E00000245D4D6D6805F00C0121B1042905D083
:1014F000082923D105E05E4D056022E05C4D0560C2
:101500001FE0554D6D6805F47012022505EB9242FF
:10151000514D6D6805F480331BB9564D5543056038
:101520000BE04D4D6D6815F4003F03D0514D554310
:10153000056002E04E4D5543056002E04C4D0560EC
:1015400000BF00BF444D6D6805F0F00109094A4D28
:101550006C5C0568E54045603F4D6D6805F4E061F1
:10156000090A454D6C5C4568E54085603A4D6D68FB
:1015700005F46051C90A404D6C5C4568E540C560A2
:10158000354D6D6805F44041890B3B4D10356C5C61
:10159000C568B5FBF4F5056130BD29B12E4A526925
:1015A00002432D4B5A6104E02B4A526982432A4B75
:1015B0005A61704729B1284A92690243264B9A61C1
:1015C00004E0254A92698243234B9A61704729B10E
:1015D000214AD2690243204BDA6104E01E4AD269F3
:1015E00082431D4BDA61704729B11B4AD26802431E
:1015F000194BDA6004E0184AD2688243164BDA606D
:10160000704729B1144A12690243134B1A6104E06E
:10161000114A12698243104B1A61704713494039CD
:10162000086070471049C86470470B49C87170471B
:101630000948406A40F08070074948627047014697
:101640000020054A92680A4201D0012000E00020F3
:101650007047014988727047001002400000FFF88F
:10166000FFFFF6FE100000200000424280044242CC
:1016700000127A0000093D00621E000810B5044601
:10168000CB4820180FD0B0F5806F16D0B0F5784F4A
:101690001DD101210803FFF7A7FF00214FF480505F
:1016A000FFF7A2FF14E001218803FFF7AAFF002142
:1016B0004FF48040FFF7A5FF0AE00121C803FFF7C0
:1016C000A0FF00214FF40040FFF79BFF00E000BFA8
:1016D00000BF10BD10B50022028802F441520B88F1
:1016E0004C8823438C882343CC8823430C89234391
:1016F0004C8923438C892343CC8923431A4302809A
:10170000838B4FF2FF74234083830B8A038210BDC7
:101710002DE9F04786B004460D4600260227B04664
:101720004FF00109B246A08B4FF240010840A08360
:1017300002202084A68B2889022801D100BF31E035
:10174000A88810B94FF0010901E04FF0020901A883
:10175000FFF7C2FEE888B0F5007F0BD1019800EBDF
:101760008000400029890902B0FBF1F0401D1FFAFA
:1017700080FA0CE04FEA491029894843019901EBAE
:1017800081014900B1FBF0F0401D1FFA80FA0A20E8
:10179000BAFBF0FA0AF00108AAEB0800C0F34F0701
:1017A0004FEA0828022F01DBFF2F02DD02274FF04E
:1017B000000847EA0800E98808432084288840F4A4
:1017C000006069880843A98808436989084306437B
:1017D000A68306B0BDE8F0870021018041808180AA
:1017E000C180018141818181C181072101827047CE
:1017F0000021018041808180C1800221018100217E
:101800004181704721B1028842F04002028004E029
:1018100002884FF6BF731A400280704721B1828B55
:1018200042F48062828304E0828B4FF6FF331A40D9
:101830008283704770B5002300240B1101259D4061
:10184000ACB21AB185882543858004E08588E643DB
:10185000B6B23540858070BD10B51AB183880B4390
:10186000838004E08388CC43A4B22340838010BDEE
:1018700081817047014688897047A1F57E42FF3A11
:1018800004D0028842F48072028004E002884FF69D
:10189000FF631A400280704721B1828842F004023F
:1018A000828004E082884FF6FB731A408280704782
:1018B00002884FF2FF731A40028002880A430280B6
:1018C0007047018841F480510180704721B102883E
:1018D00042F40052028004E002884DF6FF731A4081
:1018E0000280704702460020012901D0108B00E0E1
:1018F000908A70470146088A7047B1F5804F04D13D
:10190000028842F48042028004E002884BF6FF73B2
:101910001A40028070470246002013890B4201D012
:10192000012000E000207047202905D102890288AB
:1019300042F04002028007E0402901D0082901D18D
:10194000028901E0CA4302817047F0B502460020D7
:1019500000230024002501F00F070126BE40B3B28A
:101960000C110126A640B4B2968806EA0405168931
:101970001E4202D00DB1012000E00020F0BD10B5E4
:101980000022552905D10389038843F040030380D1
:101990000CE0562901D0532901D1038906E001F05A
:1019A0000F040123A3409AB2D343038110BD00006A
:1019B00000C8FFBF042808D14FF0E021096941F0B9
:1019C00004014FF0E022116107E04FF0E0210969C6
:1019D00021F004014FF0E022116170474FF0E02147
:1019E00048617047012808D14FF0E021096941F0B2
:1019F00001014FF0E02211610EE0811C08D14FF08F
:101A0000E021096921F001014FF0E022116103E0BA
:101A100000214FF0E0229161704740B14FF0E0218A
:101A2000096941F002014FF0E022116107E04FF037
:101A3000E021096921F002014FF0E02211617047B5
:101A40004FF0E0208069704710B501460022002366
:101A50000020CB10022B03D14FF0E024226902E0DA
:101A60004FF0E024E26901248C40144201D00120AF
:101A700000E0002010BD000010B50446D749601AF0
:101A80008C422BD006DCD648201813D0B0F5806FDE
:101A900038D119E0B0F5806F2AD0B0F56C4F31D154
:101AA00001218803FFF7A0FD00214FF48040FFF7DC
:101AB0009BFD28E001214804FFF7A3FD00214FF41E
:101AC0000030FFF79EFD1EE001218804FFF799FD1D
:101AD00000214FF48020FFF794FD14E00121C80499
:101AE000FFF78FFD00214FF40020FFF78AFD0AE089
:101AF00001210805FFF785FD00214FF48010FFF755
:101B000080FD00E000BF00BF10BD2DE9F04786B0AA
:101B100004460D460026002700BF00BFB246A2467D
:101B2000268A4CF6FF700640E88806432682A6897E
:101B30004EF6F3100640A8882989084369890843AE
:101B40000643A681A68A4FF6FF400640A8890643B1
:101B5000A68201A8FFF7C0FC5446A248824501D1E5
:101B6000049F00E0039F07EBC70000EB0710296804
:101B70008900B0FBF1F86420B8FBF0F006013009F1
:101B8000642101FB1089322101EB09106421B0FBB3
:101B9000F1F000F00F000643268106B0BDE8F087A3
:101BA0004FF41651016000218180C18001810C2118
:101BB000418100218181704710B50022028A4FF2D5
:101BC000FF031A400B884C8823438C882343CC881E
:101BD00023431A43028210BD00210180418081808D
:101BE000C180704721B1828942F40052828104E0B1
:101BF00082894DF6FF731A4082817047F0B5002448
:101C00000025002600230346C1F3421401F01F05FE
:101C1000012707FA05F6012C01D10C3304E0022C50
:101C200001D1103300E014331AB11F6837431F602D
:101C300002E01F68B7431F60F0BD10B51AB1838A78
:101C40000B43838204E0838ACC43A4B22340838283
:101C500010BD028A4FF6F0731A400282028A0A43CC
:101C60000282704782894FF2FF731A408281828913
:101C70000A438281704721B1828942F00202828147
:101C800004E082894FF6FD731A4082817047028A10
:101C90004FF6DF731A400282028A0A4302827047BB
:101CA00021B1028A42F48042028204E0028A4BF6A9
:101CB000FF731A4002827047C1F3080282807047A6
:101CC00001468888C0F308007047818941F001010E
:101CD00081817047028BD2B20283028B42EA0122D9
:101CE00002837047028B02F47F420283028B0A4315
:101CF0000283704721B1828A42F02002828204E08E
:101D0000828A4FF6DF731A408282704721B1828A3D
:101D100042F01002828204E0828A4FF6EF731A408A
:101D20008282704721B1828A42F00802828204E0F6
:101D3000828A4FF6F7731A4082827047828A4FF682
:101D4000FB731A408282828A0A438282704721B1E1
:101D5000828A42F00202828204E0828A4FF6FD7398
:101D60001A40828270470246002013880B4201D03D
:101D7000012000E000207047CA430280704770B520
:101D800002460023002400250020C1F3421501F083
:101D90001F04012606FA04F4012D02D1968934406D
:101DA00006E0022D02D1168A344001E0968A3440C2
:101DB0000B12012606FA03F31688334014B10BB157
:101DC000012000E0002070BD10B5002200230A129F
:101DD00001249440A3B2DC43048010BD004C0040B9
:101DE00000BCFFBF00380140704770477047754620
:101DF00000F028F8AE4605006946534620F007007B
:101E0000854618B020B5FEF73FFCBDE820404FF0F6
:101E100000064FF000074FF000084FF0000B21F0D4
:101E20000701AC46ACE8C009ACE8C009ACE8C009A1
:101E3000ACE8C0098D4670470446AFF300802046E9
:101E4000FEF7BFF9004870473800002003494FF003
:101E50001800ABBE70470000090000002600020019
:101E6000704700000000010203040102030406079A
:101E70000809020406080000981E0008000000205F
:101E8000140000006C010008AC1E000814000020C3
:101E90008408000088010008000000000000000025
:0C1EA00000000000000000000000000036
:0400000508000131BD
:00000001FF
