:040000000C94C71382
:14005400FFDFFFFFFFFFFFFFFFFFFFFFFFFFFFFFFFFFFFFFCC
:14006800FFFFFFFFFFFFFFFFFFFFFFFFFFDFFFFFFFFFFFFFB8
:14007C00FFFFFFFFFFFFFFDFFFDFFFFFFFFFFFDFFFFFFFFFE4
:14009000F7BFD6DCBE3AC65ADEFCF7BFFFFFFFFFFFFFFFFF54
:1400A400FFDFFFDFFFDFFFFFFFFFFFFFFFFFFFFFFFFFFFFFBC
:1400B800FFDFFFFFFFFFFFDF94955AF1AD78C61BE71DFFFF00
:1400CC00FFDFFFFFFFFFFFFFFFFFFFFFFFFFFFFFFFFFFFFF54
:1400E000FFFFFFFFFFFFFFFFFFFFFFFFFFFFFFFFFFFFFFFF20
:1400F400FFFFFFFFFFDFFFFFFFFFFFFFFFFFFFFFFFFFFFFF2C
:14010800FFFFFFDFCE9B8D1664344BB44B333AD2324F322EF9
:14011C006B91D69BFFBFFFFFFFFFFFFFFFDFFFFFFFFFFFFFD2
:14013000FFFFFFFFFFFFFFFFFFFFFFFFFFFFC61A106E083033
:1401440018B131783193EF9EFFFFFFFFFFFFFFFFFFFFFFDF10
:14015800FFFFFFFFFFDFFFDFFFFFFFFFFFFFFFFFFFFFFFFFE7
:14016C00FFFFFFFFFFFFFFDFFFDFFFFFFFDFFFFFFFFFFFFFF3
:14018000FFFFFFFFFFFFFFFFCEBB7CD66497649843543AD1FF
:140194003B11435243534352431142F04B116BD39D16E75D34
:1401A800FFDFFFFFFFFFFFFFFFFFFFFFFFFFFFFFFFFFFFFF77
:1401BC00FFFF6B341072081118B618962115CE5BEF7DEF7D44
:1401D000FFDFFFFFFFDFFFFFFFFFFFFFFFFFFFFFFFFFFFDF8F
:1401E400FFDFFFFFFFDFFFFFFFFFFFFFFFDFFFFFFFFFFFFF7B
:1401F800FFFFFFFFFFFFFFDFFFFFFFFFE75D9DB975186498FC
:14020C005C7864B864B96CB9649964585C174B753AD23AB2C8
:140220003AB23AD242F242B07C75E73DFFFFFFDFFFFFFFFFBF
:14023400FFFFFFFFFFFFFFFFFFDF31520012082E08540014A5
:1402480010701083628983CEC618FFFFFFFFFFFFFFFFFFDF9F
:14025C00FFFFFFFFFFFFFFFFFFFFFFFFFFDFFFFFFFFFFFFFC2
:14027000FFFFFFFFFFFFFFFFFFFFFFFFF7DFEF9EF7DFB6197E
:140284006C9654164BB55C5764785C585C385C1753D653959F
:140298004B34435453954B753AB23A913A913A913AB142B06A
:1402AC00C63AFFFFFFFFFFFFFFFFFFFFFFFFFFFFE73D20F018
:1402C0000013000D10720011085118AE42098BCFA514F7DF24
:1402D400FFFFFFFFFFDFFFDFFFFFFFFFFFFFFFFFFFFFFFFF6A
:1402E800FFFFFFFFFFFFFFFFFFDFFFFFFFFFFFDFDEFC9D9942
:1402FC005B93639253523AD1329143134B7553D653B54B33D3
:140310003AD1328F3AD13AB132702A2F29CD29EE42F221AC0E
:14032400194B192A322E320E3A6FBE1AFFDFFFFFFFFFFFFF25
:14033800FFFFEF3E4A560851084F6333843518D01070081067
:14034C00B5DA9CF3A4F3D6BBFFFFFFFFFFDFFFDFFFFFFFFFA3
:14036000FFFFFFFFFFFFFFFFFFDFFFDFFFDFFFDFFFDFFFFF3D
:14037400F79E94F64B73322F192A21CD32703A91324F3A904E
:1403880042D05B937C769DB9AE3B8D17426C1107216A216CAE
:14039C00218C218C218C3AD121AD21AC29ED63519D368C94E3
:1403B000B5D8FFDFFFFFFFFFFFDF5AB50855001173B4F79EBB
:1403C400FFDF529108324A73F7DFAD759451E73DFFFFFFDF90
:1403D800FFFFFFFFFFFFFFFFFFFFFFFFFFFFFFFFFFFFFFFF25
:1403EC00FFFFFFFFFFFFEF7E74543AB121AC08C8326F29EE8E
:1404000042CF7454A5BBBE7EADFEA5FEBE7FCEFFCF1FC6FF68
:14041400B69E851A29AA1929194A298B21AC29CD3AD01929A6
:1404280010C729CC426E94D6E75DEF5DFFFFFFFFFFDF6334D9
:14043C0008340010212FFFDFFFFFB55520E6DF1DFFFF8C306E
:140450009C92FFFFFFFFFFFFFFFFFFFFFFFFFFDFFFFFFFFF9C
:14046400FFDFFFDFFFDFF7DFF7BFF79ECE7A639063F43AD12C
:140478003B12216A5B50B65BDF5FD75FC6DFADFE84FA9D9E5F
:14048C00BE7FCEFFCF1FC6FFC6FFAE5E8D5C218A194A1908B6
:1404A000192921AC2A0E322E192929ABEF7ECE9BADD8DF1C35
:1404B400FFFFFFFFFFFFD69C1092002E7C15FFDFFFFF9CD21D
:1404C80028C3F7BEEF3C62AAAD55FFFFFFFFFFFFFFFFFFFF51
:1404DC00DF1C74947C7384F584D674B66C76643653D44B949B
:1404F000220D6C33851842D22A4F29EBCEFEDF7F9D59B65DB9
:14050400C6DFAE1E8D5D9DBEBE9FC71FC71FC6FFC6FFB69E26
:1405180095DE749810C710E819291108218B2A0E21AB218ACB
:14052C00EF7EFFFFFFFFE77DF7BEFFFFFFDFBDD918D218CDF8
:14054000EF9EFFFFFFFFDEDA20A2732D62A949E6EF9EFFFF3F
:14055400FFFFFFFFFFFFFFFF951585FA64764B934B524332A8
:140568004331539253713AAE4B72A5FB63F3326F7C55ADBAEE
:14057C00DF5FDF7F8495A5DBD71FBE7FA61EAE5FC6FFCF1F7F
:14059000C71FC6FFC6FFBEBFA61E857D298A190810E71108C0
:1405A40010E821AC29ED29CBF7DFFFFFFFFFFFFFFFFFFFFFA8
:1405B800E73D29520834000CB5B9FFFFFFFFFFDFB5755A4735
:1405CC00414394B2FFDFFFFFFFFFFFFFFFFFFFFFF7BE74D67E
:1405E00053B35B6E7C718CF49D96A5D8A5D863F36C987CB513
:1405F4005330322F324F6BF3DF5EDF5E5B71BE7EDF5FCF1F82
:14060800C6DFC6FFCF1FC71FC6FFC6DFBEDFBEDFA63E8D7E0D
:14061C004B1119081928194910E7192829AC4ACEFFDFFFFFA9
:14063000FFFFFFFFFFFFFFFFEF5D39D40832084BBDF9EF7EB5
:14064400FFFFFFFFFFFFF7BEDF1CFFFFFFFFFFFFFFFFFFFF02
:14065800FFFFFFFFFFFFA59853F643118CD49D76A5D8A5D84D
:14066C008D364B9453D59D98530F196B322F6BB2E79FBE5A79
:140680007455D73FE77FDF7FD75FCF3FC6FFA5FC7477749822
:14069400749885198D5A8D9D6C9810A518E71908190810C6C7
:1406A800216A73F1FFFFFFFFFFFFFFFFFFFFFFFFFFDFB5BA0E
:1406BC0010904A7073938436FFFFFFFFFFDFFFFFFFDFFFFF5C
:1406D000FFFFFFDFFFFFFFFFFFFFFFFFFFFFF7BE5B7243344B
:1406E40042AE8CF5A5D8A5F85BB24BD55BF542AE5B94325099
:1406F8004AF19517E79FA5B8B63CE79FE79FDF7FDF5FCEFFBD
:14070C0063B53AB353DA5C7D64BD6CDD74DC5C177CFB10C555
:1407200010C610E7190810A610E7C679FFFFFFFFFFFFFFFFF3
:14073400FFFFFFDFFFDF6B32000C082829754A55CE3BEF9E4B
:14074800FFDFFFFFFFFFFFFFFFFFFFFFFFFFFFFFFFFFFFFFD1
:14075C00FFFFFFFFE73D5B313A91320D7433A59743324BB57B
:14077000643642AD10E83A6E6BF4B61BE79FDF3DEF9FEFBF3E
:14078400E79FDF7FD75F95593AD44BDA5C5D649D6CDD751E90
:140798007D3E853D539629AA10A510A50884088410C5EF7E50
:1407AC00FFDFFFFFFFFFFFDFFFDFF79E7373106A108E10B050
:1407C0001092082F002DC65BFFFFFFFFFFDFFFFFFFFFFFFF2A
:1407D400FFFFFFFFFFFFFFFFFFFFFFFFFFFFEF5D52EF2A2E3A
:1407E800218B29894B95431243105BB263B3953ABE7ED71FF3
:1407FC00E79FEFBFEFBFE79FE79FDF7FD75F74564B3753FBCD
:140810005C5D649D6CFD7D3E855E857D4B333A4D086318C2C7
:140824002923212318A2626A838F9452A4F4BD96D67AAD16B4
:14083800295518B308510010001208124AD57435DEDCFFFF4E
:14084C00FFDFFFFFFFDFFFFFFFFFFFFFFFFFFFFFFFFFFFFFEC
:14086000FFFFFFFFEF9E4A8D21AB326E5C3742F14B105371D3
:1408740053735BB55BB46BF4D73EE79FE79FE79FE79FDF7FA1
:14088800D75F9D7A42F553DA5C5D649D6CDE7D3E857E8D7EDE
:14089C005BF6428E084118A12944318531457A6AB38DBBAEFF
:1408B000B3AEA36D930C6A2920C74166416708260009190CFF
:1408C400BEDEC6FFBE7BFFFFFFFFFFFFFFFFFFFFFFFFFFFF94
:1408D800FFFFFFFFFFDFFFDFFFFFFFFFFFFFE73C422A4B522E
:1408EC004B742A6F64368D7963F642F33AD24B12DF5FE79F45
:14090000E79FE79FE77FDF7FD75FCF1F743643365C3C649D33
:140914006CDD7D3E857E8D7E5BD64B120820108121033165BC
:14092800318531247A279AA9AB2CB36CAB2B9ACA61858A89A3
:14093C009ACAA32C61E88496C6FFC6FFBE7BFFFFFFFFFFFF54
:14095000FFFFFFFFFFFFFFFFFFFFFFFFFFDFFFDFFFFFFFFFE7
:14096400FFFFFFFFC6385C155C385C386C988D385B934B32B8
:1409780063B37C55DF5FDF7FE79FE79FE77FDF7FD75FD73FCC
:14098C00CEFE743643365C5D6CBD751D7D3E855E4B334B325B
:1409A000084118C22923316439853165390392CA9A8981E6C9
:1409B40081C681C5616481E681C681E671A5A5D9BEFFBEDFDA
:1409C800BE5BFFFFFFFFFFFFFFDFFFFFFFFFFFFFFFFFFFFF34
:1409DC00FFDFFFFFFFFFFFFFFFDFFFFFDEFC5C565C595C387E
:1409F00053D574965394327029ED4AAEC6DEDF5FDF7FDF7F8C
:140A0400DF7FDF7FD75FD73FCF1FC71EA5FB6C385C3B6CDDDF
:140A1800751D7D1D4B554B3208632A0B320A294531853985C3
:140A2C00290338C2494528C6698581C5510381C581C581C5BA
:140A400079C6A599B67FA61FA5BAFFFFFFFFFFFFFFFFFFFFD6
:140A5400FFFFFFFFFFFFFFFFFFFFFFFFFFDFFFFFFFFFFFFFC2
:140A6800EF5D5C365C5964586C5785182A6F4AF17C77A5BAA5
:140A7C00CF1FD6FEDF5EDF7FDF7FDF7FDF5FD73FCF3FCF1FFD
:140A9000C6FFBEDF957A64174B95537453B64B3353326C79CE
:140AA400749949C859C620E31062296842AF29B440C5718433
:140AB8005923718469846984698474377D1E857E9559FFFFBD
:140ACC00FFDFFFDFFFFFFFFFFFFFFFFFFFFFFFFFFFFFFFFF6A
:140AE000FFFFFFFFFFFFFFFFEF7D5C555C172A4F4B727CB612
:140AF40032B07C99A5DDBEBED73F9D377C74DF7FDF7FDF5F25
:140B0800D71FCF1FCF1FCF1FC6FFC6DFBEBFB67EA61E8D9D10
:140B1C00751D42B0428F6C16639371E8820728C5084418C6FF
:140B3000082208B2186548E240C240C248E2510251024A8E7A
:140B440053D86C578D16FFFFFFFFFFFFFFFFFFFFFFFFFFFF1A
:140B5800FFFFFFFFFFFFFFFFFFFFFFFFFFFFFFFFF79E5C3474
:140B6C005C585C586C985BB3539442F24B337415C6BDCEBDCB
:140B80006BD2D73EDF5FCEDFBE7FB67FC6DFC6FFC6DFBEDF06
:140B9400B69FAE7E9E1E857E751D320C31EB53108CB62966ED
:140BA800290320C20842424C0866212A106459A5494449440E
:140BBC005985596440E32906955ABEDE9536FFFFFFFFFFFFE8
:140BD000FFFFFFFFFFFFFFFFFFFFFFFFFFFFFFFFFFFFFFFF25
:140BE400FFFFFFFFF7DE53D35C585C38431142D042F2327082
:140BF8003250320EC6BDD73E6C13AE1BCEFFAE3E7CBA959E25
:140C0C00AE3FBEBFBEBFB6BFB67FAE3E95DE857D74FC218AC7
:140C2000424B5B0E4A6A31443985290361A57A28722861E72D
:140C34008289A2EB8A6892AA928992688A27626ABEDEC6FFF3
:140C48009557FFDFFFDFFFFFFFFFFFFFFFFFFFFFFFFFFFFFFE
:140C5C00FFFFFFFFFFFFFFDFFFFFFFFFFFDF74955C385C38A1
:140C70005374322E21AC322E3A4E218A9518CF1F8CF7955ADC
:140C8400B69F9D9E7CBD84FE9DBEAE5FAE7FAE5FA63E9DFEF0
:140C98008D9E7D3D6C3829A9294521243164316429445985C5
:140CAC008A47A2EB9AEA9A898A488A4771E692698A278A27D8
:140CC00081E64166C6DEC6FF8D38F7DFFFDFFFFFFFFFFFFF36
:140CD400FFFFFFFFFFFFFFDFFFFFFFFFFFFFFFDFFFFFFFFF60
:140CE800FFFF8D36647853D753B63A70322E42D0320D428FFC
:140CFC009DDCBEBF95595BF9A61F8D7E8D3E7CDE955E9DFE29
:140D10009E1F9DFF95DE8D9E7D3E74DD4AD0214629232923B3
:140D240029033144496592A99AC98A2781E581C581C581C5E5
:140D380071A581E681C681C679A54145B69EAE7F84F8F7DF25
:140D4C00FFFFFFFFFFFFFFFFFFFFFFFFFFFFFFFFFFDFFFFFC7
:140D6000FFFFFFFFFFFFFFFFFFDFA597647853B653B653D656
:140D740042F242D15B736BF6853C9DDE8D5B5BFA95DE8D7EFE
:140D88008D1E84FE8D7E95BE95DE8D9E857E753D6CDD6C398B
:140D9C00212818E42923188120E239249AEA9AEA9268820630
:140DB00081C581C581C581C571C5822779C579A5696430C31C
:140DC4007CDA7D5E7CD8FFFFFFFFFFFFFFFFFFFFFFFFFFFFA4
:140DD800FFFFFFDFFFDFFFFFFFFFFFFFFFFFFFFFF7DF747598
:140DEC005BF74B954B754B543AD23270327032713271751D3A
:140E0000751E6CDD7D5E855E853E853E8D5E857E855E7D3E32
:140E140074FE64BD645A531208A518C30840106020C28AAABE
:140E28009AEA8A48822681E681C581C581E581E579A571C6A4
:140E3C0069635943490228A26BD56C7B6C56FFDFFFDFFFFF82
:140E5000FFFFFFFFFFFFFFFFFFFFFFFFFFFFFFFFFFFFFFFFA2
:140E6400FFFFFFFFBE5B6CF954174B75435443343AD22A5041
:140E780021CD198C196B3A91647B649D64BD6CDD74FE7D3E0D
:140E8C00751E751E751D6CDD6CBC6419639429AA0864106204
:140EA0000820084041448A8971E661A561846164592351233F
:140EB40048E338A220611841206110200800000010C419267F
:140EC80094F4FFFFFFFFFFFFFFFFFFFFFFFFFFFFFFFFFFFFA0
:140EDC00FFFFFFFFFFFFFFDFFFFFE75D74F853953AB153D77F
:140EF000435443133AD23291327132702A0E29CD29ED5BB797
:140F04005C5C5C5D5C3B53B842F53AD332712A2F2A0F324FCC
:140F18002A2E2A0D21AB196908A5086328E449644923288102
:140F2C00104118A2292318A200200820000000000000000058
:140F400000000000000018C3F7DFFFFFFFDFFFFFFFFFFFFF16
:140F5400FFFFFFFFFFFFFFFFFFFFFFDFFFFFFFFFFFDF9DB886
:140F68006C9842AE4B2F5C1853B643143AD23AB23AB23A9283
:140F7C003A9132712A0F29CD2A0F29EF21EF2A0F32503A71FD
:140F900032913AB23AB23AD343134B75541753B63AD23A9144
:140FA400322F29AC212818C429243184290318A10840084067
:140FB80000000000000008200820082000000841F7BEFFFFB1
:140FCC00FFDFFFFFFFFFFFDFFFFFFFFFFFFFFFFFFFFFFFFF65
:140FE000FFFFFFFFCEBB74F84B5273F095564B7353D653D611
:140FF4004B5442D23AB23AB23A913A9132713A913A713A91E4
:141008003A71327132713A713A913AB242F343144B7553F7EB
:14101C005C3853D642F33A913A713A713271327029ED21270A
:14103000188110601881084000000820106110400840084049
:1410440008200840EF9EFFFFFFFFFFFFFFFFFFFFFFFFFFFFA9
:14105800FFFFFFFFFFFFFFFFFFFFF7DF85375BF65B6F953517
:14106C00A5D87C7442F343144B55433443133AD23AB23AB226
:141080003A913A713A713A713271327132503250329143132D
:141094004B9543744B954BB54B743AF23270324F2A0E21ACBE
:1410A800218B29AC29ED324F29EC18E520C2106120E320E2B2
:1410BC00108110611061106108400820E75DFFFFFFFFFFFF8E
:1410D000FFFFFFFFFFFFFFFFFFFFFFFFFFFFFFFFFFDFB5F990
:1410E40064B842CE8492A5D8A5D8A5D86C1342D23AB23AB2D4
:1410F8003AD242D23AB23A923A923A913A713A913A913A9268
:14110C003AB242F343344B955BF75C3853F75C385C385BF7AD
:141120004B3329CC0886088510A610C610A50843088410A461
:1411340010C441C741C6292320C21881104008400820082015
:14114800E77DFFFFFFFFFFFFFFFFFFFFFFFFFFFFFFFFFFFF41
:14115C00FFFFFFFFEF7D74D74B526BAF9535A5B7A5D8A5D8F5
:141170009D7742AE32503A923A9242D242D23A923A923A92C1
:141184003A913A913271327142F343344B75435453F75C5979
:1411980064584BB553D654174B954313324F110908658453DE
:1411AC002967298910A541E752484A073985290218A118610A
:1411C0001040104008200000DF1CFFFFFFFFFFFFFFFFFFFF62
:1411D400FFDFFFFFFFFFFFFFFFFFFFFF9D7753D4428B5B4E82
:1411E8005B4F4AEF428F31EC194910E610C732503A913A91DB
:1411FC003AB242F342F33AB23A913A913A923A923A9142F36F
:141210004B9553B6435454175C3853F74B753AF243343AD292
:1412240032913250218C18E739E85269420831864A2841E64F
:141238003984290220A218611040084008200000DF1CFFFFC6
:14124C00FFFFFFFFFFFFFFFFFFDFFFFFFFFFFFFFFFFFBE19E9
:141260006CD74B522A0E3A703A90324F322F2A0D21AC21499E
:14127400190710E729ED3AD23AB13A923AB242F34313433488
:1412880042F33AD23AF34313431353D65C384B9553F7539668
:14129C0043133AD22A0E32503A913270327021AC10A45268D8
:1412B000524852484A0741C63164290220A1188110600820EC
:1412C400000010A2F7DFFFFFFFFFFFFFFFFFFFFFFFFFFFFF9C
:1412D800FFFFFFFFFFDF74327D7A5372741394D5A577B5D82D
:1412EC00BE19C67AC659C659CE79C638C639ADD8749553B3C1
:14130000433243123AD23AD23AD1433353B653D7541753F68F
:14131400649964BA53F653D643543AB23291198C2A0E327073
:14132800327032501929318652484A2741E639A5314320E20E
:14133C0018A11881082008000000632DFFDFFFFFFFFFFFFFB3
:14135000FFFFFFFFFFFFFFFFFFFFFFFFFFFFA5F96C95DF3DDC
:14136400FFFFFFFFFFFFFFFFFFFFFFFFFFFFFFFFFFFFFFFF89
:14137800FFFFFFFFF7DFF7BED6FCB5F884D46BF34B31326F88
:14138C003290329153B65C384B955C3853F743133AF23AB2FF
:1413A00032713250218C21AD32703250322F190739C74A2783
:1413B40041C631642923290320C2106008200800000094B348
:1413C800FFDFFFFFFFFFFFFFFFFFFFFFFFFFFFFFFFFFFFFF45
:1413DC00FFFFCEDBEF9EFFFFFFFFFFFFFFFFFFFFFFFFFFDFF7
:1413F000FFFFFFFFFFFFFFFFFFFFFFFFFFFFFFDFFFDFFFDF5D
:14140400FFFFFFFFF7DFDF1C9D774B10329053F75C174334A2
:141418004B9542F332702A2F3271327132712A0E192A29EE35
:14142C0032702A0EAD9773AE2945292420E31061108110811C
:1414400010600820000018C3F7BEFFFFFFFFFFFFFFFFFFFF7A
:14145400FFFFFFFFFFFFFFFFFFDFFFFFFFFFFFFFFFFFFFFFB8
:14146800FFFFFFFFFFDFFFFFFFDFFFFFFFFFFFDFFFFFFFFFE4
:14147C00FFFFFFFFFFFFFFFFFFDFFFFFFFFFFFFFFFFFF79EF9
:141490006BB12A504334431332703AB232912A2F21AD3250EB
:1414A400327032702A2F10C710C7218B530FEF9D843018A2E1
:1414B800188110600840082008200000000039E7FFFFFFFF63
:1414CC00FFFFFFFFFFFFFFFFFFFFFFFFFFDFFFFFFFDFFFFF60
:1414E000FFFFFFFFFFDFFFFFFFFFFFFFFFDFFFFFFFFFFFFF4C
:1414F400FFFFFFDFFFFFFFFFFFDFFFFFFFFFFFFFFFFFFFFF38
:14150800FFFFFFFFFFFFFFFFF7BE5B0F29EE2A0F325021AD18
:14151C0032503A713250216C2A0F327032703250216A088568
:1415300008A531A88431526A18E520E418610820000000000E
:141544000000634DFFFFFFFFFFFFFFFFFFFFFFFFFFFFFFFFF3
:14155800FFFFFFFFFFFFFFFFFFFFFFDFFFDFFFFFFFFFFFFFD3
:14156C00FFDFFFFFFFFFFFFFFFDFFFFFFFFFFFFFFFDFFFFFDF
:14158000FFFFFFFFFFFFFFFFFFFFFFFFFFFFFFFFFFDFD6BBF8
:14159400218B2A0F29EE2A2F198D325032713271196A320DBE
:1415A800322F32713271325029CE21AC198B198B4B526B6E84
:1415BC0008400820082008400840D6FBFFFFFFDFFFDFFFFF6A
:1415D000FFFFFFFFFFFFFFFFFFDFFFFFFFFFFFFFFFFFFFFF3B
:1415E400FFFFFFFFFFDFFFDFFFDFFFFFFFFFFFFFFFFFFFFF67
:1415F800FFFFFFFFFFDFFFFFFFFFFFFFFFFFFFFFFFFFFFDF33
:14160C00DF1CADD984F65392218B21AD325021CD29EE21AD1B
:1416200029EF327132506371A57752F02A0F327032703AB1DF
:1416340042D24312CEDCFFDE8C5010820821002110A3F7BF91
:14164800FFFFFFFFFFDFFFFFFFFFFFFFFFFFFFFFFFFFFFFFC2
:14165C00FFFFFFFFFFFFFFFFFFDFFFFFFFFFFFFFFFDFFFFFCE
:14167000FFFFFFFFFFFFFFFFFFDFFFFFFFDFFFDFFFFFFFFFDA
:14168400FFFFFFDFDF1D95785C3553B43AD2329129EE29EED8
:1416980021AD32712A0E21AD21AD218B327032705B30DF1C83
:1416AC00CEBA8CB46BF273F38CD5DF3DFFFFFFFFFFDF7411C3
:1416C0000044004310C4F7DFFFFFFFFFFFDFFFFFFFFFFFFF11
:1416D400FFDFFFFFFFFFFFFFFFFFFFFFFFFFFFFFFFDFFFFF56
:1416E800FFFFFFFFFFDFFFDFFFFFFFFFFFFFFFFFFFFFFFFF42
:1416FC00FFFFFFFFFFFFFFDFEF7D9D985C1543133AD23AB2A2
:14171000329132713270198C29EE29CE3271327129CD10E8D6
:1417240010A6196A322F322D94D5EF7EFFDFFFFFFFDFFFFF2A
:14173800FFFFFFFFFFFFC67A110700431926F7DFFFFFFFFFF7
:14174C00FFDFFFFFFFFFFFFFFFDFFFFFFFFFFFFFFFFFFFFFDD
:14176000FFFFFFFFFFDFFFFFFFFFFFDFFFFFFFFFFFFFFFDFE9
:14177400FFDFFFDFFFFFFFFFFFFFFFFFFFFFC67B6C7653F643
:141788004B54433442F33AB232713A7132712A2F21CE21CDEF
:14179C0029EF32713271218B0884086318E5428D2A0D320DF6
:1417B0007C33AD97B5B8F7BEFFFFFFFFFFDFFFFFC6593A6B74
:1417C400530DFFFFFFFFFFFFFFFFFFFFFFFFFFFFFFDFFFDF03
:1417D800FFFFFFFFFFFFFFFFFFFFFFFFFFFFFFFFFFFFFFDF31
:1417EC00FFFFFFFFFFFFFFDFFFFFFFDFFFFFFFFFFFFFF7BE86
:141800009D785C165C1753D64B754B3442F33AB232913271EB
:141814003271327121AD2A0F21AD21AC3270327019280884C7
:1418280031E9F7BEF7BEEF9EF7DFFFFFFFFFFFFFFFFFFFFFCF
:14183C00FFDFFFFFFFFFF7DFF7DFFFDFFFFFFFFFFFFFFFFF3C
:14185000FFFFFFFFFFFFFFFFFFFFFFDFFFFFFFFFFFFFFFFFB8
:14186400FFFFFFFFFFFFFFFFFFFFFFFFFFFFFFFFFFFFFFFF84
:14187800FFFFFFFFEF7D7CB65C175C175C1753D753964B54B7
:14188C0042F33AB23AB23A913A7132713A7121AD194B190923
:1418A00011082A0E3250216A2988F7DFFFFFFFFFFFFFFFFF57
:1418B400FFDFFFFFFFFFFFFFFFFFFFDFFFFFFFFFFFFFFFFF74
:1418C800FFFFFFFFFFFFFFFFFFFFFFFFFFDFFFFFFFFFFFFF40
:1418DC00FFFFFFFFFFDFFFFFFFFFFFFFFFFFFFFFFFFFFFFF2C
:1418F000FFFFFFFFFFFFFFFFFFFFDF1D7CD65C175C175C3826
:141904005C1853F74B75433442F33AD23AB23A91327132719C
:141918003271325029CD192910A60864110729CC320D5B3164
:14192C00A557DEFCFFDFFFDFFFFFFFFFFFDFFFFFFFDFFFFF61
:14194000FFFFFFFFFFFFFFFFFFFFFFFFFFFFFFFFFFFFFFFFA7
:14195400FFDFFFFFFFFFFFFFFFFFFFFFFFFFFFFFFFFFFFFFB3
:14196800FFFFFFFFFFFFFFFFFFFFFFFFFFFFFFFFD6FC6C96A7
:14197C0053B54B9553F75C385C1853B64B554334431342F372
:141990003A9232713A713A713250320E21AC192910C710A620
:1419A40010A610C631CA849473F27C53A577DEFCFFFFFFDF8A
:1419B800FFFFFFDFFFDFFFFFFFFFFFFFFFFFFFFFFFFFFFFF6F
:1419CC00FFFFFFFFFFFFFFFFFFDFFFFFFFFFFFFFFFFFFFFF3B
:1419E000FFFFFFFFFFFFFFFFFFFFFFFFFFFFFFFFFFFFFFFF07
:1419F400FFFFE75D74964B743AD253D65C385C3853F753B624
:141A08004B75433443143AB23271327132713A71322F29CD65
:141A1C00194A18E810C710C610A619286390FFDFFFFFFFFFE2
:141A3000FFFFFFDFFFDFFFDFFFFFFFDFFFFFFFFFFFFFFFFF36
:141A4400FFFFFFFFFFFFFFFFFFFFFFFFFFFFFFFFFFDFFFFFC2
:141A5800FFFFFFFFFFFFFFFFFFFFFFFFFFFFFFFFFFFFFFFF8E
:141A6C00FFFFFFFFFFFFFFFFF79E74754B532A5053D65C183B
:141A80005C385C1853F753B64B754B5542F33A913A713A9121
:141A94003271323029EE216B190810C710C710C610E7194998
:141AA800A597FFDFFFFFFFFFFFFFFFFFFFDFFFFFFFFFFFFF40
:141ABC00FFFFFFFFFFFFFFFFFFFFFFFFFFFFFFFFFFFFFFFF2A
:141AD000FFFFFFFFFFDFFFDFFFFFFFFFFFFFFFFFFFFFFFFF56
:141AE400FFFFFFFFFFFFFFFFFFFFFFFFFFFFF7DF74744B7380
:141AF8002A2F53D65C175C185C385C385BF753B64B95433497
:141B0C003AB23AB23A9132713270320F21AC192910E710E79F
:141B200010C710E7190829AAEF7EFFDFFFFFFFFFFFFFFFFFAC
:141B3400FFFFFFFFFFFFFFFFFFFFFFFFFFFFFFFFFFFFFFFFB1
:141B4800FFFFFFFFFFFFFFFFFFFFFFFFFFDFFFFFFFFFFFFFBD
:141B5C00FFFFFFFFFFFFFFFFFFFFFFFFFFFFFFFFFFFFFFFF89
:141B7000FFFFADB8328F220E5C165C175C185C385C385C38F8
:141B84005BF753B64B7542F33AD23AB23A913250322F29CD61
:141B9800216A1909190810E718E81908216A63B1FFFFFFFFB8
:141BAC00FFFFFFFFFFDFFFDFFFFFFFFFFFFFFFFFFFFFFFFF79
:141BC000FFFFFFFFFFFFFFFFFFFFFFFFFFFFFFFFFFFFFFFF25
:141BD400FFDFFFDFFFFFFFFFFFFFFFFFFFFFFFFFFFFFFFFF51
:141BE800FFFFFFFFFFFFFFFFF7BE4AEF4B315C57645864991B
:141BFC005C385C385C38541853F753B6433442F33AB23A91F7
:141C10003271322F29EE218C216A1949190919081908192965
:141C24003A6EB5D9FFDFFFFFFFFFFFFFFFFFFFDFFFFFFFFFC6
:141C3800FFFFFFFFFFFFFFFFFFFFFFFFFFFFFFFFFFFFFFFFAC
:141C4C00FFFFFFFFFFFFFFFFFFDFFFDFFFFFFFDFFFFFFFDF18
:141C6000FFFFFFFFFFFFFFFFFFFFFFFFFFFFFFFFB5D85B7127
:141C74006CB76D1A7D5B6CD95C385C385C3854185BF74B755B
:141C88004B3442F33AB23A9132502A0E29CD218B216A194A93
:141C9C00192919291929218B5393F7BEFFDFFFFFFFFFFFFF4F
:141CB000FFFFFFDFFFFFFFFFFFFFFFFFFFFFFFFFFFFFFFFF54
:141CC400FFFFFFFFFFFFFFFFFFFFFFFFFFFFFFFFFFDFFFDF60
:141CD800FFDFFFDFFFFFFFFFFFDFFFFFFFFFFFFFFFFFFFFF6C
:141CEC00FFFFFFDE8CD574F785FB85FC753A5C785C585C5851
:141D00005C585C1853B64B75431342D23A913A70324F29ED68
:141D140021AC298C218B214A2149214A214A3A909537FFFF4E
:141D2800FFFFFFDFFFFFFFFFFFFFFFDFFFFFFFFFFFFFFFFFFB
:141D3C00FFFFFFFFFFFFFFFFFFFFFFFFFFFFFFFFFFFFFFFFA7
:141D5000FFFFFFFFFFDFFFDFFFDFFFDFFFDFFFDFFFDFFFDF93
:141D6400FFDFFFFFFFFFFFFFFFFFDEFC74958E5C8E5D7DBBA5
:141D7800751A64995C585C585C3853F74B75433442F33AB22D
:141D8C003A913250322F29EE29CD218C216B214A1949214A17
:141DA000194B5BB3F7BEFFFFFFDFFFFFFFDFFFFFFFFFFFDF76
:141DB400FFFFFFFFFFFFFFFFFFFFFFFFFFFFFFFFFFFFFFFF2F
:141DC800FFFFFFFFFFFFFFFFFFFFFFFFFFDFFFDFFFDFFFDF9B
:141DDC00FFDFFFDFFFFFFFFFFFFFFFFFFFFFFFFFFFDFA5B709
:141DF000863B96BE8E5D7DDB753A5C795C585C385C174B7588
:141E0400433442F33AD23AB23A913250322F29EE29CC218BC0
:141E1800216B214A214A19093AD1ADF9FFDFFFFFFFFFFFFFA9
:141E2C00FFFFFFFFFFFFFFFFFFFFFFFFFFFFFFFFFFFFFFFFB6
:141E4000FFFFFFFFFFFFFFFFFFFFFFFFFFFFFFFFFFFFFFFFA2
:141E5400FFDFFFDFFFDFFFDFFFDFFFDFFFFFFFFFFFFFFFDF6E
:141E6800FFFFFFDFD6FC755896DE969D8E3D7D9B6CD964991F
:141E7C005C3853F74B754B34431342D23AB23A913250325010
:141E9000322F29CD29AC218B216B216A218B326F6C54FFDF64
:141EA400FFDFFFFFFFFFFFFFFFFFFFFFFFFFFFFFFFFFFFFF5E
:141EB800FFFFFFFFFFFFFFFFFFFFFFFFFFFFFFFFFFFFFFFF2A
:141ECC00FFFFFFFFFFFFFFFFFFDFFFDFFFDFFFDFFFDFFFDFD6
:141EE000FFDFFFFFFFDFFFFFFFDFF7BE74D59EDE96BD967D78
:141EF4007DBC757B755A64995C384B954334431342F342D25B
:141F08003A9132713250322F29EE29CD21AC218B29AC320DDA
:141F1C0063B35372E77EFFFFFFFFFFFFFFFFFFFFFFFFFFFF7F
:141F3000FFFFFFFFFFFFFFFFFFFFFFFFFFFFFFFFFFFFFFFFB1
:141F4400FFFFFFFFFFFFFFFFFFFFFFFFFFFFFFFFFFDFFFDFDD
:141F5800FFDFFFDFFFDFFFDFFFDFFFDFFFDFFFDFF7DF9557C3
:141F6C008E5B9EDE967D85DB861C85FC755A6CB953B64B34EA
:141F80004334433442F33A913A713250322F2A0E29ED29CD8D
:141F940021AC29CD320D5B714B32D6FCFFDFFFDFFFDFFFFF84
:141FA800FFFFFFFFFFFFFFFFFFFFFFFFFFFFFFFFFFFFFFFF39
:141FBC00FFFFFFFFFFFFFFFFFFFFFFFFFFFFFFFFFFFFFFFF25
:141FD000FFFFFFFFFFDFF7DFEF7DF7DFFFDFFFDFFFDFFFDF93
:141FE400FFDFFFDFA5B87D7896DD8E5C8E5C969D8E5D85DC15
:141FF80074F95BF64B544334433442D232913A713250324F05
:14200C002A0E29ED29CD29CD320E3A2E73F24AEFDF1CFFFF47
:14202000FFFFFFDFFFFFFFFFFFFFFFFFFFFFFFFFFFFFFFFFE0
:14203400FFFFFFFFFFFFFFFFFFFFFFFFFFFFFFFFFFFFFFFFAC
:14204800FFFFFFFFFFFFFFFFFFFFFFFFFFDFF7DFC659D6FCEB
:14205C00FFDFFFDFFFDFF7DFF7BE9516649585FA8E5B9EDEC3
:1420700096BD8E5D85DB6CF95BF64B944B5443133AB23A917D
:1420840032713270324F322E29EE29EE2A0E322F3A6F8474BA
:142098008494EF9EFFFFFFFFFFFFFFFFFFFFFFFFFFFFFFFF9F
:1420AC00FFFFFFFFFFFFFFFFFFFFFFFFFFFFFFFFFFFFFFFF34
:1420C000FFFFFFFFFFFFFFFFFFFFFFFFFFFFFFFFFFFFFFFF20
:1420D400F79EDEFCE73D64138D16CE9BD6DC95165BD16CD617
:1420E8008E7C9EDE96BE8E7D85FC7D5A6CD864775C1653B50E
:1420FC004B5442F23AB23A913A703250322F320E320E322FD8
:1421100032705311A577CE9BFFDFFFFFFFDFFFFFFFDFFFFF9C
:14212400FFFFFFFFFFFFFFFFFFFFFFFFFFFFFFFFFFFFFFFFBB
:14213800FFFFFFFFFFFFFFFFFFFFFFFFFFFFFFFFFFFFFFFFA7
:14214C00FFFFFFFFFFFFFFFFF7DFDF1C7CB4647564D664957A
:142160006D378E5B9EDE9EDE969D8E3D85DB753975397D5A55
:142174007D5A74F864775BD54B7443133AB13A913270324F1B
:14218800324F322F3A9142B09516F7BEFFDFFFFFFFFFFFFF6C
:14219C00FFDFFFFFFFDFFFFFFFFFFFFFFFFFFFFFFFFFFFFF83
:1421B000FFFFFFFFFFFFFFFFFFFFFFFFFFFFFFFFFFFFFFFF2F
:1421C400FFFFFFFFFFFFFFFFFFFFFFFFFFFFFFFFFFDFF7DF63
:1421D800E75DADF985787D998E1B967D8E5C85BA6CF86D1828
:1421EC0075598E3C8E5D8E3C85DB7D596CB85C165395433368
:142200003AB1327032703AB14B1343126C13D6DBFFFFFFFFD1
:14221400FFFFFFFFFFFFFFFFFFDFFFFFFFFFFFFFFFFFFFFFEA
:14222800FFDFFFFFFFFFFFFFFFFFFFFFFFFFFFFFFFFFFFFFD6
:14223C00FFFFFFFFFFFFFFFFFFFFFFFFFFFFFFFFFFFFFFFFA2
:14225000FFFFFFFFFFDFFFDFDF1CA55684B47CD56C755433DB
:1422640064B67DDA969D96DE96DE96BE96BE967D8E1C7D9A5E
:142278006CF85C364B5343134B7453954353539384D6D6FC19
:14228C00FFFFFFDFFFFFFFFFFFFFFFFFFFFFFFFFFFFFFFFF72
:1422A000FFDFFFFFFFFFFFFFFFFFFFFFFFFFFFFFFFFFFFFF5E
:1422B400FFFFFFFFFFFFFFFFFFFFFFFFFFFFFFFFFFFFFFFF2A
:1422C800FFFFFFFFFFFFFFFFFFFFFFFFFFDFFFDFFFDFF7DE9F
:1422DC00DF1CA5D88D3775177517755885DA8E3C967D967C7F
:1422F000861B85BA755864965BF45BD36C3474558CD6A597AF
:14230400D6DBF7DFFFDFFFFFFFFFFFFFFFFFFFFFFFFFFFFF6E
:14231800FFFFFFDFFFFFFFFFFFFFFFFFFFFFFFFFFFFFFFFFE5
:14232C00FFDFFFFFFFFFFFFFFFFFFFFFFFFFFFFFFFFFFFFFD1
:14234000FFFFFFFFFFFFFFFFFFFFFFFFFFFFFFFFFFFFFFFF9D
:14235400FFDFFFDFF7DFFFDFFFDFF7DFF7DFF7BEEF9EDF3C1E
:14236800D6DCC69ABE7AC69ACEBBD6FCE75DEF7EF7BEFFDF18
:14237C00FFDFFFDFFFFFFFFFFFFFFFDFFFDFFFFFFFFFFFFFE1
:14239000FFFFFFFFFFDFFFFFFFFFFFDFFFFFFFFFFFFFFFFF8D
:1423A400FFFFFFFFFFFFFFFFFFFFFFFFFFFFFFFFFFFFFFFF39
:1423B800FFFFFFFFFFFFFFFFFFFFFFDFFFFFFFFFFFFFFFFF45
:1423CC00FFFFFFFFFFFFFFDF202326292B2D30323436383AFD
:1423E0003B3C3C3C3C3C3B3A38363432302D2B292623201D02
:1423F4001A171513100E0C0A08060504040404040506080A04
:142408000C0E101315171A1D0404040506080A0C0E101315A5
:14241C00171A1D202326292B2D30323436383A3B3C3C3C3C0B
:142430003C3B3A38363432302D2B292623201D1A1715131073
:142444000E0C0A08060504042022242628292A2C2E30313251
:142458003334353635343332312E2D2C2A2827262523201DF4
:14246C001B1A1918161413120F0E0D0C0B0A0B0C0D0E0F100B
:1424800012141617181A1C1E0A0A0A0B0D0E0F1113151718CE
:142494001A1C1E2022242628292C2D2E3031323334353635E2
:1424A80034333231302E2D2C2928262422201E1C1A1817152A
:1424BC0013110F0E0D0B0A0A20262C2F2C2620140F141A112A
:1424D000131A20262D2F2D26201A1310208C3F61C006000067
:1424E400017FE2400C4FF040087FE600001FE000020001FF49
:1424F800FE0000020042003BFE100400080904090409F80915
:14250C00080908FF80086048183804081E00000000010001F7
:1425200000010001000100010001000100010001000100019D
:1425340000030001000000000040004000400040004000400F
:14254800007FFE44004600438041004000C000400000000232
:14255C000042003BFE100400080904090409F809080908FF98
:1425700080086048183804081E0000020042003BFE1004001C
:14258400080904090409F809080908FF800860481838040873
:142598001E000000000000000000F4000000E000E00028FE37
:1425AC0028FE282454FE5448462610C8C46C92AA440A00A01D
:1425C000C000000038448200008244380028107C102810103F
:1425D4007C10100000050600101010101000060600000408E4
:1425E8001020407C8A92A27C0042FE020042868A926284822B
:1425FC00A2D28C182848FE08E4A2A2A29C3C5292920C808E0B
:1426100090A0C06C9292926C6092929478006C6C0000006A66
:142624006C00001028448200282828282800824428104080B2
:142638008A90604C929A8A7C3E4888483EFE9292926C7C82E4
:14264C00828244FE82824438FE92929282FE909090807C8252
:1426600092925EFE101010FE0082FE8200040282FC80FE10A4
:14267400284482FE02020202FE403040FEFE201008FE7C8280
:1426880082827CFE909090607C828A847AFE9098946262921A
:14269C0092928C8080FE8080FC020202FCF8040204F8FC0286
:1426B0001C02FCC6281028C6E0100E10E0868A92A2C200FE1E
:1426C400828200AA54AA54AA008282FE002040804020020212
:1426D8000202020080402000042A2A2A1EFE1222221C1C22BA
:1426EC002222041C222212FE1C2A2A2A18107E908040182555
:1427000025253EFE1020201E0022BE0200020121BE00FE0807
:142714001422000082FE02003E2018201E3E1020201E1C225B
:1427280022221C3F24242418182424183F3E10202010122AE9
:14273C002A2A0420FC2202043C0202043E38040204383C02B3
:142750000C023C2214081422380505053E22262A322200105C
:142764006C82000000FE000000826C10001008102010001F00
:1427780007E0F8000000FFFFFFFFF800FFE007E007FF001F8F
:14278C000000CFE5D4E0CDBFDEBFCE51D0400AEA08830024D6
:1427A000E8E7F0E010E0E837F10711F00192FBCF0083E6E7D1
:1427B400F7E2A0E6B0E017E200E00BBFEE38F10721F0C895F3
:1427C80031960D92F9CF0E941A14FFCF0E941918A22EC02EA0
:1427DC0005E110E00E943714002711270E9437140FE510E0F6
:1427F0000E94371405E710E00E943714002711270E943714D3
:142804000FE310E00E94371444270EC0662709C00C2D1127F1
:142818000E944E140A2D11270E944E1463956036A8F3439534
:14282C00403480F30C9422182697AA24BB240E946F140E94A6
:142840006F1404E610E00E946F1722270027C2DF84E590E015
:142854009D838C8380E48A8387E48883222700270E946C16C6
:14286800FFCF26960895AA9258018F9A979AA39AAB9AA79A83
:14287C00AF98A29AAA9897988FEF8ABBABBA01E010E00E94B9
:142890006F17979AAA9AAF9AA99008958F9A979AA79AAF9A36
:1428A400A29AAA98A39AAB9A97988FEF8ABB0BBB979AAA9AF3
:1428B800AF9A0895A29AAA98A39AAB988F9A9798A69AAE984A
:1428CC0004E610E00E946F17AE9A04E610E00C946F17EEDFE1
:1428E00005E110E0C4DF00271127C1DF01E810E0BEDF0FEDFA
:1428F40010E0BBDF02E810E0B8DF0FE110E0B5DF03E810E086
:14290800B2DF0FEF10E0AFDF07E810E0ACDF0FE010E0A9DFDD
:14291C0000EA10E0A6DF01E710E0A3DF04EA10E0A0DF08EA9F
:1429300010E09DDF0FE310E09ADF09EA10E097DF03E010E0A0
:1429440094DF0FEA10E091DF08EB10E08EDF01E010E08BDF28
:1429580005E010E088DF09E010E085DF0DE010E082DF01E1D2
:14296C0010E07FDF05E110E07CDF09E110E079DF0DE110E0C8
:1429800076DF01E210E073DF05E210E070DF09E210E06DDF7C
:142994000DE210E06ADF01E310E067DF05E310E064DF09E3E6
:1429A80010E061DF0DE310E05EDF01E410E05BDF05E410E0E6
:1429BC0058DF09E410E055DF0DE410E052DF01E510E04FDFA9
:1429D00005E510E04CDF09E510E049DF0DE510E046DF01E6FA
:1429E40010E043DF05E610E040DF09E610E03DDF0DE610E0F5
:1429F8003ADF01E710E037DF05E710E034DF09E710E031DFE5
:142A0C000DE710E02EDF0BEB10E02BDF0FE710E028DF0CEBF1
:142A200010E025DF0FE710E022DF0DEB10E01FDF0FE710E0FB
:142A34001CCF0E94FA17C22EE02EA88405E110E014DF0E2DC2
:142A4800112711DF0E2D11270F5F1F4F0CDF05E710E009DF54
:142A5C000C2D112706DF0C2D11270F5F1F4F01DF2A2C332436
:142A70003594279435942794359427940A851127000F111FC0
:142A8400000F111F000F111F0229132905DF25E030E00A2D29
:142A980011270E942B1818014E805524242835288101F8DEAC
:142AAC000C94DB170E9495170E94F61725976B89CF88498DAA
:142AC000EE24A62E262E3324220C331C63E070E0621973096A
:142AD40067C04C83CA820D88088229892A0D0F850E0DA7DF6F
:142AE8004C83CA820D88088229892A0D0F850E199EDF4C83B0
:142AFC00CA820D88088229892A190F850E0D95DF4C83CA8228
:142B10000D88088229892A190F850E198CDF4C83CA820D88C7
:142B2400088229892E0D0F850A0D83DF4C83CA820D880882DF
:142B380029892E0D0F850A197ADF4C83CA820D8808822989A0
:142B4C002E190F850A0D71DF4C83CA820D88088229892E1900
:142B60000F850A1968DF6030E0E07E075CF42E2C3324220C5F
:142B7400331C220C331C620D731D6A5F7F4F0FC02A2C33246F
:142B88004E2C552442185308440C551C440C551C640D751D0C
:142B9C00665F7F4FAA94E394EA1408F496CFEA1409F048C07F
:142BB0004C83CA820D88088229892A0D0F850E0D3ADF4C8357
:142BC400CA820D88088229892A0D0F850E0D31DF4C83CA82CF
:142BD8000D88088229892A190F850E0D28DF4C83CA820D886F
:142BEC00088229892A190F850E191FDF4C83CA820D88088263
:142C000029892E0D0F850A0D16DF4C83CA820D880882298947
:142C14002E0D0F850A190DDF4C83CA820D88088229892E199B
:142C28000F850A0D04DF4C83CA820D88088229892E190F8543
:142C3C000A19FBDE25960E94EB1724960895AA92CA92A22E6A
:142C5000C02E01E210E00BDE0C2D112708DE0A2D112705DE1D
:142C64000A81112702DE0C811127FFDD0A851127FCDD0885EB
:142C78001127F9DD0E811127F6DDC990A9900895AA92CA92D9
:142C8C00A22EC02E02E210E0ECDD0C2D1127E9DD0A2D112733
:142CA000E6DD0A811127E3DD0C811127E0DD0A851127DDDDD7
:142CB40008851127DADD0E811127D7DD08891127D4DD0E8508
:142CC8001127D1DD0C851127CEDDC990A99008950E94F817BE
:142CDC00E22E402FC884AA8405E110E0C2DD042F1127BFDD6F
:142CF0002C2C3324042F1127020D131D01501040B6DD05E757
:142D040010E0B3DD0E2D1127B0DD2A2C33240E2D1127020D0C
:142D1800131D01501040A7DD442755270AC0FA010C841D8475
:142D2C00E00DF11D04911127B3DD4F5F5F4FCA9C1001220C3A
:142D4000331C4215530578F30C94E2170E941918A22EC02EEC
:142D54004C855D8505E110E088DD0C2D112785DD0FE510E0C6
:142D680082DD05E710E07FDD0A2D11277CDD0A2D1127095F21
:142D7C001F4F77DD46C0662707C00027112788DD0027112704
:142D900085DD63956830B8F3662734C028E030E0062F11278C
:142DA4000E94A517FA01208085E0829DF001E05AF040E00F54
:142DB800F11F8BE995E2E80FF91F2490332428E030E0062FA5
:142DCC0011270E94A117980100E810E00E949A172022312208
:142DE000222011F4332039F00885112757DD0A85112754DD2B
:142DF40006C00027112750DD002711274DDD6395683208F462
:142E0800C9CF4F5F5F4FFA012080222009F0B5CF0C9422188E
:142E1C000E940B18A22EC02E05E110E022DD0C2D11271FDDDD
:142E30000FE510E01CDD05E710E019DD0A2D112716DD0A2D46
:142E44001127015F1F4F11DDAA2436C0442755272EC080E28B
:142E58008A9D100108841984200C311CFA01F695E795F695FF
:142E6C00E795F695E795E20DF31D249033249A0127703070F3
:142E800000E810E00E949A1720223122222011F4332039F0BB
:142E940007E010E001DD00EE10E0FEDC06C000271127FADCC2
:142EA80000271127F7DC4F5F5F4F4030E1E05E0770F2A39459
:142EBC000E80A01408F4C6CF0C94121800000027112702C044
:142ED0000F5F1F4F0337E4E01E07D0F308950E94011858017B
:142EE4004427552703C0EEDF4F5F5F4F4A155B05D0F30C94E5
:142EF80006184A935A9345E050E004C0000000004F5F5F4F69
:142F0C0040175107C8F35991499108950000000000000000E6
:142F2000000000000000000008953A932A931A930A9308958F
:142F3400222321F0159507952A95FACF08956894DA92D12E61
:142F480004C0E894DA92D12ED32617FF04C0109500950F5F4F
:142F5C001F4F37FF04C0309520952F5F3F4F0E94C217D7FE13
:142F700004C0109500950F5F1F4FD9900895689401C0E89434
:142F8400EA92FA928A93EE24FF2480E1000F111FEE1CFF1C1A
:142F9800E216F30618F0E21AF30A03958A95A1F716F40E2D9F
:142FAC001F2D8991F990E9900895A990B990C990D990E9904F
:142FC000F9900895A990B990C990D990E990F99049915991CD
:142FD4000895A990B990C990D990E990F99049915991699148
:142FE800799108957A936A935A934A93FA92EA92DA92CA928A
:142FFC00BA92AA9208955A934A93BA92AA920895A990B9902B
:143010004991599108955A934A93DA92CA92BA92AA92089594
:14302400A990B990C990D9904991599108957A936A935A93FC
:143038004A93DA92CA92BA92AA920895A990B990C990D99076
:14304C0049915991699179910895222321F0000F111F2A95B7
:04306000FACF089506
:00000001FF
