:032E8B0001120031
:102D1200758921759850758780758C01758A017542
:102D22008DF4758BF4D2A9D2ACD28CD28ED2AF22D2
:062F00008F993099FD22BB
:102E2A0012218BFF600C122F00740129F9E43AFA7F
:032E3A0080EE2205
:03002300022A941A
:102A9400C0E0C0D075D000C000C007309827C298ED
:102AA400E599640D6010AF99122F0074082512F88F
:102AB400A699051280147F0D122F007F0A122F0091
:102AC4007512008005309902C299D007D000D0D089
:032AD400D0E0321D
:1000260043757272656E7420616E676C65203D2043
:100036002563256325632064656772656520210055
:100046008F468E478D488C498B4A8A4B894C884D02
:10005600874E864F855084518352825381548055F2
:100066007F567E577D587C597B5A7A5B795C785DE2
:10007600775E765F756074617362726371647063D4
:100086006F626E616D606C5F6B5E6A5D695C685B1A
:10009600675A66596558645763566255615460538A
:1000A6005F525E515D505C4F5B4E5A4D594C584BFA
:1000B600574A56495548544753465445554456435E
:1000C6005742584159405A3F5B3E5C3D5D3C5E3B62
:1000D6005F3A603961386237633664356534663352
:1000E6006732683169306A2F6B2E6C2D6D2C6E2B42
:1000F6006F2A702971287229732A742B752C762D14
:10010600772E782F79307A317B327C337D347E3589
:100116007F36803781388239833A843B853C863DF9
:10012600873E883F89408A418B428C438D448E4569
:100136003132333435363738393031323334353677
:100146003738393031323334353637383930313261
:10015600333435363738393031323334353637384B
:100166003930313233343536373839303132333449
:100176003536373839303132333435363738393029
:100186003132333435363738393031323334353627
:100196003738393031323334353637383930313211
:1001A60033343536373839303132333435363738FB
:1001B60039303132333435363738393031323334F9
:1001C60035363738393031323334353637383930D9
:1001D60031323334353637383930313233343536D7
:1001E60037383930313233343536373839303132C1
:1001F60033343536373839303132333435363738AB
:1002060039303132333435363738393031323334A8
:100216003536373839303132333435363738393088
:100226003132333435363738393031323334353686
:100236003738393031323334353637383930313270
:10024600333435363738393031323334353637385A
:100256003930313233343536373839303132333458
:100266003536373839303132333435363738393038
:100276000000000000000000000000000000000078
:100286000000000000000000000000000000000068
:100296000020802080208C3EF0208024822882311D
:1002A6007E01000100FFFE010001000100010001C6
:1002B6000004400440044004444446244C244814AA
:1002C600501C501460044004400444FFFE0000002B
:1002D60000400021F03110211001100110E20E251E
:1002E600F8210821082090209028603090230E0CD9
:1002F6000440202020302020200020F3FE10201073
:100306002010201020102012201420182010200069
:100316002000000000000C000C000C000000000093
:1003260000000C000C000C000000000000000000A3
:100336000000001FF010101FF0100410040FFC0046
:10034600200020FFFE082004200620042000A00034
:100356004008000BFE482048204BFE4A224A224A0B
:10036600224A225222522A12242020402080200093
:100376002010001BF0101020102FFE6200A3FC229C
:100386004024402FFE204020A021202218240E28A1
:100396000408800CC00988123C17E63114520895EF
:1003A6000419F81110129014A01060119816060086
:1003B600003FF0026001803FF821083FF821083F26
:1003C600F8210802007FF80208040808081028200F
:1003D6001000027FC200123F92209220923F9200AC
:1003E600127FD244527FD2445244427FCA404400D4
:1003F60000082008207F200A7EFFC4084410C43E5F
:1004060048C42808280F10F810082808C82B06101A
:1004160004203C27C02084FA48215027FE2C0430B3
:100426000063F8A11020A0204020A0231CAC0840A7
:1004360000008010C0108010881FFC2080208040A3
:10044600889FFC008000800080008000847FFE0082
:1004560000020001000080FFFE0200020003F0021D
:1004660010041004100810081010102090C060002E
:100476000009000CC0104017FC200034105218521E
:1004860010911011201120102010401FFE100000A6
:10049600000100010001003FF8210821083FF82172
:1004A60008210821083FF821080102010200FE0088
:1004B6000000003FF0002000400080010001000124
:1004C60004FFFE0100010001000100010005000219
:1004D600001100113811C01104FD0411FC1400199B
:1004E600FC3104D10411FC11041104110451FC2047
:1004F6000001000104FFFE010002003FFC2424224B
:10050600442FF421043FFC21042104211421080076
:10051600001020102020203E2040207C2091FE103C
:1005260020FE201020102012201420182010200059
:100536002000A0009000803FFE208020803E882280
:100546008C2248225022202A604492410A860600C4
:10055600020800083E7EA209240A28FFB0082810D7
:10056600243F226122BF22213A21243F202120005C
:100576002008800C60184017FE300033F8500093B6
:10058600F8100013F812081208120813F8120800DF
:1005960000010002001FF010101FF010101FF010D5
:1005A600101FF00000090028842892681207F00046
:1005B6000000003FFC0100010001000100010001F4
:1005C6000001000100010001000100FFFE00000023
:1005D600000DF8710811081108FD0811F830003BEC
:1005E600FC5440504093FC10401040104017FE1041
:1005F600000108108C0CC808907FFE40048FE800AC
:100606004000807FFE008000800080008002800124
:10061600000080F8408FFE9404A000A3F8900088A4
:10062600008FFEA9209120812082228222842288A6
:100636001E00000000000000000000000000000096
:1006460000000000000000000000000000000000A4
:100656000000000000000000000000000000000094
:100666000000000000000000000000000000000084
:100676000000000000000000000000000000000074
:1006860000000000000FE0000000000000000DF078
:10069600000000000000000C380000000000000010
:1006A6000E1C000000000001F8030C000000000012
:1006B60003BF1FC780000000000307FFE7F000002C
:1006C600000001E1E0637C0000000000FCE03B1E4E
:1006D60000000000001F00100700000000000C00D2
:1006E600000380000000001C0000018000000000E4
:1006F60030000001C00000000030000000C0000013
:100706000000300000006000000000600000006093
:1007160000000000600000006000000000600000B3
:1007260000300000000060000000300000000060A3
:1007360000000030000000006000000030000000F3
:100746000060000000300000000060000000300083
:1007560000000030000038300000020030007FF852
:10076600700000078433FC7F8070000007CE1800FD
:100776000000D8000003EE7C000001DC000001FF51
:10078600FE0000038C000000FFF70000070E0000CB
:10079600007FC3C0001E060000003F83F800FB0672
:1007A6000000003F0E3FFFF3030000003E4C3FFEFB
:1007B60033030000001FF8703863030000001FF0C9
:1007C600C01C62010000001FE1800C660180000071
:1007D6001FC30006C6018000001F870003C60180F4
:1007E60000001F0E0003C6018000001E0C00018CD5
:1007F6000180000000000000000000000000000072
:1008060000000000000000000000000000000000E2
:1008160000000000000000000000000000000000D2
:1008260000000000000000000000000000000000C2
:10083600000000000000000000000000000007C0EB
:100846000000000000000002F000000000000000B0
:10085600063800000000000000030C000000000045
:100866000000018E0000000000001FE3E7E000002A
:1008760000000060F7F37800000000003E1C1B1E1D
:1008860000000000001FC00107800000000001E01A
:100896000001C00000000001800000E00000000030
:1008A6000700000070000000000600000030000095
:1008B60000030E00000038000000070C00000018BE
:1008C600000000060C0000001800000004180000DC
:1008D60000180000078C180000001800000FC01850
:1008E6000000000800001FC3F80000001800001FE9
:1008F600EBF800000008000008FE380000001800B1
:1009060000007C080001FC180000003C08001FF0F5
:10091600100000003F0CFE1C00100000001E0DFE23
:100926000000300000001C06000000780000001CDB
:1009360007000000180000001C038000018C000066
:10094600001401C000038C0000001400F0000E86A5
:100956000000001400FE00358400000010009FFF18
:10096600F18200000000038BE73303000000080259
:1009760018303300000000080618181303000000A2
:10098600080C300C63000000000818600662008046
:1009960000000830C005620180000000608003C6C8
:1009A6000000000000C18001C600000000018300B5
:1009B600010600000000000000000000000000002A
:1009C6000000000000000000000000000000000021
:1009D6000000000000000000000000000000000011
:1009E600000000000000000000000000000003807E
:1009F6000000000000000007E0000000000000000A
:100A0600027000000000000000063C00000000002C
:100A16000000038C0000000000000001C60000007A
:100A260000000003C0F3F8000000000007F9B93F1A
:100A360000000000000C1DCD0780000000000D0620
:100A46000000C00000000007FC000070000000006D
:100A560000800000300000006000C00000180000A8
:100A660000FC018000000C000000FF1F8000000C4D
:100A7600000000FE87000000060000001C030000C6
:100A8600000600000018030000000600000018061B
:100A96000000000600000018060000000600000026
:100AA600000600000006000000000600001E06000A
:100AB600000000060001FE060000100006000FC040
:100AC600060000100003078E000400001000037FDC
:100AD60080000C0000300007000000180000300005
:100AE60005800000280000300005C000003C000022
:100AF60010000EC00000EC000000000C7000018623
:100B0600000000000E38000606000000000C3F0042
:100B16003E86000000000C73FFFD8300000000000D
:100B2600E2BF8D830000000000C2381D8300000074
:100B36000001861C198300000000030E0C39018099
:100B4600000000060C02330180000000061807337F
:100B560001000000000C380363000000000038703C
:100B660003E20180000000706001C6000000000082
:100B760060C000C600000000000000000000000089
:100B8600000000000000000000000000000000005F
:100B9600000000000000000000000000000000004F
:100BA600000000000000000001C00000000000007E
:100BB6000003E000000000000000036000000000E9
:100BC60000000103700000000000000FC3B0000029
:100BD600000000000C41B00000000000000661B0FB
:100BE6000000000000000310F000000000000001FB
:100BF600FF9C80000000000000DF8FE00000000086
:100C06000001C00070000000000003000038000072
:100C16000000000600000E00000000000C000006A8
:100C260000000000001C0000030000000000180087
:100C360000030000000000300000018000000000FA
:100C4600300000018000000000300000018000003C
:100C5600000060000001800000000060000FC180FD
:100C6600000000006001FFC1800000000067C1C0F5
:100C760001800000000067C0000180000000003015
:100C86000000030000000000300000030000000028
:100C960000200000020000000000380000060000EE
:100CA6000000001800000600000000100C000016EE
:100CB6000000000010060000760000000018038007
:100CC60001E3000000001801FCFEE300000000380C
:100CD60001FFFF630000080010011C03E300001879
:100CE6000000072207C100001800000E6306C0803E
:100CF6000008000018E30CC1800008000031819D47
:100D0600818000000070E301988180000001F1C637
:100D160001B181800000019F9C00930180000001C9
:100D26009E3800E3000000000180F000E3000000B0
:100D3600000081E000C2000000000000000000008A
:100D4600000000000000000000000000000000009D
:100D5600000000000000000000000000000000008D
:100D6600000000000000000000000000000000007D
:100D76000000000003C00000000000000E03C000D9
:100D860000000000001F03C00000000000001B035D
:100D960060000000000000198360000000000000F1
:100DA6000C03600000000000000E836000000000DD
:100DB600000004EFE000000000000007FD780000DE
:100DC600000000001E000C00000000000078000F6C
:100DD600000000000000600001800000000000C06C
:100DE6000001800000000001800000C0000000003B
:100DF60003000000C00000000003000000600000C7
:100E06000000060000006000000000060000006010
:100E16000000000006003FF0600000000006FC38FD
:100E260000600000000006E0000060000000000610
:100E360000000060000000000600000060000000E6
:100E46000006000000C00000000003000000C00013
:100E560000000003800001C00000000001800001C6
:100E6600800000000000C00003000000000000F049
:100E760000030000000000003C003D800000000070
:100E8600000FFE39800000000F800FEF1880000071
:100E96000009807940F9800000000981F1C0B18025
:100EA60000000009838F43F08000000019B81E433C
:100EB60020800000003FE87866608000000027C1BF
:100EC600606EC0800000002187806CC0800000003A
:100ED600211F0079C08000000020F8007980800082
:100EE600000029D0007180800000003F0000230030
:100EF600800000000E8000E30000000000000000FB
:100F060000000000000000000000000000000000DB
:100F160000000000000000000000000000000000CB
:100F260000000000000000000000000000000000BB
:100F360000000000000000000000000000000000AB
:100F4600000000000000000000000000000000009B
:100F56000000C00000000000000001A078000000B2
:100F660000000001C0F80000000000000001D800E9
:100F76000000001E000361B0000000001E000363B5
:100F860070000000007A001FF36000000000FE0001
:100F96007FFEC000000000CE01E00FC00000000090
:100FA600DF038000E000000001FF0600007800007B
:100FB6000000FF0C00003800000000FD8DC0001C82
:100FC600000000019D99F1FC0C000000019ED80074
:100FD6007F06000000031ED8000006000000033E46
:100FE600E000000600000003733000000600000069
:100FF60007C3380000060000000381B800000600A1
:10100600000000009800000E0000000000EC000048
:101016000C00000000007E00001C00000000003FE5
:1010260000003000000000001FC000E000000000CB
:101036000007F00FC0000000000003FFFFC0000023
:1010460000000000F000C00000000000001026C0F4
:101056000000000000003036C00000000000003034
:101066004C4000000000000030FCC0000000000002
:101076000031D8C00000000000003390C00000001E
:101086000000003330C00000000000003660C000E1
:1010960000000000002C60C00000000000003CC002
:1010A6000000000000000079C00000000000000001
:1010B6007180000000000000006380000000000056
:1010C600000000000000000000000000000000001A
:1010D600000000000000000000000000000000000A
:1010E60000000000000000000000000000000000FA
:1010F60000000000000000000000000000000000EA
:1011060000000000000000000000000000000000D9
:1011160000000000000000000000000000000000C9
:1011260000000000007F0700000000000007FF0726
:1011360083000000000007990E8F80000000000F5A
:10114600FE0F1F80000000003FE4FE370000000095
:10115600007BC7F66E0000000001C3DE03FC000042
:101166000000018F7000B00000000000FCE0001CD1
:10117600000000000071FE20140000000000033E85
:101186003F860000000000020003E30000000000AC
:101196000600002300000000000600000180000099
:1011A600000006000001800000000006000001802B
:1011B600000000000600000180000000000600009C
:1011C600038000000000060000030000000000038A
:1011D600000007000000000001800006000000007B
:1011E6000000E0001C000000000000F800580000AD
:1011F600000000006FFFE000000000000003FEC0DA
:101206000000000000001800C00000000000000CF4
:101216001BC0000000000000181EC00000000000F7
:1012260000183EC0000000000000082CC0000000AE
:1012360000000018F8C00000000000001198C0006F
:10124600000000000033B0C000000000000037506E
:10125600C00000000000003A60000000000000002E
:101266000CE0C000000000000038C00000000000D4
:101276000000518000000000000000018000000016
:101286000000000000000000000000000000000058
:101296000000000000000000000000000000000048
:1012A6000000000000000000000000000000000038
:1012B6000000000000000000000000000000000028
:1012C6000000000000000000000000000000000018
:1012D6000000000000000000000000000000000008
:1012E60000000000000000000000000000000000F8
:1012F600003C0000000000000001FE0000000000AD
:1013060000001CFDF80000000000003CFFF9F000A2
:10131600000000007F7FF5F000000000001FFFFEC8
:10132600F0000000000007807FE000000000001FC2
:10133600F01780000000000009D3E3000000000061
:1013460000700179800000000000600018C00000F5
:10135600000000C00000C00000000000C00000C087
:101366000000000000C000004000000000008000F7
:101376000040000000000180000040000000000165
:10138600800000400000000000800000C000000057
:101396000000C00001C00000000000E00001800065
:1013A600000000003800030000000000001E000ED0
:1013B60000000000000003FFDC0000000000000742
:1013C600FFB0000000000000070060000000000001
:1013D600000605E00000000000000609E00000002D
:1013E600000000061B6000000000000004366000DC
:1013F60000000000000C6E6000000000000018CC29
:10140600400000000000001998C000000000000025
:101416001B38C00000000000003230C00000000091
:1014260000003E60C00000000000003CE0C000007C
:101436000000000008C0C0000000000000718080AD
:101446000000000000000000000000000000000096
:101456000000000000000000000000000000000086
:101466000000000000000000000000000000000076
:101476000000000000000000000000000000000066
:101486000000000000000000000000000000000056
:101496000000000000000000000000000000000046
:1014A6000000000000000000000000000000000036
:1014B6000000000000000000000000000000000026
:1014C6000000000000000000000000000000301EC8
:1014D60000000000000000703C3800000000000022
:1014E6007FCEFC000000000001F8E75C0000000071
:1014F6000003BC897C00000000000E1C7FE0000099
:101506000000000C001F40000000000038000760CB
:101516000000000000300000600000000000300005
:101526000030000000000020000030000000000035
:101536006000003000000000006000003000000085
:101546000000600000300000000000600000300075
:101556000000000060000060000000000030000095
:101566006000000000001C0000C000000000000C2D
:10157600000180000000000007400F00000000008E
:101586000007FFFC00000000000007BFF00000009D
:101596000000000382B0000000000000030FF0000E
:1015A6000000000000030DB0000000000000062B44
:1015B6003000000000000006362000000000000099
:1015C6000C2E600000000000000CCC600000000043
:1015D60000001998600000000000001B3860000041
:1015E600000000003270C00000000000003C60C037
:1015F60000000000000008C00000000000000040DD
:1016060040800043757272656E7420616E676C650A
:10161600203D2033363020646567726565202100E1
:092E8E0001570001580001590030
:102D3200E4FDFCC3ED9FEC9E5015E4FBFA0BBB00D7
:0F2D4200010ABA06F8BBA4F50DBD00010C80E430
:012D5100225F
:042793008F228D23E1
:102797007B007A0079247D037F02122EAFE4F52FA8
:1027A700E524540F2430F52EE524C4540F2430F5C6
:1027B7002D752C3AE525540F2430F52BE525C45407
:1027C7000F2430F52A75293AE526540F2430F528C9
:1027D700E526C454032430F527E52375F014A47CBB
:1027E700002522FFEC35F0FE7B007A007927022ACC
:0127F7004F92
:04285B008F228D2318
:10285F007B007A0079247D027F05122EAFE5245488
:10286F000F2430F52AE524C454032430F5297528A4
:10287F002FE525540F2430F527E525C454012430C6
:10288F00F526752B2F752C32752D30752E30752F33
:10289F0038E4F530E52375F014A47C002522FFEC15
:0C28AF0035F0FE7B007A007926022A4FEB
:1023CC008F228D238B247E007C00122280AF227EF4
:1023DC0000C006C007C3E5239524FDE49EFCEFFB7B
:1023EC007A00E523C39524FFE49ECF2405F532E45F
:1023FC003FF531E4F533D007D006121632AF227E0A
:10240C0000C007E5232524FDE433FCEFFB7A00E54F
:10241C00232524FFE433CF24FBF532EF34FFF531D1
:10242C00E4F533D007121632C3E5229524FFE49469
:10243C0000FEAD237C00EF2405FBE43EFAE523759A
:10244C003100F532E4F533121632E5222524FFE48F
:10245C0033FEAD237C00EF24FBFBEE34FFFAE523C7
:10246C00753100F532E4F5331216327D457FC67EA8
:10247C0000122EF97D537F117E01122EF97D577FAC
:10248C00BD7E00122EF97D4E7F5D7E00122EF97BF3
:10249C00FF7A0479577D017F031227F87BFF7A04BA
:0924AC0079777D027F030227F815
:102969007B3C7D3F7C007F507E0012228075257F55
:10297900E4F5267B9FFDFF12258175681E75697830
:10298900756A327B14E4FDFF122BDA75310075325A
:102999007FE4F5337B9FFAFDFCFFFE121632E4F566
:1029A90031F5327533017B9FFA7D7FFCFFFE0216FC
:0129B90032EB
:102B5B0075257FE4F5267B9F7D16FF1225817B2D46
:102B6B007D467F711223CC753100753273E4F533DA
:102B7B007B9FFA7D73FCFFFE1216327531007532A6
:102B8B0073E4F5337B40FA7D16FC7F40FE02163270
:0424B5008E228F23C1
:1024B9007C007D641221F5EF2430FBAE22AF237C32
:1024C900007D641221F57E007F0ACFCDCFCECCCE20
:1024D9001221F5EF2430F526AE22AF237C007D646E
:1024E9001221F57E007F0ACFCDCFCECCCE1221F5B9
:1024F900ED2430F527AD037F7A7E00122EF9AD2643
:102509007F7B7E00122EF9AD277F7C7E00122EF98B
:10251900AE22AF237C007D031221F58E228F23E5A5
:102529002325E0FFE52233FE74462FF58274003E31
:10253900F583E493F52474472FF58274003EF583FF
:10254900E493F525E55CFB7A00752E00855D2F7D0A
:10255900467C007F717E00121D65E524FB7A0075BB
:102569003100852532E4F5337D46FC7F71FE121674
:072579003285245C85255D1D
:012580002238
:0426A7008E228F23CD
:1026AB0078267C007D007BFF7A1679097E007F1DE2
:1026BB00122165AE22AF237C007D641221F5EF243D
:1026CB0030F524AE22AF237C007D641221F5AA04E1
:1026DB00AB057D0A7C00AF03AE021221F5EF24306F
:1026EB00F5257D0A7C00AF03AE021221F5ED2430F7
:1026FB007546FF75470075482685244985254AF59B
:10270B004B7B007A007926121A657B007A007926BA
:0D271B00122E2A7F0D122F007F0A022F00C0
:03000300022AD7F7
:102AD700C0E0C0D075D000C002C003C004C005C0AC
:032AE70006C0071F
:102AEA00C2AF7F0A7E00122D32E59054F8FFBFF87C
:0F2AFA0004D2AF800AEF24887003755901D2AF60
:102B0900D007D006D005D004D003D002D0D0D0E071
:012B19003289
:03000B00022EA41E
:0B2EA400C2AFC28C0558D28CD2AF32F6
:102C4C00E50824D0FDD394035029E50924D0FFE5F1
:102C5C000A24D0FCEF75F00AA4FBAAF0ED75F06421
:102C6C00A42BFFE5F03AFEAD047C00EF2DF55BECF8
:032C7C003EF55AC8
:012C7F002232
:102B1A001229BA122D12122B5BD2A8D2887D0FE489
:102B2A00FF12285B755A00755B01122C4CE558B4EC
:102B3A000507AF5BAE5A1224B57D0F7F0B122793A0
:102B4A00E5591470E5AF5BAE5A1226A7E4F5598031
:012B5A00D9A1
:0B2EAF00AE05AD078E367FA00229178C
:0B2EBA00AE05AD078E707FA0022C1546
:102D8A007580FFD2A3C2A2D2A0C2A100000000AFE8
:082D9A008000D2A1D2A2C2A365
:012DA200220E
:0D2E6100122D8AEF5402FEEF54015E70F353
:012E6E002241
:0D2E6F00122D8AEF5408FEEF54045E70F33C
:012E7C002233
:072ED900122D8AEF20E4F93D
:012EE00022CF
:072EE100122D8AEF20E5F934
:012EE80022C7
:072EE900122D8AEF20E6F92B
:012EF00022BF
:072EF100122D8AEF20E7F922
:012EF80022B7
:102DA300AD07122E61D2A3C2A2D2A1C2A0008D8010
:082DB30000D2A0D2A2C2A322AB
:102DBB00AD07122E61C2A3C2A2D2A1C2A0008D8008
:082DCB0000D2A0D2A2C2A32293
:06000E00AB05AA04AC07DB
:0F001400AF03122DBBAF02122DBBAF04022DA301
:0E2E7D00AE05AC07AF06122DBBAF04022DA3AD
:082EC500FC7F2412000E7FB017
:032ECD00022DA330
:03000600022DBB0D
:102E3D00D2A7C2A7000000000000000000000000A3
:032E4D00D2A722E7
:092ED000BFFF03D2A622C2A62214
:022CA700A9077B
:102CA900E4FBFAFD122EC5E4FAFB122E6FAF0112F6
:102CB90000060BBB00010AE4B503EFEAB420EB7F81
:042CC900B2022ECD58
:02272800AC07FC
:10272A00EB131313541FF51BED75F014A4AD047CC1
:10273A00002DFFEC35F0CF2400F51DEF3408F51C11
:10274A00E4F51AE51AC39516503EE51A75F014A475
:10275A00251DFFE51C35F0AD07122EC5122E6FACF4
:10276A001BECD394004018AB170519E519AA187089
:10277A0002051814F912218BFF1200061C80E27F51
:08278A00B2122ECD051A80BB2E
:012792002224
:062D6F0014F912218BFD96
:102D7500A905AD07AC067F2412000EAF01120006AF
:052D85007FC4022ECD09
:0A2A07008E5E8F5F8B608A6189622A
:102A1100E4F564E4F5637E00E55F2563FFEE355E72
:102A2100FEAB600562E562AA6170020561122D6F5D
:102A31000563E563C3940240DD7414255FF55FE42B
:0D2A4100355EF55E0564E564C3941040C683
:012A4E002265
:1029BA00122E3DE4FF122ED07F90122ECDE4FDFCA4
:1029CA007F4012000E7D147C007F4112000E7D00B4
:1029DA007C087F4212000E7D147C007F4312000E99
:1029EA007F80122ECD7F9C122ECD7D1D7C017F21F2
:0D29FA0012000E7FA0122ECDE4FF022CA7CC
:0827F8008D258B268A27892814
:10280000EF75F0A0A4FDACF0E52575F002A42DFF56
:10281000E5F03CCF2400F52CEF3408F52BE4F52A45
:10282000E4F5297E00E52C2529FFEE352BFEAB26AD
:102830000528E528AA2770020527122D6F0529E52E
:1028400029C3940240DD7414252CF52CE4352BF5B6
:0A2850002B052AE52AC3941040C6A8
:01285A00225B
:102E1600A905AD07AC06E924F8F97F2412000EAF28
:042E260001022ECDAA
:102D52008D828C83AD07AC06E58224F0F582E435E2
:0D2D620083F5837F2412000EAF82022ECD78
:072EF90074E02DFD022D75B0
:0A2A4F008E318F328B338A348935C3
:102A5900E4F536F537E5322537FFE5313536FEAB96
:102A690033AA34A9358537828536831221A4FD120C
:102A79002EF90537E53770020536AB33AA34A93587
:0A2A8900F5828536831221A470CB7C
:012A93002220
:0A28BB007B01AD41AC40AF3FAE3EE3
:0428C5008F828E83ED
:1028C900AE04AF057C007D141221E38E4B8F4CE5DD
:1028D90082AE837803CEC313CE13D8F9FFE58254B1
:1028E90007FDC374079DFD8D4DE54C2FCFE54B3E8C
:1028F900CF2400CF34088F82F583EB6005AE8302C5
:0D2909002E16AF82AE83AD4D7C00122D5214
:01291600229E
:0C1626007C00E525753100F532E4F53359
:0C1632008E2B8F2C8C2D8D2E8A2F8B3050
:10163E00754A01E52C65307004E52B652F600302B9
:10164E0016EDD3E52E9532E5316480F8E52D6480F4
:10165E00985015C3E532952EF545E531952DF54497
:10166E00852D46852E478013C3E52E9532F545E52B
:10167E002D9531F544853146853247C3E544648066
:10168E0094805003021A08E53364017035E54AB4BC
:10169E000118E5472545FDE5463544FC7B01AF2C99
:1016AE00AE2B1228C5E4F54A802BE5472545FDE50E
:1016BE00463544FCE4FBAF2CAE2B1228C5754A010F
:1016CE008013E5472545FDE5463544FC7B01AF2CEF
:1016DE00AE2B1228C5E545154570A01544809CE536
:1016EE002E65327004E52D6531600302179DD3E53A
:1016FE002C9530E52F6480F8E52B6480985015C347
:10170E00E530952CF545E52F952BF544852B488531
:10171E002C498013C3E52C9530F545E52B952FF517
:10172E0044852F48853049D3E5459400E5446480CF
:10173E0094805003021A08E53364017035E54AB40B
:10174E000118E5492545FFE5483544FE7B01AD2EE0
:10175E00AC2D1228C5E4F54A802BE5492545FFE559
:10176E00483544FEE4FBAD2EAC2D1228C5754A015A
:10177E008013E5492545FFE5483544FE7B01AD2E36
:10178E00AC2D1228C5E5451545709C15448098C3AF
:10179E00E532952EFFE531952DFE122E98C006C02E
:1017AE0007C3E530952CFFE52F952BFE122E98D012
:1017BE0005D004D3EF9DEC6480F8EE64809850035E
:1017CE000218EDD3E530952CE52B6480F8E52F64F7
:1017DE0080985024852B44852C45852F2B85302CC5
:1017EE0085442F854530852D44852E4585312D85A3
:1017FE00322E854431854532C3E530952CF535E5DD
:10180E002F952BF534C3E532952EF537E531952D11
:10181E00F536C364809480501374FFF542F543C3CC
:10182E00E49537F537E49536F53680067542007542
:10183E004301E53725E0FDE53633FCF53A8D3BE512
:10184E003525E0FFE53433FEC3ED9FF53DEC9EF507
:10185E003CE53725E0FFE53633FEC3EF9535F53928
:10186E00EE9534F538852D40852E41852B3E852C01
:10187E003FD3E53F9530E52F6480F8E53E648098D0
:10188E004003021A08E53364017017E54AB40108F3
:10189E001228BBE4F54A800DE4FB1228BD754A01FF
:1018AE0080031228BBC3E53864809480500EE53B5C
:1018BE002539F539E53A3538F5388018E53D2539BD
:1018CE00F539E53C3538F538E5432541F541E54236
:1018DE003540F540053FE53F7002053E02187FD3C7
:1018EE00E532952EE52D6480F8E53164809850241C
:1018FE00852B44852C45852F2B85302C85442F85B3
:10190E004530852D44852E4585312D85322E8544D5
:10191E0031854532C3E530952CF535E52F952BF500
:10192E0034C3E532952EF537E531952DF536C3E501
:10193E003464809480501374FFF542F543C3E495EC
:10194E0035F535E49534F53480067542007543015E
:10195E00E53525E0FDE53433FCF53A8D3BE53725DD
:10196E00E0FFE53633FEC3ED9FF53DEC9EF53CE51D
:10197E003525E0FFE53433FEC3EF9537F539EE95A7
:10198E0036F538852B3E852C3F852D40852E41D34F
:10199E00E5419532E5316480F8E540648098505A0F
:1019AE00E53364017017E54AB401081228BBE4F56B
:1019BE004A800DE4FB1228BD754A0180031228BB34
:1019CE00C3E53864809480500EE53B2539F539E542
:1019DE003A3538F5388018E53D2539F539E53C3589
:1019EE0038F538E543253FF53FE542353EF53E05F2
:0A19FE0041E5417002054002199D09
:011A080022BB
:0C1D65008E288F298C2A8D2B8A2C8B2D28
:101D7100E529652D7004E528652C7062D3E52B9566
:101D81002FE52E6480F8E52A6480985015C3E52F6D
:101D9100952BF541E52E952AF540852A42852B4361
:101DA1008013C3E52B952FF541E52A952EF5408546
:101DB1002E42852F43C3E540648094805003022066
:101DC10094E5432541FDE5423540FCE4FBAF29AEF6
:101DD100281228C5E541154170DB154080D7E52B58
:101DE100652F7004E52A652E7066D3E529952DE5EA
:101DF1002C6480F8E5286480985015C3E52D952959
:101E0100F541E52C9528F540852844852945801321
:101E1100C3E529952DF541E528952CF540852C4400
:101E2100852D45D3E5419400E540648094805003BD
:101E3100022094E5452541FFE5443540FEE4FBAD34
:101E41002BAC2A1228C5E541154170D7154080D326
:101E5100C3E52F952BFFE52E952AFE122E98C0067D
:101E6100C007C3E52D9529FFE52C9528FE122E9874
:101E7100D005D004D3EF9DEC6480F8EE64809850D7
:101E810003021F8DD3E52D9529E5286480F8E52C03
:101E91006480985024852840852941852C28852DEA
:101EA1002985402C85412D852A40852B41852E2A67
:101EB100852F2B85402E85412FC3E52D9529F531A1
:101EC100E52C9528F530C3E52F952BF533E52E95B7
:101ED1002AF532C364809480501374FFF53EF53FB8
:101EE100C3E49533F533E49532F5328006753E004F
:101EF100753F01E53325E0FDE53233FCF5368D37DD
:101F0100E53125E0FFE53033FEC3ED9FF539EC9E69
:101F1100F538E53325E0FFE53233FEC3EF9531F5C2
:101F210035EE9530F534852A3C852B3D85283A855B
:101F3100293BD3E53B952DE52C6480F8E53A648097
:101F4100984003022094E4FBAD3DAC3CAF3BAE3A7C
:101F51001228C5C3E53464809480500EE5372535D9
:101F6100F535E5363534F5348018E5392535F5355F
:101F7100E5383534F534E53F253DF53DE53E353C65
:101F8100F53C053BE53B70AA053A80A6D3E52F95C4
:101F91002BE52A6480F8E52E64809850248528403A
:101FA100852941852C28852D2985402C85412D8524
:101FB1002A40852B41852E2A852F2B85402E854150
:101FC1002FC3E52D9529F531E52C9528F530C3E58D
:101FD1002F952BF533E52E952AF532C3E530648034
:101FE1009480501374FFF53EF53FC3E49531F5310C
:101FF100E49530F5308006753E00753F01E53125E9
:10200100E0FDE53033FCF5368D37E53325E0FFE5BE
:102011003233FEC3ED9FF539EC9EF538E53125E00D
:10202100FFE53033FEC3EF9533F535EE9532F534E8
:1020310085283A85293B852A3C852B3DD3E53D956D
:102041002FE52E6480F8E53C6480985046E4FBADB2
:102051003DAC3CAF3BAE3A1228C5C3E53464809435
:1020610080500EE5372535F535E5363534F53480C4
:1020710018E5392535F535E5383534F534E53F25AD
:102081003BF53BE53E353AF53A053DE53D70AD059D
:032091003C80A9E7
:012094002229
:062581008F228D238B2444
:10258700E4F527F528F529F52AE526704AEFFB7AC1
:10259700007E00121626E524FB7A00FF7E00AD239D
:1025A700121626AF227E00AD237C00E52424FFFB14
:1025B700E434FFFAE52312162AAF227E00AD257C0C
:1025C70000E52424FFFBE434FFFAE525753100F527
:1025D70032E4F533021632C3E5249522F527C3E525
:1025E700259523F529E528D395295027E52AD3955D
:1025F700275019E522252AFFE433FEE5232528FD88
:10260700E433FC7B011228C5052A80E0E4F52A059E
:032617002880D246
:01261A00229D
:082280008E258F268C278D2886
:10228800E4F529F52AAF03F52B8F2CF52DF52ED380
:10229800E52A952CE529952B40030223CBE5262535
:1022A8002AFFE5253529FEE528252CFDE527352BD0
:1022B800FC7B011228C5E526252AFFE5253529FEE0
:1022C800C3E528952CFDE527952BFC7B011228C535
:1022D800C3E526952AFFE5259529FEE528252CFD49
:1022E800E527352BFC7B011228C5C3E526952AFF77
:1022F800E5259529FEC3E528952CFDE527952BFCBA
:102308007B011228C5E526252CFFE525352BFEE5A2
:1023180028252AFDE5273529FC7B011228C5E52655
:10232800252CFFE525352BFEC3E528952AFDE52755
:102338009529FC7B011228C5C3E526952CFFE525C8
:10234800952BFEE528252AFDE5273529FC7B01127A
:1023580028C5C3E526952CFFE525952BFEC3E52862
:10236800952AFDE5279529FC7B011228C5D3E52E82
:102378009400E52D648094805024E52A25E0FFE54B
:102388002933FEE52E2FCFE52D3ECF2401F52EE48F
:102398003FF52D052AE52A70270529022297E52C05
:1023A80025E0FFE52B33FEC3E52E9FCFE52D9ECF1D
:1023B8002401F52EE43FF52DE52C152C7002152B84
:0323C80002229757
:0123CB0022EF
:102BDA008F658D668B677E007C007A00E568121629
:102BEA002AAF677E00AD687C00AB697A00E56A129D
:102BFA00162AAF697E00AD6A7C00AB657A00E5668D
:0B2C0A00753100F532E4F5330216329C
:102DEA00D29100D2900000000000C29100000000C1
:062DFA0000C2900000225F
:102E5000C29100D2900000000000D291000000005A
:012E6000224F
:032B9B00122DEA0E
:102B9E00E4FEEFA806088002C333D8FC30E704D267
:102BAE00918002C29100D2900000000000C2900EEF
:102BBE00BE08DF0000D2910000D2900000003091DC
:0B2BCE0004C2098002D209C29000007E
:012BD90022D9
:102CCD00E4FFD291FE00C2900000000000D29000FF
:102CDD0000EF25E0FF3091010F00000EBE08E6C2A7
:032CED0090000054
:012CF00022C1
:092CF100122CCDEF1221D1D2000A
:102CFA00200004C2918002D291000000D29000000C
:082D0A00000000C2900000224D
:102DD300122B9B200902C322AF05122B9E2009024E
:072DE300C322122E50D3227F
:022C1500AE0708
:102C1700122B9B200902C322AF05122B9E2009020B
:102C2700C322E4FDEDC39570501612218BFF122BC2
:102C37009E200902C322740129F9E43AFA0D80E4BF
:042C4700122E50D326
:012C4B002266
:102E0000122DEAEF04FF122B9E200902C322122C7E
:062E1000F1122E50D32246
:042917008D32AC074A
:10291B00E4FD122DEA122B9E200902C322AF3212C4
:10292B002B9E200902C322122DEAEC04FF122B9ED0
:10293B00200902C322E4FDE53614FFEDC39F5016B8
:10294B00122CCDEF1221D1C200122CFA740129F9ED
:0D295B00E43AFA0D80E1122CF1122E50D357
:01296800224C
:0300000002261BBA
:0C261B00787FE4F6D8FD7581700226621D
:10209500E709F608DFFA8046E709F208DFFA803E2D
:1020A50088828C83E709F0A3DFFA8032E309F6081A
:1020B500DFFA8078E309F208DFFA807088828C8382
:1020C500E309F0A3DFFA806489828A83E0A3F60836
:1020D500DFFA805889828A83E0A3F208DFFA804C10
:1020E50080D280FA80C680D4806980F280338010E7
:1020F50080A680EA809A80A880DA80E280CA803350
:1021050089828A83ECFAE493A3C8C582C8CCC583C7
:10211500CCF0A3C8C582C8CCC583CCDFE9DEE78097
:102125000D89828A83E493A3F608DFF9ECFAA9F016
:10213500EDFB2289828A83ECFAE0A3C8C582C8CC6C
:10214500C583CCF0A3C8C582C8CCC583CCDFEADE85
:10215500E880DB89828A83E493A3F208DFF980CCE7
:1021650088F0EF60010E4E60C388F0ED2402B404E0
:102175000050B9F582EB2402B4040050AF23234587
:0621850082239020E573A7
:10218B00BB010689828A83E0225002E722BBFE0252
:09219B00E32289828A83E4932285
:1021A400BB010CE58229F582E5833AF583E02250F0
:1021B40006E92582F8E622BBFE06E92582F8E2223A
:0D21C400E58229F582E5833AF583E4932254
:1021D100BB010689828A83F0225002F722BBFE01ED
:0221E100F322E7
:1021E300EF8DF0A4A8F0CF8CF0A428CE8DF0A42E10
:0221F300FE22CA
:1021F500BC000BBE0029EF8DF084FFADF022E4CCCE
:10220500F875F008EF2FFFEE33FEEC33FCEE9DEC96
:10221500984005FCEE9DFE0FD5F0E9E4CEFD22EDDC
:10222500F8F5F0EE8420D21CFEADF075F008EF2F26
:10223500FFED33FD4007985006D5F0F222C398FD17
:052245000FD5F0EA22B4
:101A0900E5522446F8E60552227843300702784623
:101A1900E475F00112224A02218B2000EB7F2ED2BD
:101A2900008018EF540F2490D43440D4FF30040BB5
:101A3900EF24BFB41A0050032461FFE55360021577
:101A4900530556E5567002055530070D7843E47580
:101A5900F00112224AEF0221D1022C807403D2072D
:101A69008003E4C207F5528B438A448945E4F55360
:101A7900F555F556E55360077F20121A4480F57530
:101A890054FFC201C200C202C203C205C206C20893
:101A9900121A12FF700D3007057F00121A55AF5642
:101AA900AE5522B4255FC2D5C204121A12FF24D042
:101AB900B40A00501A75F00A785330D50508B6FFF4
:101AC9000106C6A426F620D5047002D20380D924C3
:101AD900CFB41A00EF5004C2E5D204021C55D2015A
:101AE90080C6D20080C0D20280BCD2D580BAD205CD
:101AF90080B47F20121A442002077401B5530040B4
:101B0900F1121A09FF121A44021A7DD208D206806C
:101B190095121A09FB121A09FA121A09F94A4B7095
:101B29000679267A1D7BFF20022EE553602A7E0066
:101B39008E827583001221A460060EEE655470F042
:101B4900C2D5EBC0E0EAC0E0E9C0E0EE121C9CD0CF
:101B5900E0F9D0E0FAD0E0FB12218BFF60AAEBC0DC
:101B6900E0EAC0E0E9C0E0121A44D0E02401F9D06B
:101B7900E03400FAD0E0FBE5540460DCD554D980A8
:101B8900877BFF7A1C7998D202809C791080027930
:101B990008C206C2088008D2D5790A8004790AC227
:101BA900D5E554047002F554E4FAFDFEFF121A0952
:101BB900FC7B08200113121A09FD7B1030000A1260
:101BC9001A09FE121A09FF7B20EC3382D592D550EF
:101BD90013C3E43000069FFFE49EFEE42001039D49
:101BE900FDE49CFCE4CBF8C201EC700CCFCECDCC6B
:101BF900E824F8F870F38017C3EF33FFEE33FEEDF6
:101C090033FDEC33FCEB33FB994002FB0FD8E9EBD6
:101C1900300105F8D0E0C448B201C0E00AEC4D4EED
:101C29004F78207B0070C2EAB5540040BCC0E01276
:101C39001C9ED0F0D0E0200104C4C0E0C4B201C0B1
:101C4900F0121A2DD0F0D5F0EB021A7D12225A1B90
:101C59001A531B94581AEB4C1AE7421B984F1BA0B6
:0F1C6900441BA0491B00431BA6551B8A461B8A20
:101C7800451B8A471D46501AEF2D1AF32E1B162BAB
:101C88001AF7231B14201D2F2A1AAF4800001B0E19
:101C98003F3F3F00790AA2D5200314300509B91047
:101CA800020404B9080104A2D52006025001042048
:101CB80002689202B553005034C0E07F2030031907
:101CC8007F30A20272067205500F121CF5C202C2C2
:101CD80006C205C2087F30800F300503E9C0E01254
:101CE8001A44300503D0E0F9D0E0B553CC300517DD
:101CF8007F30B9100C121A447F583004077F78805F
:101D080003B90803121A443002057F2D021A447FD2
:101D1800202008F87F2B2006F322920280CF286E1D
:101D2800756C6C2900D201121A093001F8C20178C9
:101D38005330D50108F6021AAF2D50434958121AEC
:101D4800092403B405004001E4901D4193121A359B
:0D1D5800743A121A35D203755304021B941D
:0C2E9800EE30E707C3E49FFFE49EFE223B
:10262700022B1AE493A3F8E493A34003F68001F284
:1026370008DFF48029E493A3F85407240CC8C333B4
:10264700C4540F4420C8834004F456800146F6DF83
:10265700E4800B0102040810204080902E8BE47E5A
:10266700019360BCA3FF543F30E509541FFEE49378
:10267700A360010ECF54C025E060A840B8E493A33F
:10268700FAE493A3F8E493A3C8C582C8CAC583CA6A
:10269700F0A3C8C582C8CAC583CADFE9DEE780BE22
:012E9700003A
:10224A00FAE6FB0808E6F925F0F618E6CA3AF62295
:10225A00D083D082F8E4937012740193700DA3A313
:10226A0093F8740193F5828883E473740293686027
:06227A00EFA3A3A380DF27
:102C8000EFB40A07740D122C8B740A309811A899AE
:102C9000B8130CC2983098FDA899C298B811F630B4
:072CA00099FDC299F599228C
:00000001FF
